:100000000C9472000C9493000C9493000C94930045
:100010000C9493000C9493000C9493000C94930014
:100020000C9493000C9493000C9493000C94930004
:100030000C9493000C9493000C9493000C949300F4
:100040000C9493000C9493000C9493000C949300E4
:100050000C9493000C9493000C9493000C949300D4
:100060000C9493000C9495000C9493000C949300C2
:100070000C9493000C9493000C9493000C949300B4
:100080000C9493000C9493000C9493000C949300A4
:100090000C9493000C9493000C9493000C94930094
:1000A0000C9493000C9493000C9493000C94930084
:1000B0000C9493000C9493000C9493000C94930074
:1000C0000C9493000C9493000C9493000C94930064
:1000D0000C9493000C9493000C9493000C94930054
:1000E0000C94930011241FBECFEFD1E2DEBFCDBF31
:1000F00000E00CBF12E0A0E0B2E0ECECF4E100E0C4
:100100000BBF02C007900D92A235B107D9F722E0CC
:10011000A2E5B2E001C01D92A835B207E1F70E9446
:1001200037080C94640A0C9400001F920F920FB6CB
:100130000F9211240BB60F928F939F93EF93FF931F
:10014000CF93DF93CDB7DEB786EC90E0FC018081E2
:10015000882F90E090935302809352028091540232
:1001600090915502009751F480915402909155025C
:100170000196909355028093540204C01092550248
:10018000109254020000DF91CF91FF91EF919F9167
:100190008F910F900BBE0F900FBE0F901F90189570
:1001A0000F931F93CF93DF93CDB7DEB7C25BD10917
:1001B0000FB6F894DEBF0FBECDBF8AE290E0DC013F
:1001C0002C918AE290E02760FC0120839E012F5B46
:1001D0003F4F80E090E0A0E7B1E4F9018083918394
:1001E000A283B3838E010B5B1F4FCE018F5B9F4FAA
:1001F00020E030E04AE755E4DC016D917D918D917E
:100200009C910E94F7096F966CAF7DAF8EAF9FAF48
:100210006F976F968CAD9DADAEADBFAD6F97F8018A
:1002200080839183A283B383CE018B5B9F4F20E0B9
:1002300030E040E85FE3DC016D917D918D919C9110
:100240000E94D70888234CF4CE01875B9F4F21E0A2
:1002500030E0FC013183208395C0CE018B5B9F4F42
:1002600020E03FEF4FE757E4DC016D917D918D91E8
:100270009C910E94F209882309F00CF469C0CE0118
:100280008F5B9F4F20E030E040E251E4FC01608151
:100290007181828193810E94F709A3966CAF7DAF33
:1002A0008EAF9FAFA397A3968CAD9DADAEADBFAD06
:1002B000A3976B968CAF9DAFAEAFBFAF6B978E0120
:1002C000075B1F4F6B966CAD7DAD8EAD9FAD6B9791
:1002D0000E944E09A7966CAF7DAF8EAF9FAFA797D8
:1002E000A596EEADFFADA597D8011196FC93EE93C0
:1002F00026C0CE01855B9F4F20E931E0DC012D93C4
:100300003C93CE01855B9F4FFC01808191810197D9
:10031000F1F79E01255B3F4FD9018D939C9300001F
:10032000CE01875B9F4F9E01275B3F4FF9012081E4
:10033000318121503109DC0111963C932E93CE017D
:10034000875B9F4FFC0180819181009791F635C0BA
:100350008E01075B1F4FCE018B5B9F4FDC016D91C0
:100360007D918D919C910E944E09AB966CAF7DAFB3
:100370008EAF9FAFAB97A9968EAD9FADA997F801B1
:1003800091838083CE01835B9F4F9E01275B3F4F0C
:10039000D9012D913C91FC0131832083CE01835BF7
:1003A0009F4FDC018D919C910197F1F79E01235B9A
:1003B0003F4FF9019183808300000E94910788E3F9
:1003C0000E946F0680E090E0A8E4B2E489A39AA3BB
:1003D000ABA3BCA32BEA3AEA4AEA50E469A17AA1AA
:1003E0008BA19CA10E94F709AF966CAF7DAF8EAF39
:1003F0009FAFAF97AF968CAD9DADAEADBFADAF9794
:100400008DA39EA3AFA3B8A720E030E040E850E45E
:1004100069A17AA18BA19CA10E94F709E3966CAF18
:100420007DAF8EAF9FAFE397E3968CAD9DADAEAD44
:10043000BFADE39789A79AA7ABA7BCA720E030E0A0
:1004400040E85FE36DA17EA18FA198A50E94D70827
:1004500088231CF481E08DA70FC120E03FEF4FE718
:1004600057E469A57AA58BA59CA50E94F20988236B
:1004700009F00CF4BEC020E030E04AE754E469A182
:100480007AA18BA19CA10E94DC08E7966CAF7DAF9E
:100490008EAF9FAFE797E7968CAD9DADAEADBFAD8C
:1004A000E7978EA79FA7A8ABB9AB20E030E04AE75B
:1004B00055E46EA57FA588A999A90E94F709EB9636
:1004C0006CAF7DAF8EAF9FAFEB97EB968CAD9DADD4
:1004D000AEADBFADEB978AAB9BABACABBDAB20E099
:1004E00030E040E85FE36AA97BA98CA99DA90E943E
:1004F000D70888232CF481E090E09FAB8EAB6EC0D0
:1005000020E03FEF4FE757E46AA97BA98CA99DA99A
:100510000E94F209882309F00CF44AC020E030E080
:1005200040E251E46EA57FA588A999A90E94F70928
:10053000EF966CAF7DAF8EAF9FAFEF97EF968CAD20
:100540009DADAEADBFADEF9767968CAF9DAFAEAF33
:10055000BFAF679767966CAD7DAD8EAD9FAD67976A
:100560000E944E09C158DF4F688379838A839B8339
:10057000CF57D040C158DF4FA881B981CF57D04065
:10058000BFABAEAB10C080E991E099AF88AF88AD4A
:1005900099AD0197F1F799AF88AF00008EA99FA997
:1005A00001979FAB8EAB8EA99FA9009761F764C09E
:1005B0006AA97BA98CA99DA90E944E09CD57DF4F3E
:1005C000688379838A839B83C358D040CD57DF4F9C
:1005D000E881F981C358D040FFABEEAB8EA99FA94B
:1005E0009BAF8AAF8AAD9BAD0197F1F79BAF8AAF06
:1005F00043C020E030E04FE753E46DA17EA18FA11E
:1006000098A50E94F209882319F114F169A57AA529
:100610008BA59CA50E944E09C957DF4F688379833B
:100620008A839B83C758D040C957DF4F88819981FF
:10063000C758D0409DAF8CAF8CAD9DAD9FAF8EAFF6
:100640008EAD9FAD0197F1F79FAF8EAF000028C030
:100650006DA17EA18FA198A50E944E09C557DF4FBD
:10066000688379838A839B83CB58D040C557DF4FFB
:100670009881CB58D0409DA72DA5CE01805C9F4F7F
:10068000DC012C93CE01805C9F4FFC018081282FE0
:100690002A95F1F7CE01805C9F4FDC012C9300007E
:1006A0008CE00E946F0680E090E0A8E4B2E48983C9
:1006B0009A83AB83BC832BEA3AEA4AEA50E4698125
:1006C0007A818B819C810E94F709C157DF4F688333
:1006D00079838A839B83CF58D040C157DF4F88816D
:1006E0009981AA81BB81CF58D0408D839E83AF83EF
:1006F000B88720E030E040E850E469817A818B815E
:100700009C810E94F709CD56DF4F688379838A83E5
:100710009B83C359D040CD56DF4F88819981AA81F0
:10072000BB81C359D04089879A87AB87BC8720E0BB
:1007300030E040E85FE36D817E818F8198850E9483
:10074000D70888231CF481E08D871BC120E03FEF90
:100750004FE757E469857A858B859C850E94F2096D
:10076000882309F00CF4CAC020E030E04AE754E4E2
:1007700069817A818B819C810E94DC08C956DF4F98
:10078000688379838A839B83C759D040C956DF4FDA
:1007900088819981AA81BB81C759D0408E879F8764
:1007A000A88BB98B20E030E04AE755E46E857F8561
:1007B000888999890E94F709C556DF4F6883798334
:1007C0008A839B83CB59D040C556DF4F888199815E
:1007D000AA81BB81CB59D0408A8B9B8BAC8BBD8BC4
:1007E00020E030E040E85FE36A897B898C899D895D
:1007F0000E94D70888232CF481E090E09F8B8E8B99
:1008000072C020E03FEF4FE757E46A897B898C890B
:100810009D890E94F209882309F00CF44EC020E063
:1008200030E040E251E46E857F85888999890E9495
:10083000F709C156DF4F688379838A839B83CF5939
:10084000D040C156DF4F88819981AA81BB81CF59A1
:10085000D04063968CAF9DAFAEAFBFAF639763964A
:100860006CAD7DAD8EAD9FAD63970E944E09CD55A9
:10087000DF4F688379838A839B83C35AD040CD55E9
:10088000DF4FA881B981C35AD040BF8BAE8B10C057
:1008900080E991E0998F888F888D998D0197F1F784
:1008A000998F888F00008E899F8901979F8B8E8BEF
:1008B0008E899F89009761F764C06A897B898C89DA
:1008C0009D890E944E09C955DF4F688379838A83C9
:1008D0009B83C75AD040C955DF4FE881F981C75A79
:1008E000D040FF8BEE8B8E899F899B8F8A8F8A8D5C
:1008F0009B8D0197F1F79B8F8A8F43C020E030E0FA
:100900004FE753E46D817E818F8198850E94F209C3
:10091000882319F114F169857A858B859C850E945D
:100920004E09C555DF4F688379838A839B83CB5AF1
:10093000D040C555DF4F88819981CB5AD0409D8FDB
:100940008C8F8C8D9D8D9F8F8E8F8E8D9F8D01971F
:10095000F1F79F8F8E8F00001BC06D817E818F818C
:1009600098850E944E09C155DF4F688379838A8339
:100970009B83CF5AD040C155DF4F9881CF5AD0408A
:100980009D878D8588A388A18A95F1F788A30000AB
:1009900085EC90E0DC011C9284EC90E027E6FC0101
:1009A000208381EC90E020E9DC012C9382EC90E044
:1009B00026E0FC01208378940000CE54DF4F0FB670
:1009C000F894DEBF0FBECDBFDF91CF911F910F9185
:1009D0000895CF93DF93CDB7DEB787E290E0FC01B7
:1009E00010828BE290E0FC0120818BE290E022609B
:1009F000FC0120838BE290E0FC0120818BE290E0FF
:100A00002E7FFC01208302C00E94150588E290E041
:100A1000FC0180818823C4F387E290E02FEFFC0182
:100A200020830000DF91CF910895CF93DF93CDB75E
:100A3000DEB7C854D1090FB6F894DEBF0FBECDBFE4
:100A40008BE290E0DC012C918BE290E02460FC01D1
:100A5000208380E090E0A8E4B2E489839A83AB83AA
:100A6000BC832BEA3AEA4AEA50E469817A818B81B5
:100A70009C810E94F7096DA37EA38FA398A78DA1E7
:100A80009EA1AFA1B8A58D839E83AF83B88720E0D8
:100A900030E040E850E469817A818B819C810E943A
:100AA000F70969A77AA78BA79CA789A59AA5ABA5E3
:100AB000BCA589879A87AB87BC8720E030E040E8F7
:100AC0005FE36D817E818F8198850E94D70888239E
:100AD0001CF481E08D87E8C020E03FEF4FE757E44A
:100AE00069857A858B859C850E94F209882309F0A7
:100AF0000CF49FC020E030E04AE754E469817A8139
:100B00008B819C810E94DC086DA77EA78FA798AB84
:100B10008DA59EA5AFA5B8A98E879F87A88BB98BF9
:100B200020E030E04AE755E46E857F858889998921
:100B30000E94F70969AB7AAB8BAB9CAB89A99AA9E8
:100B4000ABA9BCA98A8B9B8BAC8BBD8B20E030E022
:100B500040E85FE36A897B898C899D890E94D70878
:100B600088232CF481E090E09F8B8E8B57C020E08F
:100B70003FEF4FE757E46A897B898C899D890E9402
:100B8000F2098823D9F1D4F120E030E040E251E4C9
:100B90006E857F85888999890E94F7096DAB7EAB48
:100BA0008FAB98AF8DA99EA9AFA9B8AD89A39AA321
:100BB000ABA3BCA369A17AA18BA19CA10E944E0901
:100BC00069AF7AAF8BAF9CAFA9ADBAADBF8BAE8B1F
:100BD00010C080E991E0998F888F888D998D019759
:100BE000F1F7998F888F00008E899F8901979F8BDD
:100BF0008E8B8E899F89009761F756C06A897B89A1
:100C00008C899D890E944E0921966CAF7DAF8EAF75
:100C10009FAF2197EDADFEADFF8BEE8B8E899F8947
:100C20009B8F8A8F8A8D9B8D0197F1F79B8F8A8F7F
:100C30003BC020E030E04FE753E46D817E818F813F
:100C400098850E94F2098823F9F0F4F069857A8585
:100C50008B859C850E944E0925966CAF7DAF8EAF2B
:100C60009FAF259723968EAD9FAD23979D8F8C8F39
:100C70008C8D9D8D9F8F8E8F8E8D9F8D0197F1F71F
:100C80009F8F8E8F000017C06D817E818F81988528
:100C90000E944E0929966CAF7DAF8EAF9FAF29970A
:100CA00026969FAD26979D878D8588A388A18A95D6
:100CB000F1F788A300008BE290E0DC012C918BE23D
:100CC00090E02B7FFC0120830000C85BDF4F0FB654
:100CD000F894DEBF0FBECDBFDF91CF910895CF93C3
:100CE000DF930F92CDB7DEB789830E94E90488E2D3
:100CF00090E02981FC0120838BE290E0FC012081BF
:100D00008BE290E02C7FFC0120830E94150588E295
:100D100090E0FC01108200000F90DF91CF910895C8
:100D2000CF93DF93CDB7DEB7A3970FB6F894DEBFAE
:100D30000FBECDBF8F870E94E90488E290E02F8527
:100D4000DC012C938BE290E0FC0120818BE290E0AF
:100D50002D7FDC012C938BE290E0FC0120818BE263
:100D600090E02160DC012C930E94150588E290E060
:100D7000FC01108280E090E0A0E2B1E489839A83D4
:100D8000AB83BC8320E030E04AE755E469817A8197
:100D90008B819C810E94F7096C8B7D8B8E8B9F8B46
:100DA0008C899D89AE89BF898D839E83AF83B887E7
:100DB00020E030E040E85FE36D817E818F8198859F
:100DC0000E94D70888232CF481E090E09A878987D5
:100DD00055C020E03FEF4FE757E46D817E818F8162
:100DE00098850E94F2098823D9F1D4F120E030E0FF
:100DF00040E251E469817A818B819C810E94F709EC
:100E0000688F798F8A8F9B8F888D998DAA8DBB8DE6
:100E1000888B998BAA8BBB8B688979898A899B89F6
:100E20000E944E096C8F7D8F8E8F9F8FAC8DBD8DF4
:100E3000BA87A98710C080E991E09C878B878B8552
:100E40009C850197F1F79C878B87000089859A859F
:100E500001979A87898789859A85009761F719C0D4
:100E60006D817E818F8198850E944E0968A379A348
:100E70008AA39BA3E8A1F9A1FA87E98789859A85C6
:100E80009E878D878D859E850197F1F79E878D873B
:100E900000000000A3960FB6F894DEBF0FBECDBFD2
:100EA000DF91CF910895CF93DF930F920F92CDB73B
:100EB000DEB79A8389830BC089819A819C012F5F59
:100EC0003F4F3A832983FC0180810E9490068981EB
:100ED0009A81FC018081882309F074F700000000EA
:100EE0000F900F90DF91CF910895CF93DF930F92E2
:100EF0000F92CDB7DEB789836A838A81882F90E00D
:100F0000019780509E4FFC018081982F8981890F25
:100F100081580E946F0600000F900F90DF91CF91D3
:100F20000895CF93DF93CDB7DEB7A2970FB6F894AD
:100F3000DEBF0FBECDBF81E00E946F0680E090E073
:100F4000A0E0B0E489839A83AB83BC8320E030E0E7
:100F50004AE755E469817A818B819C810E94F70977
:100F60006B8B7C8B8D8B9E8B8B899C89AD89BE898D
:100F70008D839E83AF83B88720E030E040E85FE355
:100F80006D817E818F8198850E94D70888232CF4FB
:100F900081E090E09A87898755C020E03FEF4FE7D6
:100FA00057E46D817E818F8198850E94F2098823A4
:100FB000D9F1D4F120E030E040E251E469817A8156
:100FC0008B819C810E94F7096F8B788F898F9A8F14
:100FD0008F89988DA98DBA8D8F87988BA98BBA8BA5
:100FE0006F85788989899A890E944E096B8F7C8FD9
:100FF0008D8F9E8FAB8DBC8DBA87A98710C080E97D
:1010000091E09C878B878B859C850197F1F79C8766
:101010008B87000089859A8501979A8789878985BA
:101020009A85009761F719C06D817E818F819885BF
:101030000E944E096F8F78A389A39AA38F8D98A1E0
:101040009A87898789859A859E878D878D859E85D4
:101050000197F1F79E878D8700000000A2960FB6DA
:10106000F894DEBF0FBECDBFDF91CF910895CF932F
:10107000DF93CDB7DEB70E94D000209154023091AB
:101080005502809156029091570228173907A9F30B
:101090000E94910761E081E00E94750780915202F1
:1010A000909153028630910509F463C08630910512
:1010B00011F00CF067C08530910509F451C08530FE
:1010C000910511F00CF05EC08430910509F43FC029
:1010D0008430910511F00CF055C08330910571F109
:1010E0008330910511F00CF04DC08130910521F055
:1010F0008230910591F046C061E084E00E9475075E
:1011000082E092E00E94530762E084E00E9475074B
:101110008CE092E00E94530735C061E085E00E94B8
:10112000750782E092E00E94530762E083E00E942C
:10113000750786E192E00E94530724C061E085E0D4
:101140000E94750783E292E00E9453071BC061E092
:1011500085E00E9475078CE292E00E94530712C05E
:1011600061E084E00E94750785E392E00E945307E6
:1011700009C061E081E00E94750780E492E00E946E
:10118000530700008091560290915702009729F072
:10119000109257021092560270CF80915602909191
:1011A00057020196909357028093560266CF0E9491
:1011B0007D0908F481E008950E94F0080C94B809B4
:1011C0000E94B10958F00E94AA0940F029F45F3F3B
:1011D00029F00C94A10951110C94EC090C94A70965
:1011E0000E94C90968F39923B1F3552391F3951B24
:1011F000550BBB27AA2762177307840738F09F5F38
:101200005F4F220F331F441FAA1FA9F335D00E2EA4
:101210003AF0E0E832D091505040E695001CCAF711
:101220002BD0FE2F29D0660F771F881FBB1F2617D4
:1012300037074807AB07B0E809F0BB0B802DBF01AB
:10124000FF2793585F4F3AF09E3F510578F00C947A
:10125000A1090C94EC095F3FE4F3983ED4F3869522
:1012600077956795B795F7959F5FC9F7880F911D9B
:101270009695879597F90895E1E0660F771F881F87
:10128000BB1F621773078407BA0720F0621B730B3A
:10129000840BBA0BEE1F88F7E09508950E94D109E0
:1012A00088F09F5798F0B92F9927B751B0F0E1F027
:1012B000660F771F881F991F1AF0BA95C9F714C0D7
:1012C000B13091F00E94EB09B1E008950C94EB0964
:1012D000672F782F8827B85F39F0B93FCCF3869510
:1012E00077956795B395D9F73EF49095809570956D
:1012F00061957F4F8F4F9F4F0895990F0008550FAD
:10130000AA0BE0E8FEEF16161706E807F907C0F08B
:1013100012161306E407F50798F0621B730B840B93
:10132000950B39F40A2661F0232B242B252B21F46D
:1013300008950A2609F4A140A6958FEF811D811D0D
:10134000089597F99F6780E870E060E008959FEF47
:1013500080EC089500240A9416161706180609064C
:10136000089500240A94121613061406050608951B
:10137000092E0394000C11F4882352F0BB0F40F4A3
:10138000BF2B11F460FF04C06F5F7F4F8F4F9F4FE3
:10139000089557FD9058440F551F59F05F3F71F065
:1013A0004795880F97FB991F61F09F3F79F08795CC
:1013B0000895121613061406551FF2CF4695F1DF55
:1013C00008C0161617061806991FF1CF86957105E5
:1013D000610508940895E894BB2766277727CB0119
:1013E00097F908950E947D0908F48FEF08950E94EF
:1013F0000A0A0C94B8090E94AA0938F00E94B1099F
:1014000020F0952311F00C94A1090C94A709112444
:101410000C94EC090E94C90970F3959FC1F3950FD4
:1014200050E0551F629FF001729FBB27F00DB11D68
:10143000639FAA27F00DB11DAA1F649F6627B00DF8
:10144000A11D661F829F2227B00DA11D621F739FE1
:10145000B00DA11D621F839FA00D611D221F749FEF
:101460003327A00D611D231F849F600D211D822F36
:10147000762F6A2F11249F5750409AF0F1F088235D
:101480004AF0EE0FFF1FBB1F661F771F881F91508A
:101490005040A9F79E3F510580F00C94A1090C948F
:1014A000EC095F3FE4F3983ED4F386957795679512
:1014B000B795F795E7959F5FC1F7FE2B880F911DB4
:0C14C0009695879597F90895F894FFCF52
:1014CC000040426C7565746F6F746800436F6E6E8C
:1014DC00656374656400446973636F6E6E656374F1
:1014EC006564004F70626F7577656E004166626F60
:1014FC007577656E004E6565727A657474656E00FD
:10150C00212121214E6F6F646B6E6F70212121217F
:02151C000000CD
:00000001FF
