:100000000C9472000C948B000C948B000C948B005D
:100010000C948B000C948B000C948B000C948B0034
:100020000C948B000C948B000C948B000C948B0024
:100030000C948B000C948B000C948B000C948B0014
:100040000C948B000C9486050C94AD050C948B00DD
:100050000C9450050C9453010C94B2010C948D0037
:100060000C948B000C948B000C948B000C948B00E4
:100070000C948B000C948B000C948B000C948B00D4
:100080000C947F010C94DE010C948B000C94ED0019
:100090000C948B000C948B000C948B000C948B00B4
:1000A0000C948B000C948B000C948B000C948B00A4
:1000B0000C948B000C948B000C948B000C948B0094
:1000C0000C948B000C948B000C948B000C948B0084
:1000D0000C948B000C948B000C948B000C948B0074
:1000E0000C948B0011241FBECFEFD1E2DEBFCDBF39
:1000F00000E00CBF13E0A0E0B2E0E4ECF9E100E0C6
:100100000BBF02C007900D92A830B107D9F70E942B
:1001100094030C94E00C0C9400001F920F920FB605
:100120000F9200905B000F9211248F93AF93BF93B7
:10013000EF93FF93DF93CF93CDB7DEB7E7E4F0E023
:1001400080818823A1F4E8E4F0E08081882379F4B9
:10015000A5E2B0E0E5E2F0E080818F7D8C93A5E23E
:10016000B0E0E5E2F0E080818F7E8C9327C0E7E489
:10017000F0E08081882379F0A5E2B0E0E5E2F0E0EC
:1001800080818F7E8C93A5E2B0E0E5E2F0E0808193
:1001900080628C9313C0E8E4F0E08081882371F0E2
:1001A000A5E2B0E0E5E2F0E080818F7D8C93A5E2EE
:1001B000B0E0E5E2F0E0808180618C93CF91DF9147
:1001C000FF91EF91BF91AF918F910F9000925B00E3
:1001D0000F900FBE0F901F9018951F920F920FB6A1
:1001E0000F9200905B000F9211248F939F93AF9317
:1001F000BF93EF93FF93DF93CF93CDB7DEB7E8E9DB
:10020000F0E0808191810097A9F4EAE9F0E0808133
:100210009181009779F4A2E0B1E0E2E0F1E0808121
:100220008F7B8C93A1E3B0E0E1E3F0E080818F7DF0
:100230008C9329C0E8E9F0E080819181009779F002
:10024000A1E3B0E0E1E3F0E080818F7D8C93A2E058
:10025000B1E0E2E0F1E0808180648C9314C0EAE9CF
:10026000F0E080819181009771F0A2E0B1E0E2E0DE
:10027000F1E080818F7B8C93A1E3B0E0E1E3F0E0DB
:10028000808180628C93CF91DF91FF91EF91BF913C
:10029000AF919F918F910F9000925B000F900FBED6
:1002A0000F901F9018951F920F920FB60F9200900B
:1002B0005B000F9211248F93AF93BF93EF93FF9343
:1002C000DF93CF93CDB7DEB7E7E4F0E080818F3FD7
:1002D00039F0A5E2B0E0E5E2F0E080818F7D8C931B
:1002E000CF91DF91FF91EF91BF91AF918F910F90DF
:1002F00000925B000F900FBE0F901F9018951F92F9
:100300000F920FB60F9200905B000F9211242F9363
:100310008F939F93AF93BF93EF93FF93DF93CF930D
:10032000CDB7DEB7E8E9F0E0808191812FEF8F3F14
:10033000920739F0A2E0B1E0E2E0F1E080818F7B4A
:100340008C93CF91DF91FF91EF91BF91AF919F91EE
:100350008F912F910F9000925B000F900FBE0F9026
:100360001F9018951F920F920FB60F9200905B008E
:100370000F9211248F93AF93BF93EF93FF93DF936B
:10038000CF93CDB7DEB7E8E4F0E080818F3F39F05E
:10039000A5E2B0E0E5E2F0E080818F7E8C93CF9122
:1003A000DF91FF91EF91BF91AF918F910F900092EC
:1003B0005B000F900FBE0F901F9018951F920F9229
:1003C0000FB60F9200905B000F9211242F938F9322
:1003D0009F93AF93BF93EF93FF93DF93CF93CDB7EB
:1003E000DEB7EAE9F0E0808191812FEF8F3F92073D
:1003F00039F0A1E3B0E0E1E3F0E080818F7D8C9300
:10040000CF91DF91FF91EF91BF91AF919F918F912C
:100410002F910F9000925B000F900FBE0F901F90D6
:100420001895DF93CF93CDB7DEB7A4E2B0E0E4E256
:10043000F0E0808180628C93A4E2B0E0E4E2F0E03E
:10044000808180618C93A1E0B1E0E1E0F1E0808106
:1004500080648C93A0E3B0E0E0E3F0E08081806210
:100460008C93A5E2B0E0E5E2F0E080818F7D8C9393
:10047000A5E2B0E0E5E2F0E080818F7E8C93A2E01F
:10048000B1E0E2E0F1E080818F7B8C93A1E3B0E00A
:10049000E1E3F0E080818F7D8C93E4E4F0E0108272
:1004A000E5E4F0E083E08083E7E4F0E01082E8E454
:1004B000F0E01082EEE6F0E087E08083E0E9F0E033
:1004C0001082E1E9F0E081E08083E8E9F0E0118268
:1004D0001082EAE9F0E011821082E1E7F0E087E0C3
:1004E00080837894CF91DF910895DF93CF930F921B
:1004F000CDB7DEB7898389818C390CF446C08981F8
:1005000085360CF042C08981882304F1E8E4F0E0EC
:100510001082E7E4F0E08981482F552747FD509588
:10052000CA019C01220F331FC9019695982F882775
:1005300097958795821B930B840F951F24E630E0D7
:10054000B9010E94450CCB0180831FC0E7E4F0E0B5
:100550001082E8E4F0E08981482F552747FD509547
:10056000CA019C01220F331FC9019695982F882735
:1005700097958795821B930B840F951F2CE93FEF6E
:10058000B9010E94450CCB0180830F90CF91DF9180
:1005900008950F931F93DF93CF930F92CDB7DEB7DC
:1005A000898389818C390CF44EC0898185360CF0A1
:1005B0004AC08981882324F1EAE8F0E011821082A0
:1005C00008E810E08981992787FD9095A92FB92F18
:1005D0002FEF3FEF40E050E0BC01CD010E94260C20
:1005E000DC01CB0124E630E040E050E0BC01CD016D
:1005F0000E94580CDA01C901F8019183808323C05D
:10060000E8E8F0E0118210820AE810E08981992779
:1006100087FD9095A92FB92F2FEF3FEF40E050E0D5
:10062000BC01CD010E94260CDC01CB012CE93FEF7F
:100630004FEF5FEFBC01CD010E94580CDA01C901F8
:10064000F801918380830F90CF91DF911F910F91DB
:1006500008950F931F93DF93CF930F92CDB7DEB71B
:10066000898389818C390CF44EC0898185360CF0E0
:100670004AC08981882324F1EAE9F0E011821082DE
:1006800008E910E08981992787FD9095A92FB92F56
:100690002FEF3FEF40E050E0BC01CD010E94260C5F
:1006A000DC01CB0124E630E040E050E0BC01CD01AC
:1006B0000E94580CDA01C901F8019183808323C09C
:1006C000E8E9F0E0118210820AE910E089819927B7
:1006D00087FD9095A92FB92F2FEF3FEF40E050E015
:1006E000BC01CD010E94260CDC01CB012CE93FEFBF
:1006F0004FEF5FEFBC01CD010E94580CDA01C90138
:10070000F801918380830F90CF91DF911F910F911A
:100710000895DF93CF93CDB7DEB70E9411020E94F8
:10072000D405CF91DF910895DF93CF9300D00F923E
:10073000CDB7DEB70E948903A2E2B0E0E2E2F0E0CA
:10074000808184708C93A2E2B0E0E2E2F0E08081EC
:1007500088708C93A2E2B0E0E2E2F0E080818071E8
:100760008C93A2E2B0E0E2E2F0E0808180748C93AE
:10077000A2E2B0E0E2E2F0E0808180788C93A2E235
:10078000B0E0E2E2F0E0808181708C93A2E2B0E020
:10079000E2E2F0E0808182708C93A2E2B0E0E2E2DB
:1007A000F0E0808180728C931A82198289819A810B
:1007B0009C838B838B819C818730910509F4CDC00C
:1007C0008B819C81883091054CF58B819C81833095
:1007D000910509F4A2C08B819C81843091058CF431
:1007E0008B819C818130910509F46AC08B819C8149
:1007F000823091050CF074C08B819C810097C9F107
:10080000D5CF8B819C818530910509F491C08B8176
:100810009C81863091050CF0F9C0E3C08B819C81EE
:100820008B30910509F4BDC08B819C818C30910582
:100830006CF48B819C818930910509F49DC08B817A
:100840009C818A3091050CF001C1EBC08B819C81A9
:100850008D30910509F4B0C08B819C818D3091055C
:100860000CF4FFC08B819C818E30910509F40DC181
:100870009DCFE0E2F0E08081882F90E08170907061
:10088000009729F482E090E09A8389838FCFE0E299
:10089000F0E08081882F90E081709070882309F4C7
:1008A00085CFE0E2F0E08081882F90E08470907046
:1008B000009709F07BCF81E090E09A83898376CF1F
:1008C000E0E2F0E08081882F90E0817090700097E6
:1008D00019F41A8219826ACF8AEB0E94750266CFD8
:1008E000E0E2F0E08081882F90E0887090700097BF
:1008F00029F483E090E09A83898358CFE0E2F0E026
:100900008081882F90E080719070009709F04ECF21
:1009100084E090E09A83898349CF82E30E940106B4
:1009200082E30E94400685E090E09A8389833ECF6F
:10093000E0E2F0E08081882F90E082709070009774
:1009400041F480E00E94750287E090E09A838983F9
:100950002DCF86E40E94750229CFE0E2F0E080818D
:10096000882F90E080749070009709F01FCF89E085
:1009700090E09A8389831ACFE0E2F0E08081882FAB
:1009800090E080729070009741F480E00E947502C0
:100990008BE090E09A83898309CF8AEB0E947502ED
:1009A00005CF8EEC0E9401068EEC0E9440068DE081
:1009B00090E09A838983FACEE0E2F0E08081882F8C
:1009C00090E081709070009741F480E00E94750281
:1009D00082E090E09A838983E9CE8AEB0E947502D7
:1009E000E5CEE0E2F0E08081882F90E080729070A8
:1009F000009741F480E00E94750286E090E09A83BF
:100A00008983D4CE86E40E947502D0CE82E30E9410
:100A1000010682E30E94400688E090E09A83898381
:100A2000C5CEE0E2F0E08081882F90E08270907087
:100A3000009741F480E00E9475028AE090E09A837A
:100A40008983B4CE86E40E947502B0CEE0E2F0E085
:100A5000808188230CF4AACE8CE090E09A8389836D
:100A6000A5CEE0E2F0E08081882F90E08170907068
:100A7000009741F480E00E9475028EE090E09A8336
:100A8000898394CE8AEB0E9475028EEC0E94010647
:100A90008EEC0E94400682E090E09A83898386CEA5
:100AA0001F920F920FB60F9200905B000F921124CD
:100AB0008F939F93AF93BF93EF93FF93DF93CF9366
:100AC000CDB7DEB7E4E8F0E084E294E6918380837A
:100AD000AEE2B0E0EEE2F0E0808188608C93A2E0CC
:100AE000B1E0E2E0F1E0808188608C93CF91DF910A
:100AF000FF91EF91BF91AF919F918F910F900092D5
:100B00005B000F900FBE0F901F9018951F920F92D1
:100B10000FB60F9200905B000F9211248F93AF934A
:100B2000BF93EF93FF93DF93CF93CDB7DEB7AEE2E2
:100B3000B0E0EEE2F0E08081877F8C93CF91DF918F
:100B4000FF91EF91BF91AF918F910F9000925B0059
:100B50000F900FBE0F901F9018951F920F920FB617
:100B60000F9200905B000F9211248F93AF93BF936D
:100B7000EF93FF93DF93CF93CDB7DEB7A2E0B1E061
:100B8000E2E0F1E08081877F8C93CF91DF91FF914C
:100B9000EF91BF91AF918F910F9000925B000F90FA
:100BA0000FBE0F901F901895DF93CF93CDB7DEB790
:100BB000ADE2B0E0EDE2F0E0808188608C93A1E0EE
:100BC000B1E0E1E0F1E0808188608C93E0E8F0E062
:100BD0001082E1E8F0E082E08083EFE6F0E087E079
:100BE0008083E4E8F0E084E294E69183808380E00F
:100BF0000E94010680E00E9440067894CF91DF9128
:100C000008950F931F93DF93CF930F92CDB7DEB765
:100C1000898389818C3974F1898185365CF508E88E
:100C200010E08981992787FD9095A92FB92FBC01E4
:100C3000CD010E947F09DC01CB01BC01CD0120E088
:100C400030E040E251E40E945508DC01CB01BC01D8
:100C5000CD0120E038EB4FED56E40E942808DC017E
:100C6000CB01BC01CD010E947F06DC01CB01F80164
:100C7000918380830F90CF91DF911F910F91089501
:100C80000F931F93DF93CF930F92CDB7DEB7898376
:100C900089818C3974F1898185365CF50AE810E028
:100CA0008981992787FD9095A92FB92FBC01CD0186
:100CB0000E947F09DC01CB01BC01CD0120E030E0C6
:100CC00040E251E40E945508DC01CB01BC01CD019A
:100CD00020E038EB4FED56E40E942808DC01CB0100
:100CE000BC01CD010E947F06DC01CB01F80191839C
:100CF00080830F90CF91DF911F910F910895EF9214
:100D0000FF920F931F937B018C0120E030E040E0C5
:100D10005FE40E944F0988238CF0C801B70120E0EE
:100D200030E040E05FE40E94F7070E94DD099B018C
:100D3000AC01205030404040504806C0C801B701C7
:100D40000E94DD099B01AC01B901CA011F910F91FD
:100D5000FF90EF900895A0E0B0E0E1EBF6E00C9496
:100D6000A90CDC012B01FA019C91923008F439C1E5
:100D7000EB018881823008F433C1943069F4843007
:100D800009F02FC111969C9111978981981709F448
:100D900028C1A0E0B2E025C1843009F421C182302D
:100DA000A9F4923009F01DC19A01AD0188E0EA0171
:100DB0000990AE01E90109929E018150C1F7E2015B
:100DC000898111969C918923818308C1923009F40D
:100DD00007C112962D903C901397EB018A819B815D
:100DE0001496AD90BD90CD90DC901797EC80FD806F
:100DF0000E811F819101281B390BB90137FF04C0F7
:100E000066277727621B730B603271050CF061C097
:100E1000121613066CF537014801062E04C096948D
:100E20008794779467940A94D2F721E030E040E009
:100E300050E004C0220F331F441F551F6A95D2F79C
:100E400021503040404050402E213F21402351232B
:100E5000211531054105510521F021E030E040E048
:100E600050E079018A01E628F728082919293CC0B1
:100E7000232BD1F1260E371E35014601062E04C064
:100E800096948794779467940A94D2F721E030E09F
:100E900040E050E004C0220F331F441F551F6A95E5
:100EA000D2F721503040404050402A213B214C2174
:100EB0005D21211531054105510521F021E030E08A
:100EC00040E050E059016A01A628B728C828D9286F
:100ED0000BC0821593052CF01C01AA24BB246501CC
:100EE00003C0EE24FF24870111969C91D201119634
:100EF0008C91981709F445C0992339F0A8019701FE
:100F00002A193B094C095D0906C0A60195012E1955
:100F10003F09400B510B57FD08C0118233822282DA
:100F200024833583468357831DC081E081833382C8
:100F3000228288279927DC01821B930BA40BB50B17
:100F400084839583A683B7830DC0220F331F441F6C
:100F5000551F24833583468357838281938101976C
:100F6000938382832481358146815781DA01C901C7
:100F70000197A109B1098F5F9F4FAF4FBF4328F37E
:100F80000BC0918333822282EA0CFB1C0C1D1D1DB9
:100F9000E482F5820683178383E080832481358190
:100FA0004681578157FF1AC0C901AA2797FDA0950E
:100FB000BA2F81709070A070B07056954795379594
:100FC0002795822B932BA42BB52B84839583A68303
:100FD000B78382819381019693838283DF0101C06D
:100FE000D201CD01CDB7DEB7E2E10C94C50CA0E291
:100FF000B0E0EDEFF7E00C94B50C69837A838B8356
:101000009C832D833E834F835887E9E0EE2EF12C9D
:10101000EC0EFD1ECE010196B7010E94550B8E010C
:101020000F5E1F4FCE010596B8010E94550B8A89AD
:1010300091E089278A8BC701B801AE01475E5F4FF7
:101040000E94AB060E94800AA096E6E00C94D10CA8
:10105000A0E2B0E0EEE2F8E00C94B50C69837A838C
:101060008B839C832D833E834F835887F9E0EF2E3B
:10107000F12CEC0EFD1ECE010196B7010E94550B1E
:101080008E010F5E1F4FCE010596B8010E94550BD1
:10109000C701B801AE01475E5F4F0E94AB060E94D8
:1010A000800AA096E6E00C94D10CA0E2B0E0EBE55B
:1010B000F8E00C94A90C69837A838B839C832D833D
:1010C0003E834F835887CE010196BE01675F7F4FF5
:1010D0000E94550BCE010596BE016F5E7F4F0E94A8
:1010E000550B9985923088F089898230C8F0943008
:1010F00019F4823051F404C0843029F4923081F420
:1011000080E092E0C6C0923049F420E09A858A8956
:10111000981321E02A87CE010996BBC0823049F49A
:1011200020E09A858A89981321E02A8BCE01419686
:10113000B0C02D843E844F8458886D887E888F8807
:10114000988CEE24FF248701AA24BB24650140E08B
:1011500050E060E070E0E0E0F0E0C101817090708C
:10116000892BE9F0E60CF71C081D191D9A01AB014B
:101170002A0D3B1D4C1D5D1D80E090E0A0E0B0E01D
:10118000E614F7040805190520F481E090E0A0E0DA
:10119000B0E0BA01A901480F591F6A1F7B1FAA0CB2
:1011A000BB1CCC1CDD1C97FE08C081E090E0A0E0D9
:1011B000B0E0A82AB92ACA2ADB2A3196E032F10522
:1011C00049F0660C771C881C991C569447943794F8
:1011D0002794C3CFFA85EA892B893C898B859C8526
:1011E000280F391F2E5F3F4F17C0CA0181709070C2
:1011F000892B61F016950795F794E79480E090E0CD
:10120000A0E0B0E8E82AF92A0A2B1B2B769567950F
:10121000579547952F5F3F4F77FDE7CF0CC0440FA1
:10122000551F661F771F17FD4160EE0CFF1C001F46
:10123000111F21503040403090E0590790E069077D
:1012400090E4790760F32B8F3C8FDB01CA018F7725
:101250009070A070B07080349105A105B10561F463
:1012600047FD0AC0E114F1040105110529F0405CB5
:101270005F4F6F4F7F4F40781A8EFE1711F081E05D
:101280008A8F4D8F5E8F6F8F78A383E0898FCE0119
:1012900049960E94800AA096E2E10C94C50CA8E150
:1012A000B0E0E5E5F9E00C94B50C69837A838B83B3
:1012B0009C832D833E834F83588789E0E82EF12C51
:1012C000EC0EFD1ECE010196B7010E94550B8E015A
:1012D0000F5E1F4FCE010596B8010E94550B898500
:1012E000823040F08989823028F0C701B8010E941D
:1012F000CD0B01C08FEF6896E6E00C94D10CA8E00E
:10130000B0E0E5E8F9E00C94B20C9B01AC0183E09D
:101310008983DA01C9018827B7FD83959927AA2710
:10132000BB27B82E211531054105510519F482E07E
:1013300089833AC08823A9F0203080E0380780E014
:10134000480780E8580729F460E070E080E09FECEF
:1013500030C0EE24FF248701E21AF30A040B150BB8
:1013600002C079018A018EE1C82ED12CDC82CB82A9
:10137000ED82FE820F831887C801B7010E94310AEF
:1013800001971816190684F4082E04C0EE0CFF1CF1
:10139000001F111F0A94D2F7ED82FE820F83188777
:1013A000C81AD90ADC82CB82BA82CE0101960E9489
:1013B000800A2896E9E00C94CE0CACE0B0E0E3EEB5
:1013C000F9E00C94B90C69837A838B839C83CE01FA
:1013D0000196BE016B5F7F4F0E94550B8D8182305D
:1013E00061F1823050F1843021F48E81882351F1F3
:1013F0002EC02F81388537FD20C06E812F313105F9
:101400001CF06623F9F023C08EE190E0821B930B61
:1014100029853A854B855C8504C056954795379557
:1014200027958A95D2F76623B1F05095409530956F
:1014300021953F4F4F4F5F4F0EC020E030E040E01E
:1014400050E009C02FEF3FEF4FEF5FE704C020E00F
:1014500030E040E050E8B901CA012C96E2E00C947B
:10146000D50CEF92FF920F931F937B018C0180E0CC
:10147000E81680E0F80681E0080780E0180788F4A5
:101480008FEFE816F1040105110531F028F088E02E
:1014900090E0A0E0B0E017C080E090E0A0E0B0E015
:1014A00012C080E0E81680E0F80680E0080781E0DE
:1014B000180728F088E190E0A0E0B0E004C080E1E7
:1014C00090E0A0E0B0E020E230E040E050E0281BF7
:1014D000390B4A0B5B0B04C016950795F794E794FC
:1014E0008A95D2F7F701E85FFD4F8081281B31090B
:1014F00041095109C9011F910F91FF90EF90089583
:10150000DF92EF92FF920F931F93FC01E480F5802E
:1015100006811781D1808081823048F480E090E09C
:10152000A0E1B0E0E82AF92A0A2B1B2BA5C08430E1
:1015300009F49FC0823021F4EE24FF24870105C006
:10154000E114F1040105110519F4E0E0F0E096C0A2
:10155000628173819FEF623879070CF05BC022E8EB
:101560003FEF261B370B2A3131052CF020E030E00D
:1015700040E050E02AC0B801A701022E04C07695D1
:101580006795579547950A94D2F781E090E0A0E0DF
:10159000B0E004C0880F991FAA1FBB1F2A95D2F77D
:1015A0000197A109B1098E219F21A023B1230097A2
:1015B000A105B10521F081E090E0A0E0B0E09A0142
:1015C000AB01282B392B4A2B5B2BDA01C9018F7712
:1015D0009070A070B07080349105A105B10539F408
:1015E00027FF09C0205C3F4F4F4F5F4F04C0215C75
:1015F0003F4F4F4F5F4FE0E0F0E02030A0E03A0770
:10160000A0E04A07A0E45A0710F0E1E0F0E0790119
:101610008A0127C06038710564F5FB01E158FF4F6E
:10162000D801C7018F779070A070B0708034910599
:10163000A105B10539F4E7FE0DC080E490E0A0E01B
:10164000B0E004C08FE390E0A0E0B0E0E80EF91E47
:101650000A1F1B1F17FF05C016950795F794E794FF
:10166000319687E016950795F794E7948A95D1F718
:1016700005C0EE24FF248701EFEFF0E06E2F6795A1
:1016800066276795902F9F77D794DD24D7948E2F68
:101690008695492F462B582F5D29B701CA011F9106
:1016A0000F91FF90EF90DF900895FC01DB014081E6
:1016B00051812281622F6F7770E0221F2227221F23
:1016C0009381892F880F822B282F30E0991F99272B
:1016D000991F11969C93119721153105A9F5411574
:1016E00051056105710511F482E037C082E89FEF72
:1016F00013969C938E9312979A01AB0167E0220F89
:10170000331F441F551F6A95D1F783E08C930DC09A
:10171000220F331F441F551F12968D919C911397D2
:10172000019713969C938E931297203080E0380790
:1017300080E0480780E4580758F314962D933D93B2
:101740004D935C93179708952F3F310579F4411518
:1017500051056105710519F484E08C93089564FFC7
:1017600003C081E08C9312C01C9210C02F573040F0
:1017700013963C932E93129783E08C9387E0440F4B
:10178000551F661F771F8A95D1F7706414964D9385
:101790005D936D937C93179708951F93DC01FB0174
:1017A0009C91923008F447C08081823008F443C095
:1017B000943051F411961C91843099F58181682FF1
:1017C00070E0611B71093FC0843021F0923031F428
:1017D0008230B9F18181882389F12DC011961C9145
:1017E00011978230F1F081811817D9F412962D915A
:1017F0003C911397828193818217930794F0281765
:101800003907BCF014968D919D910D90BC91A02D3F
:101810002481358146815781281739074A075B079C
:1018200018F4112341F00AC082179307A407B507E3
:1018300040F4112319F061E070E005C06FEF7FEF15
:1018400002C060E070E0CB011F910895629FD0015B
:10185000739FF001829FE00DF11D649FE00DF11D6B
:10186000929FF00D839FF00D749FF00D659FF00D1A
:101870009927729FB00DE11DF91F639FB00DE11D07
:10188000F91FBD01CF011124089597FB092E0726EA
:101890000AD077FD04D027D006D000201AF4709526
:1018A00061957F4F0895F6F7909581959F4F089524
:1018B00097FB092E05260ED057FD04D028D00AD05C
:1018C000001C38F450954095309521953F4F4F4F6F
:1018D0005F4F0895F6F790958095709561957F4FCD
:1018E0008F4F9F4F0895AA1BBB1B51E107C0AA1F32
:1018F000BB1FA617B70710F0A61BB70B881F991FB1
:101900005A95A9F780959095BC01CD010895A1E263
:101910001A2EAA1BBB1BFD010DC0AA1FBB1FEE1F69
:10192000FF1FA217B307E407F50720F0A21BB30BB4
:10193000E40BF50B661F771F881F991F1A9469F730
:1019400060957095809590959B01AC01BD01CF018C
:1019500008952F923F924F925F926F927F928F9253
:101960009F92AF92BF92CF92DF92EF92FF920F932E
:101970001F93CF93DF93CDB7DEB7CA1BDB0B0FB638
:10198000F894DEBF0FBECDBF19942A8839884888E5
:101990005F846E847D848C849B84AA84B984C8848B
:1019A000DF80EE80FD800C811B81AA81B981CE0F82
:1019B000D11D0FB6F894DEBF0FBECDBFED01089567
:0419C000F894FFCFC9
:1019C4000000000000000000000102020303030302
:1019D40004040404040404040505050505050505BB
:1019E400050505050505050506060606060606069B
:1019F4000606060606060606060606060606060683
:101A0400060606060606060607070707070707076A
:101A14000707070707070707070707070707070752
:101A24000707070707070707070707070707070742
:101A34000707070707070707070707070707070732
:101A4400070707070707070708080808080808081A
:101A54000808080808080808080808080808080802
:101A640008080808080808080808080808080808F2
:101A740008080808080808080808080808080808E2
:101A840008080808080808080808080808080808D2
:101A940008080808080808080808080808080808C2
:101AA40008080808080808080808080808080808B2
:101AB40008080808080808080808080808080808A2
:081AC4000808080808080808DA
:00000001FF
