:100000000C9490000C94A4000C94A4000C94A400F4
:100010000C94A4000C94A4000C94A4000C94A400D0
:100020000C94A4000C94A4000C94A4000C94A400C0
:100030000C94A4000C94A4000C94A4000C94A400B0
:100040000C94A4000C94A4000C94A4000C94A400A0
:100050000C94A4000C9488010C94E6010C94A60066
:100060000C94A4000C94A4000C94A4000C94A40080
:100070000C94A4000C94A4000C94A4000C94A40070
:100080000C94B6010C9414020C94A4000C94150169
:100090000C94A4000C94A4000C94A4000C94A40050
:1000A0000C94A4000C94A4000C9440130C946813BA
:1000B0000C94A4000C9406130C94A4000C945812F5
:1000C0000C9492120C94A4000C94C3120C94A400EF
:1000D0000C94A4000C94A4000C94A4000C94A40010
:1000E0000C94A4000C94A30D0C946D060C94F20FC8
:1000F0000C94FD0F0C944C120C94340A0C94650B68
:100100000C9441120C94D00E0C941F110C94060800
:100110000C9437070C94400A0C94AE0D0C94810C8F
:1001200011241FBECFEFD1E2DEBFCDBF00E00CBF78
:1001300022E0A0E0B2E001C01D92A430B207E1F7D6
:100140000E9412040C94FE160C9400001F920F9251
:100150000FB60F9211240BB60F922F938F939F938C
:10016000EF93FF93CF93DF93CDB7DEB787E490E0B3
:10017000FC0180818823C9F488E490E0FC0180813F
:10018000882399F48EE290E0FC0120818EE290E0D9
:100190002F7EFC0120838EE290E0FC0120818EE224
:1001A00090E02F7DFC01208331C087E490E0FC01CA
:1001B0008081882399F08EE290E0FC0120818EE21C
:1001C00090E02F7DFC0120838EE290E0FC012081F5
:1001D0008EE290E02061FC01208318C088E490E06A
:1001E000FC018081882391F08EE290E0FC01208167
:1001F0008EE290E02F7EFC0120838EE290E0FC01F5
:1002000020818EE290E02062FC0120830000DF91DB
:10021000CF91FF91EF919F918F912F910F900BBEF6
:100220000F900FBE0F901F9018951F920F920FB650
:100230000F9211240BB60F922F938F939F93EF93EE
:10024000FF93CF93DF93CDB7DEB788E990E0FC0151
:10025000808191810097D1F48AE990E0FC0180814E
:100260009181009799F484E390E0FC01208184E37C
:1002700090E02F7DFC0120838EE290E0FC01208144
:100280008EE290E0277FFC01208333C088E990E074
:10029000FC0180819181009799F08EE290E0FC0151
:1002A00020818EE290E0277FFC01208384E390E0B0
:1002B000FC01208184E390E02062FC01208319C0CE
:1002C0008AE990E0FC0180819181009791F084E3BC
:1002D00090E0FC01208184E390E02F7DFC012083ED
:1002E0008EE290E0FC0120818EE290E02860FC012B
:1002F00020830000DF91CF91FF91EF919F918F912B
:100300002F910F900BBE0F900FBE0F901F9018955E
:100310001F920F920FB60F9211240BB60F922F93CC
:100320008F939F93EF93FF93CF93DF93CDB7DEB778
:1003300087E490E0FC0180818F3F49F08EE290E0FD
:10034000FC0120818EE290E02F7EFC0120830000E2
:10035000DF91CF91FF91EF919F918F912F910F900E
:100360000BBE0F900FBE0F901F9018951F920F920B
:100370000FB60F9211240BB60F922F938F939F936A
:10038000EF93FF93CF93DF93CDB7DEB788E990E08B
:10039000FC01808191818F3F980749F084E390E0D0
:1003A000FC01208184E390E02F7DFC01208300008C
:1003B000DF91CF91FF91EF919F918F912F910F90AE
:1003C0000BBE0F900FBE0F901F9018951F920F92AB
:1003D0000FB60F9211240BB60F922F938F939F930A
:1003E000EF93FF93CF93DF93CDB7DEB788E490E030
:1003F000FC0180818F3F49F08EE290E0FC0120817A
:100400008EE290E02F7DFC0120830000DF91CF91F0
:10041000FF91EF919F918F912F910F900BBE0F90B5
:100420000FBE0F901F9018951F920F920FB60F924C
:1004300011240BB60F922F938F939F93EF93FF93FB
:10044000CF93DF93CDB7DEB78AE990E0FC018081DE
:1004500091818F3F980749F08EE290E0FC01208166
:100460008EE290E0277FFC0120830000DF91CF9196
:10047000FF91EF919F918F912F910F900BBE0F9055
:100480000FBE0F901F901895CF93DF93CDB7DEB7B7
:100490008DE290E0FC0120818DE290E02061FC0182
:1004A00020838DE290E0FC0120818DE290E02062CB
:1004B000FC01208383E390E0FC01208183E390E052
:1004C0002062FC0120838DE290E0FC0120818DE21E
:1004D00090E02860FC0120838EE290E0FC01208106
:1004E0008EE290E02F7EFC0120838EE290E0FC0102
:1004F00020818EE290E02F7DFC01208384E390E058
:10050000FC01208184E390E02F7DFC0120838EE2BA
:1005100090E0FC0120818EE290E0277FFC012083A7
:1005200084E490E0FC01108285E490E023E0FC018B
:10053000208387E490E0FC01108288E490E0FC01D5
:1005400010828EE690E027E0FC01208380E990E0B5
:10055000FC01108281E990E021E0FC01208388E920
:1005600090E0FC01118210828AE990E0FC01118286
:10057000108281E790E027E0FC012083789400005E
:10058000DF91CF910895CF93DF930F92CDB7DEB770
:10059000898389818C39E4F18981843609F0C4F535
:1005A00089818823DCF088E490E0FC011082898155
:1005B000082E000C990B2FEF289FA001299F500DAA
:1005C000112424E630E0CA01B9010E94AE14CB0127
:1005D0009C0187E490E0FC0120831AC087E490E04E
:1005E000FC0110828981082E000C990B2FEF289FA7
:1005F000A001299F500D11242CE93FEFCA01B90138
:100600000E94AE14CB019C0188E490E0FC012083A1
:1006100000000F90DF91CF9108950F931F93CF9318
:10062000DF9300D000D000D0CDB7DEB789838981B9
:100630008C390CF461C08981843611F00CF05CC0F7
:10064000898188236CF18AE990E0FC011182108293
:100650008981482F880F550B660B770B8FEF9FEF23
:10066000DC019A01AB010E94E9146A837B838C83CD
:100670009D8304E610E020E030E06A817B818C817C
:100680009D81A90198010E94C214DA01C901AC013F
:10069000BD0188E990E09A01FC01318320832CC0E0
:1006A00088E990E0FC01118210828981482F880F2F
:1006B000550B660B770B8FEF9FEFDC019A01AB01B7
:1006C0000E94E9146E837F83888799870CE91FEF66
:1006D0002FEF3FEF6E817F8188859985A901980171
:1006E0000E94C214DA01C901AC01BD018AE990E09F
:1006F0009A01FC0131832083000029960FB6F894FB
:10070000DEBF0FBECDBFDF91CF911F910F91089536
:10071000CF93DF930F92CDB7DEB789838981813084
:1007200051F483E790E0FC01208183E790E02460AE
:10073000FC01208314C08981882389F423E730E0F9
:1007400083E790E0F9012081FC0120838BE290E0B7
:10075000FC0120818BE290E02E7FFC0120830000D1
:100760000F90DF91CF910895CF93DF930F92CDB784
:10077000DEB789838981813031F483E790E023E01B
:10078000FC01208310C08981882369F483E790E00D
:10079000FC01108288E091E0FC01208188E091E07A
:1007A0002F73FC01208300000F90DF91CF910895FB
:1007B000CF93DF93CDB7DEB780E291E0FC011082EA
:1007C00081E291E024E0FC01208384E291E020E1D9
:1007D00037E2FC013183208388E291E028EB38E89E
:1007E000FC01318320838AE291E020E533ECFC01B7
:1007F0003183208383E790E027E0FC012083000021
:10080000DF91CF910895CF93DF93CDB7DEB70E94EC
:10081000D8030E9444020E94901378940000DF9154
:10082000CF9108950F931F93CF93DF93CDB7DEB78A
:10083000CC5BD1400FB6F894DEBF0FBECDBF0E9497
:10084000030487E091E0DC012C9187E091E0206CCB
:10085000FC01208388E091E0DC012C9188E091E0AC
:100860002F73FC0120838AE290E0DC012C918AE264
:1008700090E02160FC0120838BE290E0DC012C9170
:100880008BE290E02E7FFC01208380E390E0DC018E
:100890002C9180E390E02068FC01208381E390E0CC
:1008A000DC012C9181E390E02068FC01208381E34E
:1008B00090E0DC012C9181E390E02761FC01208332
:1008C00080E390E0DC012C9180E390E02761FC0163
:1008D000208382E290E0DC012C9182E290E02170A2
:1008E000FC01208382E290E0DC012C9182E290E026
:1008F0002270FC01208382E290E0DC012C9182E2F4
:1009000090E02072FC0120831A82198280E00E940C
:10091000B40380E00E94C30280E00E940D03809136
:100920000002909101028730910571F06CF080E037
:100930000E94880383E790E0DC018C91882321F4F6
:100940001092010210920002809102029091030223
:100950008E30910541F03CF080E00E94B40310928B
:100960000302109202028FE290E0FC018081882F46
:1009700090E080719927009709F09BC180E090E09A
:10098000A0EAB1E48B839C83AD83BE8320E030E09A
:100990004AE755E46B817C818D819E810E9491168E
:1009A000C351DF4F688379838A839B83CD5ED040B8
:1009B000C351DF4F88819981AA81BB81CD5ED04030
:1009C0008F839887A987BA8720E030E040E85FE30B
:1009D0006F81788589859A850E94A61588232CF4D5
:1009E00081E090E09C878B8776C020E03FEF4FE767
:1009F00057E46F81788589859A850E948C168823B3
:100A000009F00CF452C020E030E040E251E46B8188
:100A10007C818D819E810E949116CF50DF4F68832B
:100A200079838A839B83C15FD040CF50DF4F888119
:100A30009981AA81BB81C15FD040C754DF4F8883B1
:100A40009983AA83BB83C95BD040C754DF4F6881B9
:100A500079818A819B81C95BD0400E94AB15CB50C4
:100A6000DF4F688379838A839B83C55FD040CB50F7
:100A7000DF4FA881B981C55FD040BC87AB8710C06C
:100A800080E991E09E878D878D859E850197F1F79E
:100A90009E878D8700008B859C8501979C878B871F
:100AA0008B859C85009761F721C06F81788589854A
:100AB0009A850E94AB15C750DF4F688379838A837C
:100AC0009B83C95FD040C750DF4FE881F981C95F80
:100AD000D040FC87EB878B859C85988B8F878F8593
:100AE00098890197F1F7988B8F87000080E00E942A
:100AF000C30280E00E940D0380E00E94880380E032
:100B00000E94B40381E390E0DC012C9181E390E04A
:100B10002F77FC0120838FE290E0DC018C91882FFD
:100B200090E080719927009709F4C3C080E090E0BD
:100B3000A0EAB1E4898B9A8BAB8BBC8B20E030E0D0
:100B40004AE755E469897A898B899C890E949116C4
:100B5000C350DF4F688379838A839B83CD5FD04006
:100B6000C350DF4F88819981AA81BB81CD5FD0407E
:100B70008D8B9E8BAF8BB88F20E030E040E85FE339
:100B80006D897E898F89988D0E94A61588232CF403
:100B900081E090E09A8F898F76C020E03FEF4FE7A9
:100BA00057E46D897E898F89988D0E948C168823E1
:100BB00009F00CF452C020E030E040E251E46989D1
:100BC0007A898B899C890E949116CF5FDE4F68835A
:100BD00079838A839B83C150D140CF5FDE4F888168
:100BE0009981AA81BB81C150D140C354DF4F888312
:100BF0009983AA83BB83CD5BD040C354DF4F688108
:100C000079818A819B81CD5BD0400E94AB15CB5FFF
:100C1000DE4F688379838A839B83C550D140CB5F45
:100C2000DE4FA881B981C550D140BA8FA98F10C0BD
:100C300080E991E09C8F8B8F8B8D9C8D0197F1F7D4
:100C40009C8F8B8F0000898D9A8D01979A8F898F49
:100C5000898D9A8D009761F721C06D897E898F8972
:100C6000988D0E94AB15C75FDE4F688379838A83B6
:100C70009B83C950D140C75FDE4FE881F981C950DD
:100C8000D140FA8FE98F898D9A8D9E8F8D8F8D8DB2
:100C90009E8D0197F1F79E8F8D8F000081E390E08C
:100CA000DC012C9181E390E02068FC0120831A8212
:100CB000198289819A81092E000CAA0BBB0B8E30F8
:100CC0009105A105B10511F008F029CEFC01882796
:100CD000E050F94E8F4F0C94E11480E290E0DC017B
:100CE0008C91882F90E081709927009711F00C94D7
:100CF0004F1280E090E0A0EAB1E48F8F98A3A9A3FF
:100D0000BAA320E030E04AE755E46F8D78A189A1CD
:100D10009AA10E949116C35FDE4F688379838A830C
:100D20009B83CD50D140C35FDE4F88819981AA81DA
:100D3000BB81CD50D1408BA39CA3ADA3BEA320E02B
:100D400030E040E85FE36BA17CA18DA19EA10E94F1
:100D5000A61588232CF481E090E098A78FA376C095
:100D600020E03FEF4FE757E46BA17CA18DA19EA14E
:100D70000E948C16882309F00CF452C020E030E069
:100D800040E251E46F8D78A189A19AA10E94911649
:100D9000CF5EDE4F688379838A839B83C151D140C4
:100DA000CF5EDE4F88819981AA81BB81C151D1403C
:100DB000CF53DF4F88839983AA83BB83C15CD04024
:100DC000CF53DF4F688179818A819B81C15CD0409C
:100DD0000E94AB15CB5EDE4F688379838A839B8349
:100DE000C551D140CB5EDE4FA881B981C551D140FC
:100DF000B8A7AFA310C080E991E09AA789A789A5F9
:100E00009AA50197F1F79AA789A700008FA198A545
:100E1000019798A78FA38FA198A5009761F721C08C
:100E20006BA17CA18DA19EA10E94AB15C75EDE4F78
:100E3000688379838A839B83C951D140C75EDE4F23
:100E4000E881F981C951D140F8A7EFA38FA198A5F6
:100E50009CA78BA78BA59CA50197F1F79CA78BA7B7
:100E6000000082E090E09A8389830C94561280E21D
:100E700090E0DC018C91882F90E081709927009799
:100E800009F0BCC080E090E0A0EAB1E48DA79EA785
:100E9000AFA7B8AB20E030E04AE755E46DA57EA5EA
:100EA0008FA598A90E949116C35EDE4F688379834F
:100EB0008A839B83CD51D140C35EDE4F8881998167
:100EC000AA81BB81CD51D14089AB9AABABABBCAB56
:100ED00020E030E040E85FE369A97AA98BA99CA9EA
:100EE0000E94A61588232CF481E090E09EAB8DAB88
:100EF00076C020E03FEF4FE757E469A97AA98BA9B4
:100F00009CA90E948C16882309F00CF452C020E0A2
:100F100030E040E251E46DA57EA58FA598A90E941E
:100F20009116CF5DDE4F688379838A839B83C1529C
:100F3000D140CF5DDE4F88819981AA81BB81C152AA
:100F4000D140CB53DF4F88839983AA83BB83C55C91
:100F5000D040CB53DF4F688179818A819B81C55C0A
:100F6000D0400E94AB15CB5DDE4F688379838A83C6
:100F70009B83C552D140CB5DDE4FA881B981C5525C
:100F8000D140BEABADAB10C080E991E098AF8FAB64
:100F90008FA998AD0197F1F798AF8FAB00008DA99D
:100FA0009EA901979EAB8DAB8DA99EA9009761F775
:100FB00021C069A97AA98BA99CA90E94AB15C75D1C
:100FC000DE4F688379838A839B83C952D140C75D92
:100FD000DE4FE881F981C952D140FEABEDAB8DA95E
:100FE0009EA99AAF89AF89AD9AAD0197F1F79AAFF3
:100FF00089AF00001A8219820C9456128AEB0E9463
:10100000C3028AEB0E940D030C9456128FE290E00B
:10101000DC018C91882F90E081709927009709F06E
:1010200005C180E090E0A0EAB1E48BAF9CAFADAF2A
:10103000BEAF8E01015C1F4F20E030E04AE755E46F
:101040006BAD7CAD8DAD9EAD0E949116C35DDE4F44
:10105000688379838A839B83CD52D140C35DDE4F01
:1010600088819981AA81BB81CD52D140F8018083CA
:101070009183A283B383CE01CF9620E030E040E895
:101080005FE3DC016D917D918D919C910E94A6158D
:1010900088234CF4CE018D5B9F4F21E030E0FC01B2
:1010A000318320839FC0CE01CF9620E03FEF4FE7F2
:1010B00057E4DC016D917D918D919C910E948C167D
:1010C000882309F00CF471C020E030E040E251E4E4
:1010D0006BAD7CAD8DAD9EAD0E949116CF5CDE4FA9
:1010E000688379838A839B83C153D140CF5CDE4F71
:1010F00088819981AA81BB81C153D140C753DF4FF9
:1011000088839983AA83BB83C95CD0408E010D5B21
:101110001F4FC753DF4F688179818A819B81C95CEA
:10112000D0400E94AB15CB5CDE4F688379838A8305
:101130009B83C553D140CB5CDE4FE881F981C55319
:10114000D140D8011196FC93EE9326C0CE018B5B63
:101150009F4F20E931E0DC012D933C93CE018B5B66
:101160009F4FFC01808191810197F1F79E012B5BDC
:101170003F4FD9018D939C930000CE018D5B9F4F13
:101180009E012D5B3F4FF9012081318121503109B2
:10119000DC0111963C932E93CE018D5B9F4FFC0199
:1011A00080819181009791F638C08E010D5B1F4FB1
:1011B000CE01CF96DC016D917D918D919C910E9425
:1011C000AB15C75CDE4F688379838A839B83C953E1
:1011D000D140C75CDE4F88819981C953D140F80165
:1011E00091838083CE01895B9F4F9E012D5B3F4F92
:1011F000D9012D913C91FC0131832083CE01895B83
:101200009F4FDC018D919C910197F1F79E01295B25
:101210003F4FF90191838083000080E00E94B40376
:1012200083E090E09A8389830C9456128FE290E0D9
:10123000DC018C91882F90E082709927009711F043
:101240000C9452129E01275B3F4F80E090E0A0EA91
:10125000B1E4F90180839183A283B3838E01035BA0
:101260001F4FCE01875B9F4F20E030E04AE755E4F7
:10127000DC016D917D918D919C910E949116C35CD2
:10128000DE4F688379838A839B83CD53D140C35CCF
:10129000DE4F88819981AA81BB81CD53D140F8016D
:1012A00080839183A283B383CE01835B9F4F20E031
:1012B00030E040E85FE3DC016D917D918D919C9180
:1012C0000E94A61588234CF4CE018F5A9F4F21E02F
:1012D00030E0FC0131832083A5C0CE01835B9F4FAA
:1012E00020E03FEF4FE757E4DC016D917D918D9158
:1012F0009C910E948C16882309F00CF475C0CE01D5
:10130000875B9F4F20E030E040E251E4FC016081C8
:101310007181828193810E949116CF5BDE4F688339
:1013200079838A839B83C154D140CF5BDE4F888110
:101330009981AA81BB81C154D140C353DF4F8883B7
:101340009983AA83BB83CD5CD0408E010F5A1F4F77
:10135000C353DF4F688179818A819B81CD5CD04006
:101360000E94AB15CB5BDE4F688379838A839B83B6
:10137000C554D140CB5BDE4FE881F981C554D140E3
:10138000D8011196FC93EE9326C0CE018D5A9F4F43
:1013900020E931E0DC012D933C93CE018D5A9F4F23
:1013A000FC01808191810197F1F79E012D5A3F4FF9
:1013B000D9018D939C930000CE018F5A9F4F9E01BF
:1013C0002F5A3F4FF9012081318121503109DC0131
:1013D00011963C932E93CE018F5A9F4FFC01808132
:1013E0009181009791F63AC08E010F5A1F4FCE019E
:1013F000835B9F4FDC016D917D918D919C910E944B
:10140000AB15C75BDE4F688379838A839B83C9549E
:10141000D140C75BDE4F88819981C954D140F80122
:1014200091838083CE018B5A9F4F9E012F5A3F4F4D
:10143000D9012D913C91FC0131832083CE018B5A3F
:101440009F4FDC018D919C9111970197F1F79E01BF
:101450002B5A3F4FF90191838083000084E090E094
:101460009A8389830C94561282E30E94C61382E306
:101470000E943A1485E090E09A8389830C94561276
:1014800080E290E0DC018C91882F90E082709927B7
:10149000009709F013C19E01295A3F4F80E090E068
:1014A000A0EAB1E4F90180839183A283B3838E0122
:1014B000055A1F4FCE01895A9F4F20E030E04AE77E
:1014C00055E4DC016D917D918D919C910E94911666
:1014D000C35BDE4F688379838A839B83CD54D1407D
:1014E000C35BDE4F88819981AA81BB81CD54D140F5
:1014F000F80180839183A283B383CE01855A9F4FE5
:1015000020E030E040E85FE3DC016D917D918D915A
:101510009C910E94A61588234CF4CE01815A9F4FBE
:1015200021E030E0FC0131832083A5C0CE01855A43
:101530009F4F20E03FEF4FE757E4DC016D917D9135
:101540008D919C910E948C16882309F00CF475C033
:10155000CE01895A9F4F20E030E040E251E4FC0187
:1015600060817181828193810E949116CF5ADE4FF2
:10157000688379838A839B83C155D140CF5ADE4FDC
:1015800088819981AA81BB81C155D140CF52DF4F5B
:1015900088839983AA83BB83C15DD0408E01015AA1
:1015A0001F4FCF52DF4F688179818A819B81C15D56
:1015B000D0400E94AB15CB5ADE4F688379838A8373
:1015C0009B83C555D140CB5ADE4FE881F981C55583
:1015D000D140D8011196FC93EE9326C0CE018F59CD
:1015E0009F4F20E931E0DC012D933C93CE018F59D0
:1015F0009F4FFC01808191810197F1F79E012F5946
:101600003F4FD9018D939C930000CE01815A9F4F8B
:101610009E01215A3F4FF90120813181215031092A
:10162000DC0111963C932E93CE01815A9F4FFC0111
:1016300080819181009791F639C08E01015A1F4F28
:10164000CE01855A9F4FDC016D917D918D919C91CA
:101650000E94AB15C75ADE4F688379838A839B83C8
:10166000C955D140C75ADE4F88819981C955D140AB
:10167000F80191838083CE018D599F4F9E01215A9D
:101680003F4FD9012D913C91FC0131832083CE0144
:101690008D599F4FDC018D919C910197F1F79E012F
:1016A0002D593F4FF90191838083000080E00E9413
:1016B000C30287E090E09A838983F8C686E40E949B
:1016C000C30286E40E940D03F1C68FE290E0DC01C4
:1016D0008C91882F90E084709927009709F0E5C6D7
:1016E0009E012B593F4F80E090E0A0EAB1E4F90160
:1016F00080839183A283B3838E0107591F4FCE014C
:101700008B599F4F20E030E04AE755E4DC016D91B2
:101710007D918D919C910E949116C35ADE4F6883F2
:1017200079838A839B83CD55D140C35ADE4F88810C
:101730009981AA81BB81CD55D140F80180839183E5
:10174000A283B383CE0187599F4F20E030E040E869
:101750005FE3DC016D917D918D919C910E94A615B6
:1017600088234CF4CE0183599F4F21E030E0FC01E7
:1017700031832083A5C0CE0187599F4F20E03FEFE2
:101780004FE757E4DC016D917D918D919C910E9412
:101790008C16882309F00CF475C0CE018B599F4F2D
:1017A00020E030E040E251E4FC01608171818281FF
:1017B00093810E949116CF59DE4F688379838A8383
:1017C0009B83C156D140CF59DE4F88819981AA8130
:1017D000BB81C156D140CB52DF4F88839983AA8306
:1017E000BB83C55DD0408E0103591F4FCB52DF4FE5
:1017F000688179818A819B81C55DD0400E94AB154B
:10180000CB59DE4F688379838A839B83C556D14049
:10181000CB59DE4FE881F981C556D140D8011196E8
:10182000FC93EE9326C0CE0181599F4F20E931E011
:10183000DC012D933C93CE0181599F4FFC018081A7
:1018400091810197F1F79E0121593F4FD9018D9365
:101850009C930000CE0183599F4F9E0123593F4F17
:10186000F9012081318121503109DC0111963C932D
:101870002E93CE0183599F4FFC0180819181009767
:1018800091F63AC08E0103591F4FCE0187599F4FE1
:10189000DC016D917D918D919C910E94AB15C75992
:1018A000DE4F688379838A839B83C956D140C759A9
:1018B000DE4F88819981C956D140F8019183808398
:1018C000CE018F589F4F9E0123593F4FD9012D9133
:1018D0003C91FC0131832083CE018F589F4FDC0166
:1018E0008D919C9111970197F1F79E012F583F4FD1
:1018F000F90191838083000089E090E09A838983D5
:10190000D4C580E290E0DC018C91882F90E0807259
:101910009927009709F013C19E012D583F4F80E091
:1019200090E0A0EAB1E4F90180839183A283B383BC
:101930008E0109581F4FCE018D589F4F20E030E097
:101940004AE755E4DC016D917D918D919C910E9457
:101950009116C359DE4F688379838A839B83CD5662
:10196000D140C359DE4F88819981AA81BB81CD5670
:10197000D140F80180839183A283B383CE0189583B
:101980009F4F20E030E040E85FE3DC016D917D9106
:101990008D919C910E94A61588234CF4CE01855808
:1019A0009F4F21E030E0FC0131832083A5C0CE01B0
:1019B00089589F4F20E03FEF4FE757E4DC016D91DE
:1019C0007D918D919C910E948C16882309F00CF4D6
:1019D00075C0CE018D589F4F20E030E040E251E4C9
:1019E000FC0160817181828193810E949116CF58A0
:1019F000DE4F688379838A839B83C157D140CF5858
:101A0000DE4F88819981AA81BB81C157D140C752DD
:101A1000DF4F88839983AA83BB83C95DD0408E0141
:101A200005581F4FC752DF4F688179818A819B819A
:101A3000C95DD0400E94AB15CB58DE4F68837983D7
:101A40008A839B83C557D140CB58DE4FE881F9810B
:101A5000C557D140D8011196FC93EE9326C0CE0114
:101A600083589F4F20E931E0DC012D933C93CE0158
:101A700083589F4FFC01808191810197F1F79E016E
:101A800023583F4FD9018D939C930000CE01855878
:101A90009F4F9E0125583F4FF901208131812150F0
:101AA0003109DC0111963C932E93CE0185589F4F4E
:101AB000FC0180819181009791F639C08E01055813
:101AC0001F4FCE0189589F4FDC016D917D918D9103
:101AD0009C910E94AB15C758DE4F688379838A8337
:101AE0009B83C957D140C758DE4F88819981C95718
:101AF000D140F80191838083CE0181589F4F9E0190
:101B000025583F4FD9012D913C91FC013183208311
:101B1000CE0181589F4FDC018D919C910197F1F787
:101B20009E0121583F4FF90191838083000080E09E
:101B30000E94C3028BE090E09A838983B7C48AEB4A
:101B40000E94C302B3C48EEC0E94C6138EEC0E94A6
:101B50003A148DE090E09A838983A8C480E290E0F3
:101B6000DC018C91882F90E081709927009709F013
:101B700013C19E012F573F4F80E090E0A0EAB1E4EF
:101B8000F90180839183A283B3838E010B571F4F8A
:101B9000CE018F579F4F20E030E04AE755E4DC014B
:101BA0006D917D918D919C910E949116C358DE4F4D
:101BB000688379838A839B83CD57D140C358DE4F96
:101BC00088819981AA81BB81CD57D140F80180835A
:101BD0009183A283B383CE018B579F4F20E030E0E7
:101BE00040E85FE3DC016D917D918D919C910E94B5
:101BF000A61588234CF4CE0187579F4F21E030E093
:101C0000FC0131832083A5C0CE018B579F4F20E07C
:101C10003FEF4FE757E4DC016D917D918D919C91F1
:101C20000E948C16882309F00CF475C0CE018F57E2
:101C30009F4F20E030E040E251E4FC01608171817F
:101C4000828193810E949116CF57DE4F68837983FA
:101C50008A839B83C158D140CF57DE4F88819981B9
:101C6000AA81BB81C158D140C352DF4F8883998379
:101C7000AA83BB83CD5DD0408E0107571F4FC3524F
:101C8000DF4F688179818A819B81CD5DD0400E9440
:101C9000AB15CB57DE4F688379838A839B83C55806
:101CA000D140CB57DE4FE881F981C558D140D801EA
:101CB0001196FC93EE9326C0CE0185579F4F20E9E5
:101CC00031E0DC012D933C93CE0185579F4FFC0101
:101CD000808191810197F1F79E0125573F4FD901EE
:101CE0008D939C930000CE0187579F4F9E012757ED
:101CF0003F4FF9012081318121503109DC011196DA
:101D00003C932E93CE0187579F4FFC018081918198
:101D1000009791F639C08E0107571F4FCE018B57A0
:101D20009F4FDC016D917D918D919C910E94AB152F
:101D3000C757DE4F688379838A839B83C958D14014
:101D4000C757DE4F88819981C958D140F8019183E6
:101D50008083CE0183579F4F9E0127573F4FD90164
:101D60002D913C91FC0131832083CE0183579F4FFD
:101D7000DC018D919C910197F1F79E0123573F4F14
:101D8000F90191838083000080E00E94C30282E019
:101D900090E09A8389838AC38AEB0E94C30286C338
:101DA00080E290E0DC018C91882F90E0807299278E
:101DB000009709F013C19E0121573F4F80E090E04A
:101DC000A0EAB1E4F90180839183A283B3838E01F9
:101DD0000D561F4FCE0181579F4F20E030E04AE75C
:101DE00055E4DC016D917D918D919C910E9491163D
:101DF000C357DE4F688379838A839B83CD58D14054
:101E0000C357DE4F88819981AA81BB81CD58D140CB
:101E1000F80180839183A283B383CE018D569F4FB7
:101E200020E030E040E85FE3DC016D917D918D9131
:101E30009C910E94A61588234CF4CE0189569F4F91
:101E400021E030E0FC0131832083A5C0CE018D5616
:101E50009F4F20E03FEF4FE757E4DC016D917D910C
:101E60008D919C910E948C16882309F00CF475C00A
:101E7000CE0181579F4F20E030E040E251E4FC0169
:101E800060817181828193810E949116CF56DE4FCD
:101E9000688379838A839B83C159D140CF56DE4FB3
:101EA00088819981AA81BB81C159D140CF51DF4F2F
:101EB00088839983AA83BB83C15ED0408E01095673
:101EC0001F4FCF51DF4F688179818A819B81C15E2D
:101ED000D0400E94AB15CB56DE4F688379838A834E
:101EE0009B83C559D140CB56DE4FE881F981C55956
:101EF000D140D8011196FC93EE9326C0CE018756AF
:101F00009F4F20E931E0DC012D933C93CE018756B1
:101F10009F4FFC01808191810197F1F79E01275627
:101F20003F4FD9018D939C930000CE0189569F4F5E
:101F30009E0129563F4FF9012081318121503109FD
:101F4000DC0111963C932E93CE0189569F4FFC01E4
:101F500080819181009791F639C08E0109561F4FFB
:101F6000CE018D569F4FDC016D917D918D919C919D
:101F70000E94AB15C756DE4F688379838A839B83A3
:101F8000C959D140C756DE4F88819981C959D1407E
:101F9000F80191838083CE0185569F4F9E0129567B
:101FA0003F4FD9012D913C91FC0131832083CE011B
:101FB00085569F4FDC018D919C910197F1F79E0111
:101FC00025563F4FF90191838083000080E00E94F5
:101FD000C30286E090E09A83898368C286E40E9407
:101FE000C30264C282E30E94C61382E30E943A14D1
:101FF00088E090E09A83898359C280E290E0DC0116
:102000008C91882F90E082709927009709F013C176
:102010009E0123563F4F80E090E0A0EAB1E4F90131
:1020200080839183A283B3838E010F551F4FCE010E
:1020300083569F4F20E030E04AE755E4DC016D9184
:102040007D918D919C910E949116C356DE4F6883BD
:1020500079838A839B83CD59D140C356DE4F8881D3
:102060009981AA81BB81CD59D140F80180839183A8
:10207000A283B383CE018F559F4F20E030E040E82C
:102080005FE3DC016D917D918D919C910E94A6157D
:1020900088234CF4CE018B559F4F21E030E0FC01AA
:1020A00031832083A5C0CE018F559F4F20E03FEFA5
:1020B0004FE757E4DC016D917D918D919C910E94D9
:1020C0008C16882309F00CF475C0CE0183569F4FFF
:1020D00020E030E040E251E4FC01608171818281C6
:1020E00093810E949116CF55DE4F688379838A834E
:1020F0009B83C15AD140CF55DE4F88819981AA81F7
:10210000BB81C15AD140CB51DF4F88839983AA83C9
:10211000BB83C55ED0408E010B551F4FCB51DF4FA7
:10212000688179818A819B81C55ED0400E94AB1510
:10213000CB55DE4F688379838A839B83C55AD14010
:10214000CB55DE4FE881F981C55AD140D8011196AF
:10215000FC93EE9326C0CE0189559F4F20E931E0D4
:10216000DC012D933C93CE0189559F4FFC0180816A
:1021700091810197F1F79E0129553F4FD9018D9328
:102180009C930000CE018B559F4F9E012B553F4FD6
:10219000F9012081318121503109DC0111963C93F4
:1021A0002E93CE018B559F4FFC018081918100972A
:1021B00091F639C08E010B551F4FCE018F559F4FA1
:1021C000DC016D917D918D919C910E94AB15C7555D
:1021D000DE4F688379838A839B83C95AD140C75570
:1021E000DE4F88819981C95AD140F801918380835B
:1021F000CE0187559F4F9E012B553F4FD9012D9101
:102200003C91FC0131832083CE0187559F4FDC0137
:102210008D919C910197F1F79E0127553F4FF90150
:1022200091838083000080E00E94C3028AE090E0F6
:102230009A8389833BC186E40E94C30237C180E24E
:1022400090E0DC018C91882F90E0817099270097B5
:1022500009F013C19E0125553F4F80E090E0A0EAB0
:10226000B1E4F90180839183A283B3838E01015588
:102270001F4FCE0185559F4F20E030E04AE755E4DF
:10228000DC016D917D918D919C910E949116C355B9
:10229000DE4F688379838A839B83CD5AD140C355AF
:1022A000DE4F88819981AA81BB81CD5AD140F80146
:1022B00080839183A283B383CE0181559F4F20E019
:1022C00030E040E85FE3DC016D917D918D919C9160
:1022D0000E94A61588234CF4CE018D549F4F21E017
:1022E00030E0FC0131832083A5C0CE0181559F4F92
:1022F00020E03FEF4FE757E4DC016D917D918D9138
:102300009C910E948C16882309F00CF475C0CE01B4
:1023100085559F4F20E030E040E251E4FC016081B0
:102320007181828193810E949116CF54DE4F688320
:1023300079838A839B83C15BD140CF54DE4F8881F0
:102340009981AA81BB81C15BD140C751DF4F88838E
:102350009983AA83BB83C95ED0408E010D541F4F61
:10236000C751DF4F688179818A819B81C95ED040E6
:102370000E94AB15CB54DE4F688379838A839B839D
:10238000C55BD140CB54DE4FE881F981C55BD140BC
:10239000D8011196FC93EE9326C0CE018B549F4F2B
:1023A00020E931E0DC012D933C93CE018B549F4F0B
:1023B000FC01808191810197F1F79E012B543F4FE1
:1023C000D9018D939C930000CE018D549F4F9E01A7
:1023D0002D543F4FF9012081318121503109DC0119
:1023E00011963C932E93CE018D549F4FFC0180811A
:1023F0009181009791F639C08E010D541F4FCE0187
:1024000081559F4FDC016D917D918D919C910E9432
:10241000AB15C754DE4F688379838A839B83C95B7E
:10242000D140C754DE4F88819981C95BD140F80102
:1024300091838083CE0189549F4F9E012D543F4F3D
:10244000D9012D913C91FC0131832083CE01895427
:102450009F4FDC018D919C910197F1F79E012954CA
:102460003F4FF90191838083000080E00E94C30206
:102470008EE090E09A83898319C08AEB0E94C302A0
:1024800015C08EEC0E94C6138EEC0E943A1482E0B6
:1024900090E09A8389830AC000000C948F040000A6
:1024A0000C948F0400000C948F0400000C948F0493
:1024B0001F920F920FB60F9211240BB60F922F930B
:1024C0008F939F93EF93FF93CF93DF93CDB7DEB7B7
:1024D00088E091E0FC01208188E091E02068FC0127
:1024E000208388E091E0FC01208188E091E02F7B4F
:1024F000FC01208380910202909103020196909347
:102500000302809302020000DF91CF91FF91EF91CF
:102510009F918F912F910F900BBE0F900FBE0F9038
:102520001F9018951F920F920FB60F9211240BB6A1
:102530000F922F938F939F93EF93FF93CF93DF93FC
:10254000CDB7DEB78BE290E0FC0120818BE290E01A
:102550002160FC012083809100029091010201968C
:1025600090930102809300020000DF91CF91FF91D0
:10257000EF919F918F912F910F900BBE0F900FBEF7
:102580000F901F9018951F920F920FB60F92112463
:102590000BB60F922F933F938F939F93EF93FF93DD
:1025A000CF93DF93CDB7DEB784E291E020E137E24D
:1025B000FC013183208388E091E0FC01208188E0E8
:1025C00091E02064FC01208388E091E0FC012081FF
:1025D00088E091E02F77FC0120838BE290E0FC0102
:1025E00020818BE290E02E7FFC0120830000DF91B0
:1025F000CF91FF91EF919F918F913F912F910F90EC
:102600000BBE0F900FBE0F901F9018951F920F9248
:102610000FB60F9211240BB60F922F933F938F9307
:102620009F93EF93FF93CF93DF93CDB7DEB784EA09
:1026300090E024E234E6FC01318320838EE290E0D6
:10264000FC0120818EE290E02860FC01208384E37D
:1026500090E0FC01208184E390E02062FC01208373
:102660000000DF91CF91FF91EF919F918F913F916A
:102670002F910F900BBE0F900FBE0F901F901895CB
:102680001F920F920FB60F9211240BB60F922F9339
:102690008F939F93EF93FF93CF93DF93CDB7DEB7E5
:1026A0008EE290E0FC0120818EE290E0277FFC0129
:1026B00020830000DF91CF91FF91EF919F918F9147
:1026C0002F910F900BBE0F900FBE0F901F9018957B
:1026D0001F920F920FB60F9211240BB60F922F93E9
:1026E0008F939F93EF93FF93CF93DF93CDB7DEB795
:1026F00084E390E0FC01208184E390E02F7DFC01E5
:1027000020830000DF91CF91FF91EF919F918F91F6
:102710002F910F900BBE0F900FBE0F901F9018952A
:10272000CF93DF93CDB7DEB78DE290E0FC0120813F
:102730008DE290E02860FC01208383E390E0FC01BF
:10274000208183E390E02062FC01208380EA90E016
:10275000FC01108281EA90E022E0FC01208382E704
:1027600090E027E0FC01208384EA90E024E234E654
:10277000FC013183208380E00E94C61380E00E9428
:102780003A1478940000DF91CF9108950F931F932E
:10279000CF93DF93CDB7DEB76D970FB6F894DEBF5A
:1027A0000FBECDBF898389818C390CF457C08981D4
:1027B000843611F00CF052C08981282F880F330B1A
:1027C000440B550B2E873F87488B598B6E857F8531
:1027D000888999890E94DC156A837B838C839D8319
:1027E00020E030E040E251E46A817B818C819D8170
:1027F0000E9491166A8B7B8B8C8B9D8B8A899B891F
:10280000AC89BD898E839F83A887B98720E038EB88
:102810004FED56E46E817F81888599850E943A1537
:102820006E8B7F8B888F998F2E893F89488D598D2C
:102830002A873B874C875D8708EA10E06A857B859D
:102840008C859D850E94AB156A8F7B8F8C8F9D8FA9
:102850008A8D9B8DD80111969C938E9300006D9666
:102860000FB6F894DEBF0FBECDBFDF91CF911F91A1
:102870000F9108950F931F93CF93DF93CDB7DEB7DA
:102880006D970FB6F894DEBF0FBECDBF89838981E7
:102890008C390CF457C08981843611F00CF052C089
:1028A0008981282F880F330B440B550B2E873F87C8
:1028B000488B598B6E857F85888999890E94DC15A4
:1028C0006A837B838C839D8320E030E040E251E487
:1028D0006A817B818C819D810E9491166A8B7B8BA2
:1028E0008C8B9D8B8A899B89AC89BD898E839F83C4
:1028F000A887B98720E038EB4FED56E46E817F81E1
:10290000888599850E943A156E8B7F8B888F998F69
:102910002E893F89488D598D2A873B874C875D8753
:102920000AEA10E06A857B858C859D850E94AB153F
:102930006A8F7B8F8C8F9D8F8A8D9B8DD80111968E
:102940009C938E9300006D960FB6F894DEBF0FBE79
:10295000CDBFDF91CF911F910F91089597FB072E67
:1029600016F4009407D077FD09D00E94F41407FCF8
:1029700005D03EF4909581959F4F0895709561958F
:102980007F4F0895052E97FB1EF400940E94D914E2
:1029900057FD07D00E94081507FC03D04EF40C9495
:1029A000D91450954095309521953F4F4F4F5F4F2B
:1029B000089590958095709561957F4F8F4F9F4FAB
:1029C0000895EE0FFF1F881F8BBF0790F691E02D33
:1029D00019940E942A15A59F900DB49F900DA49F55
:1029E000800D911D11240895AA1BBB1B51E107C046
:1029F000AA1FBB1FA617B70710F0A61BB70B881F8F
:102A0000991F5A95A9F780959095BC01CD0108951D
:102A1000A1E21A2EAA1BBB1BFD010DC0AA1FBB1FE2
:102A2000EE1FFF1FA217B307E407F50720F0A21B54
:102A3000B30BE40BF50B661F771F881F991F1A94C1
:102A400069F760957095809590959B01AC01BD01EB
:102A5000CF010895A29FB001B39FC001A39F700D45
:102A6000811D1124911DB29F700D811D1124911D96
:102A700008955058BB27AA270E9451150C9452164E
:102A80000E94441638F00E944B1620F039F49F3F04
:102A900019F426F40C9441160EF4E095E7FB0C941F
:102AA0003B16E92F0E94631658F3BA1762077307A3
:102AB0008407950720F079F4A6F50C9485160EF49A
:102AC000E0950B2EBA2FA02D0B01B90190010C013E
:102AD000CA01A0011124FF27591B99F0593F50F456
:102AE000503E68F11A16F040A22F232F342F4427AE
:102AF000585FF3CF469537952795A795F0405395A6
:102B0000C9F77EF41F16BA0B620B730B840BBAF075
:102B10009150A1F0FF0FBB1F661F771F881FC2F7E0
:102B20000EC0BA0F621F731F841F48F487957795F4
:102B30006795B795F7959E3F08F0B0CF9395880FAE
:102B400008F09927EE0F9795879508950E9417161C
:102B500008F481E008950E946B1688F09F5798F062
:102B6000B92F9927B751B0F0E1F0660F771F881F92
:102B7000991F1AF0BA95C9F714C0B13091F00E94AC
:102B80008516B1E008950C948516672F782F882755
:102B9000B85F39F0B93FCCF3869577956795B395D3
:102BA000D9F73EF490958095709561957F4F8F4F42
:102BB0009F4F0895E89409C097FB3EF49095809547
:102BC000709561957F4F8F4F9F4F9923A9F0F92FF3
:102BD00096E9BB279395F695879577956795B79571
:102BE000F111F8CFFAF4BB0F11F460FF1BC06F5F57
:102BF0007F4F8F4F9F4F16C0882311F096E911C069
:102C0000772321F09EE8872F762F05C0662371F089
:102C100096E8862F70E060E02AF09A95660F771F9D
:102C2000881FDAF7880F9695879597F90895990F79
:102C30000008550FAA0BE0E8FEEF16161706E80786
:102C4000F907C0F012161306E407F50798F0621BA7
:102C5000730B840B950B39F40A2661F0232B242B7C
:102C6000252B21F408950A2609F4A140A6958FEF9B
:102C7000811D811D089597F99F6780E870E060E0ED
:102C800008959FEF80EC089500240A941616170605
:102C900018060906089500240A941216130614064D
:102CA00005060895092E0394000C11F4882352F0B0
:102CB000BB0F40F4BF2B11F460FF04C06F5F7F4F68
:102CC0008F4F9F4F089557FD9058440F551F59F04F
:102CD0005F3F71F04795880F97FB991F61F09F3F09
:102CE00079F087950895121613061406551FF2CF32
:102CF0004695F1DF08C0161617061806991FF1CF82
:102D000086957105610508940895E894BB276627A8
:102D10007727CB0197F908950E94171608F48FEFD3
:102D200008950E94A4160C9452160E94441638F07E
:102D30000E944B1620F0952311F00C943B160C9436
:102D4000411611240C9486160E94631670F3959F09
:102D5000C1F3950F50E0551F629FF001729FBB2792
:102D6000F00DB11D639FAA27F00DB11DAA1F649F2E
:102D70006627B00DA11D661F829F2227B00DA11DE1
:102D8000621F739FB00DA11D621F839FA00D611D67
:102D9000221F749F3327A00D611D231F849F600D88
:102DA000211D822F762F6A2F11249F5750409AF0B1
:102DB000F1F088234AF0EE0FFF1FBB1F661F771F3D
:102DC000881F91505040A9F79E3F510580F00C9408
:102DD0003B160C9486165F3FE4F3983ED4F3869539
:102DE00077956795B795F795E7959F5FC1F7FE2BA8
:102DF000880F911D9695879597F90895F894FFCFC0
:102E00006D0637070608340AD00E400AF20F650B2C
:0E2E1000FD0F810C4C12A30D1F11AE0D4112CF
:00000001FF
