:100000000C9490000C94A4000C94A4000C94A400F4
:100010000C94A4000C94A4000C94A4000C94A400D0
:100020000C94A4000C94A4000C94A4000C94A400C0
:100030000C94A4000C94A4000C94A4000C94A400B0
:100040000C94A4000C948F160C94B6160C94A40077
:100050000C9459160C9488010C94E6010C94A6009B
:100060000C94A4000C94A4000C94A4000C94A40080
:100070000C94A4000C94A4000C94A4000C94A40070
:100080000C94B6010C9414020C94A4000C94150169
:100090000C94A4000C94A4000C94A4000C94A40050
:1000A0000C94A4000C94A4000C94A4000C94A40040
:1000B0000C94A4000C94A4000C94A4000C94AB1514
:1000C0000C94E5150C94A4000C9416160C94A40042
:1000D0000C94A4000C94A4000C94A4000C94A40010
:1000E0000C94A4000C949B0D0C9408090C945613CA
:1000F0000C9467060C9434120C9429120C94680C1E
:100100000C9407110C9494150C942B0A0C94B80EB3
:100110000C94E50F0C9472140C94740C0C94DA0F7C
:1001200011241FBECFEFD1E2DEBFCDBF00E00CBF78
:1001300022E0A0E0B2E001C01D92A430B207E1F7D6
:100140000E9412040C94D8190C9400001F920F9274
:100150000FB60F9211240BB60F922F938F939F938C
:10016000EF93FF93CF93DF93CDB7DEB787E490E0B3
:10017000FC0180818823C9F488E490E0FC0180813F
:10018000882399F48EE290E0FC0120818EE290E0D9
:100190002F7EFC0120838EE290E0FC0120818EE224
:1001A00090E02F7DFC01208331C087E490E0FC01CA
:1001B0008081882399F08EE290E0FC0120818EE21C
:1001C00090E02F7DFC0120838EE290E0FC012081F5
:1001D0008EE290E02061FC01208318C088E490E06A
:1001E000FC018081882391F08EE290E0FC01208167
:1001F0008EE290E02F7EFC0120838EE290E0FC01F5
:1002000020818EE290E02062FC0120830000DF91DB
:10021000CF91FF91EF919F918F912F910F900BBEF6
:100220000F900FBE0F901F9018951F920F920FB650
:100230000F9211240BB60F922F938F939F93EF93EE
:10024000FF93CF93DF93CDB7DEB788E990E0FC0151
:10025000808191810097D1F48AE990E0FC0180814E
:100260009181009799F484E390E0FC01208184E37C
:1002700090E02F7DFC0120838EE290E0FC01208144
:100280008EE290E0277FFC01208333C088E990E074
:10029000FC0180819181009799F08EE290E0FC0151
:1002A00020818EE290E0277FFC01208384E390E0B0
:1002B000FC01208184E390E02062FC01208319C0CE
:1002C0008AE990E0FC0180819181009791F084E3BC
:1002D00090E0FC01208184E390E02F7DFC012083ED
:1002E0008EE290E0FC0120818EE290E02860FC012B
:1002F00020830000DF91CF91FF91EF919F918F912B
:100300002F910F900BBE0F900FBE0F901F9018955E
:100310001F920F920FB60F9211240BB60F922F93CC
:100320008F939F93EF93FF93CF93DF93CDB7DEB778
:1003300087E490E0FC0180818F3F49F08EE290E0FD
:10034000FC0120818EE290E02F7EFC0120830000E2
:10035000DF91CF91FF91EF919F918F912F910F900E
:100360000BBE0F900FBE0F901F9018951F920F920B
:100370000FB60F9211240BB60F922F938F939F936A
:10038000EF93FF93CF93DF93CDB7DEB788E990E08B
:10039000FC01808191818F3F980749F084E390E0D0
:1003A000FC01208184E390E02F7DFC01208300008C
:1003B000DF91CF91FF91EF919F918F912F910F90AE
:1003C0000BBE0F900FBE0F901F9018951F920F92AB
:1003D0000FB60F9211240BB60F922F938F939F930A
:1003E000EF93FF93CF93DF93CDB7DEB788E490E030
:1003F000FC0180818F3F49F08EE290E0FC0120817A
:100400008EE290E02F7DFC0120830000DF91CF91F0
:10041000FF91EF919F918F912F910F900BBE0F90B5
:100420000FBE0F901F9018951F920F920FB60F924C
:1004300011240BB60F922F938F939F93EF93FF93FB
:10044000CF93DF93CDB7DEB78AE990E0FC018081DE
:1004500091818F3F980749F08EE290E0FC01208166
:100460008EE290E0277FFC0120830000DF91CF9196
:10047000FF91EF919F918F912F910F900BBE0F9055
:100480000FBE0F901F901895CF93DF93CDB7DEB7B7
:100490008DE290E0FC0120818DE290E02061FC0182
:1004A00020838DE290E0FC0120818DE290E02062CB
:1004B000FC01208383E390E0FC01208183E390E052
:1004C0002062FC0120838DE290E0FC0120818DE21E
:1004D00090E02860FC0120838EE290E0FC01208106
:1004E0008EE290E02F7EFC0120838EE290E0FC0102
:1004F00020818EE290E02F7DFC01208384E390E058
:10050000FC01208184E390E02F7DFC0120838EE2BA
:1005100090E0FC0120818EE290E0277FFC012083A7
:1005200084E490E0FC01108285E490E023E0FC018B
:10053000208387E490E0FC01108288E490E0FC01D5
:1005400010828EE690E027E0FC01208380E990E0B5
:10055000FC01108281E990E021E0FC01208388E920
:1005600090E0FC01118210828AE990E0FC01118286
:10057000108281E790E027E0FC012083789400005E
:10058000DF91CF910895CF93DF930F92CDB7DEB770
:10059000898389818C39E4F18981843609F0C4F535
:1005A00089818823DCF088E490E0FC011082898155
:1005B000082E000C990B2FEF289FA001299F500DAA
:1005C000112424E630E0CA01B9010E948817CB014A
:1005D0009C0187E490E0FC0120831AC087E490E04E
:1005E000FC0110828981082E000C990B2FEF289FA7
:1005F000A001299F500D11242CE93FEFCA01B90138
:100600000E948817CB019C0188E490E0FC012083C4
:1006100000000F90DF91CF9108950F931F93CF9318
:10062000DF9300D000D000D0CDB7DEB789838981B9
:100630008C390CF461C08981843611F00CF05CC0F7
:10064000898188236CF18AE990E0FC011182108293
:100650008981482F880F550B660B770B8FEF9FEF23
:10066000DC019A01AB010E94C3176A837B838C83F0
:100670009D8304E610E020E030E06A817B818C817C
:100680009D81A90198010E949C17DA01C901AC0162
:10069000BD0188E990E09A01FC01318320832CC0E0
:1006A00088E990E0FC01118210828981482F880F2F
:1006B000550B660B770B8FEF9FEFDC019A01AB01B7
:1006C0000E94C3176E837F83888799870CE91FEF89
:1006D0002FEF3FEF6E817F8188859985A901980171
:1006E0000E949C17DA01C901AC01BD018AE990E0C2
:1006F0009A01FC0131832083000029960FB6F894FB
:10070000DEBF0FBECDBFDF91CF911F910F91089536
:10071000CF93DF930F92CDB7DEB789838981813084
:1007200051F483E790E0FC01208183E790E02460AE
:10073000FC01208314C08981882389F423E730E0F9
:1007400083E790E0F9012081FC0120838BE290E0B7
:10075000FC0120818BE290E02E7FFC0120830000D1
:100760000F90DF91CF910895CF93DF930F92CDB784
:10077000DEB789838981813031F483E790E023E01B
:10078000FC01208310C08981882369F483E790E00D
:10079000FC01108288E091E0FC01208188E091E07A
:1007A0002F73FC01208300000F90DF91CF910895FB
:1007B000CF93DF93CDB7DEB780E291E0FC011082EA
:1007C00081E291E024E0FC01208384E291E020E1D9
:1007D00037E2FC013183208388E291E028EB38E89E
:1007E000FC01318320838AE291E020E533ECFC01B7
:1007F0003183208383E790E027E0FC012083000021
:10080000DF91CF910895CF93DF93CDB7DEB70E94EC
:10081000D8030E9444020E94DD1678940000DF9104
:10082000CF9108950F931F93CF93DF93CDB7DEB78A
:10083000C252D2400FB6F894DEBF0FBECDBF0E94A9
:10084000030487E091E0DC012C9187E091E0206CCB
:10085000FC01208388E091E0DC012C9188E091E0AC
:100860002F73FC0120838AE290E0DC012C918AE264
:1008700090E02160FC0120838BE290E0DC012C9170
:100880008BE290E02E7FFC01208380E390E0DC018E
:100890002C9180E390E02068FC01208381E390E0CC
:1008A000DC012C9181E390E02068FC01208381E34E
:1008B00090E0DC012C9181E390E02F62FC01208329
:1008C00080E390E0DC012C9180E390E02F62FC015A
:1008D000208382E290E0DC012C9182E290E02170A2
:1008E000FC01208382E290E0DC012C9182E290E026
:1008F0002270FC01208382E290E0DC012C9182E2F4
:1009000090E02072FC0120831A82198280E00E940C
:10091000B40380910002909101028730910571F03B
:100920006CF080E00E94880383E790E0DC018C910A
:10093000882321F410920102109200028091020299
:10094000909103028E30910541F03CF080E00E94CE
:10095000B40310920302109202028FE290E0FC01B5
:100960008081882F90E080719927009709F09BC1C2
:1009700080E090E0A0EAB1E48B839C83AD83BE83EA
:1009800020E030E04AE755E46B817C818D819E81D7
:100990000E946B19CD5DDE4F688379838A839B83C8
:1009A000C352D140CD5DDE4F88819981AA81BB8140
:1009B000C352D1408F839887A987BA8720E030E05F
:1009C00040E85FE36F81788589859A850E94801869
:1009D00088232CF481E090E09C878B8776C020E010
:1009E0003FEF4FE757E46F81788589859A850E94AC
:1009F0006619882309F00CF452C020E030E040E290
:100A000051E46B817C818D819E810E946B19C95D4F
:100A1000DE4F688379838A839B83C752D140C95D47
:100A2000DE4F88819981AA81BB81C752D140CD51C7
:100A3000DF4F88839983AA83BB83C35ED040CD51A7
:100A4000DF4F688179818A819B81C35ED0400E949B
:100A50008518C55DDE4F688379838A839B83CB527B
:100A6000D140C55DDE4FA881B981CB52D140BC8752
:100A7000AB8710C080E991E09E878D878D859E852C
:100A80000197F1F79E878D8700008B859C850197E4
:100A90009C878B878B859C85009761F721C06F8130
:100AA000788589859A850E948518C15DDE4F6883A7
:100AB00079838A839B83CF52D140C15DDE4FE88129
:100AC000F981CF52D140FC87EB878B859C85988B31
:100AD0008F878F8598890197F1F7988B8F87000012
:100AE00080E00E94C30280E00E940D0380E00E942B
:100AF000880380E00E94B40381E390E0DC012C9144
:100B000081E390E02F77FC0120831A8219828FE223
:100B100090E0DC018C91882F90E0807199270097FC
:100B200009F4C1C080E090E0A0EAB1E4898B9A8B1F
:100B3000AB8BBC8B20E030E04AE755E469897A89C9
:100B40008B899C890E946B19CD5CDE4F6883798309
:100B50008A839B83C353D140CD5CDE4F88819981CA
:100B6000AA81BB81C353D1408D8B9E8BAF8BB88F35
:100B700020E030E040E85FE36D897E898F89988DC1
:100B80000E94801888232CF481E090E09A8F898F4E
:100B900076C020E03FEF4FE757E46D897E898F896B
:100BA000988D0E946619882309F00CF452C020E049
:100BB00030E040E251E469897A898B899C890E94FE
:100BC0006B19C95CDE4F688379838A839B83C75323
:100BD000D140C95CDE4F88819981AA81BB81C7530E
:100BE000D140C951DF4F88839983AA83BB83C75EF5
:100BF000D040C951DF4F688179818A819B81C75E6E
:100C0000D0400E948518C55CDE4F688379838A8353
:100C10009B83CB53D140C55CDE4FA881B981CB53B8
:100C2000D140BA8FA98F10C080E991E09C8F8B8F43
:100C30008B8D9C8D0197F1F79C8F8B8F0000898D98
:100C40009A8D01979A8F898F898D9A8D009761F778
:100C500021C06D897E898F89988D0E948518C15C1D
:100C6000DE4F688379838A839B83CF53D140C15CF5
:100C7000DE4FE881F981CF53D140FA8FE98F898D1A
:100C80009A8D9E8F8D8F8D8D9E8D0197F1F79E8F02
:100C90008D8F000081E390E0DC012C9181E390E0F6
:100CA0002068FC01208389819A81092E000CAA0BFF
:100CB000BB0B8E309105A105B10511F008F029CECE
:100CC000FC018827E652F64E8F4F0C94BB1780E24A
:100CD00090E0DC018C91882F90E08170992700973B
:100CE00009F0BEC080E090E0A0EAB1E48F8F98A345
:100CF000A9A3BAA320E030E04AE755E46F8D78A1BC
:100D000089A19AA10E946B19CD5BDE4F688379831C
:100D10008A839B83C354D140CD5BDE4F8881998108
:100D2000AA81BB81C354D1408BA39CA3ADA3BEA316
:100D300020E030E040E85FE36BA17CA18DA19EA1A3
:100D40000E94801888232CF481E090E098A78FA35C
:100D500076C020E03FEF4FE757E46BA17CA18DA167
:100D60009EA10E946619882309F00CF452C020E06D
:100D700030E040E251E46F8D78A189A19AA10E94F0
:100D80006B19C95BDE4F688379838A839B83C75461
:100D9000D140C95BDE4F88819981AA81BB81C7544C
:100DA000D140C551DF4F88839983AA83BB83CB5E33
:100DB000D040C551DF4F688179818A819B81CB5EAC
:100DC000D0400E948518C55BDE4F688379838A8393
:100DD0009B83CB54D140C55BDE4FA881B981CB54F6
:100DE000D140B8A7AFA310C080E991E09AA789A726
:100DF00089A59AA50197F1F79AA789A700008FA165
:100E000098A5019798A78FA38FA198A5009761F740
:100E100021C06BA17CA18DA19EA10E948518C15B00
:100E2000DE4F688379838A839B83CF54D140C15B33
:100E3000DE4FE881F981CF54D140F8A7EFA38FA10D
:100E400098A59CA78BA78BA59CA50197F1F79CA7BC
:100E50008BA7000082E090E09A8389830C94A91507
:100E600080E290E0DC018C91882F90E081709927DE
:100E7000009711F40C949F1580E090E0A0EAB1E493
:100E80008DA79EA7AFA7B8AB20E030E04AE755E4B6
:100E90006DA57EA58FA598A90E946B19CD5ADE4F2E
:100EA000688379838A839B83C355D140CD5ADE4FB3
:100EB00088819981AA81BB81C355D14089AB9AAB06
:100EC000ABABBCAB20E030E040E85FE369A97AA9B6
:100ED0008BA99CA90E94801888232CF481E090E0C3
:100EE0009EAB8DAB76C020E03FEF4FE757E469A99A
:100EF0007AA98BA99CA90E946619882309F00CF491
:100F000052C020E030E040E251E46DA57EA58FA5FF
:100F100098A90E946B19C95ADE4F688379838A8326
:100F20009B83C755D140C95ADE4F88819981AA81D8
:100F3000BB81C755D140C151DF4F88839983AA83B4
:100F4000BB83CF5ED040C151DF4F688179818A81F8
:100F50009B81CF5ED0400E948518C55ADE4F6883C2
:100F600079838A839B83CB55D140C55ADE4FA881B4
:100F7000B981CB55D140BEABADAB10C080E991E09B
:100F800098AF8FAB8FA998AD0197F1F798AF8FAB62
:100F900000008DA99EA901979EAB8DAB8DA99EA93E
:100FA000009761F721C069A97AA98BA99CA90E9421
:100FB0008518C15ADE4F688379838A839B83CF5516
:100FC000D140C15ADE4FE881F981CF55D140FEAB07
:100FD000EDAB8DA99EA99AAF89AF89AD9AAD019766
:100FE000F1F79AAF89AF00008FE290E0DC018C91BD
:100FF000882F90E081709927009711F00C949F152D
:1010000080E090E0A0EAB1E48BAF9CAFADAFBEAFA3
:101010008E01015C1F4F20E030E04AE755E46BADE4
:101020007CAD8DAD9EAD0E946B19CD59DE4F6883AE
:1010300079838A839B83C356D140CD59DE4F888103
:101040009981AA81BB81C356D140F80180839183E5
:10105000A283B383CE01CF9620E030E040E85FE387
:10106000DC016D917D918D919C910E948018882367
:101070004CF4CE018D5B9F4F21E030E0FC013183C9
:1010800020839FC0CE01CF9620E03FEF4FE757E48B
:10109000DC016D917D918D919C910E946619882350
:1010A00009F00CF471C020E030E040E251E46BAD97
:1010B0007CAD8DAD9EAD0E946B19C959DE4F688322
:1010C00079838A839B83C756D140C959DE4F888173
:1010D0009981AA81BB81C756D140CD50DF4F88830B
:1010E0009983AA83BB83C35FD0408E010D5B1F4FE2
:1010F000CD50DF4F688179818A819B81C35FD04069
:101100000E948518C559DE4F688379838A839B8343
:10111000CB56D140C559DE4FE881F981CB56D1403D
:10112000D8011196FC93EE9326C0CE018B5B9F4FA6
:1011300020E931E0DC012D933C93CE018B5B9F4F86
:10114000FC01808191810197F1F79E012B5B3F4F5C
:10115000D9018D939C930000CE018D5B9F4F9E0122
:101160002D5B3F4FF9012081318121503109DC0194
:1011700011963C932E93CE018D5B9F4FFC01808195
:101180009181009791F638C08E010D5B1F4FCE0103
:10119000CF96DC016D917D918D919C910E94851877
:1011A000C159DE4F688379838A839B83CF56D140B0
:1011B000C159DE4F88819981CF56D140F801918382
:1011C0008083CE01895B9F4F9E012D5B3F4FD901EC
:1011D0002D913C91FC0131832083CE01895B9F4F8F
:1011E000DC018D919C910197F1F79E01295B3F4FA6
:1011F000F90191838083000081E00E94B40381E0C3
:101200000E94880382E090E09A8389830C94A91558
:1012100080E290E0DC018C91882F90E0817099272A
:10122000009709F010C19E01275B3F4F80E090E0DE
:10123000A0EAB1E4F90180839183A283B3838E0194
:10124000035B1F4FCE01875B9F4F20E030E04AE7F2
:1012500055E4DC016D917D918D919C910E946B19FB
:10126000CD58DE4F688379838A839B83C357D140EF
:10127000CD58DE4F88819981AA81BB81C357D14067
:10128000F80180839183A283B383CE01835B9F4F58
:1012900020E030E040E85FE3DC016D917D918D91CD
:1012A0009C910E94801888234CF4CE018F5A9F4F46
:1012B00021E030E0FC0131832083A5C0CE01835BB7
:1012C0009F4F20E03FEF4FE757E4DC016D917D91A8
:1012D0008D919C910E946619882309F00CF475C0C9
:1012E000CE01875B9F4F20E030E040E251E4FC01FB
:1012F00060817181828193810E946B19C958DE4F90
:10130000688379838A839B83C757D140C958DE4F4E
:1013100088819981AA81BB81C757D140C950DF4FCD
:1013200088839983AA83BB83C75FD0408E010F5AFD
:101330001F4FC950DF4F688179818A819B81C75FC8
:10134000D0400E948518C558DE4F688379838A8310
:101350009B83CB57D140C558DE4FE881F981CB57ED
:10136000D140D8011196FC93EE9326C0CE018D5A40
:101370009F4F20E931E0DC012D933C93CE018D5A43
:101380009F4FFC01808191810197F1F79E012D5AB9
:101390003F4FD9018D939C930000CE018F5A9F4FF0
:1013A0009E012F5A3F4FF90120813181215031098F
:1013B000DC0111963C932E93CE018F5A9F4FFC0176
:1013C00080819181009791F63AC08E010F5A1F4F8C
:1013D000CE01835B9F4FDC016D917D918D919C913E
:1013E0000E948518C158DE4F688379838A839B8366
:1013F000CF57D140C158DE4F88819981CF57D14016
:10140000F80191838083CE018B5A9F4F9E012F5A02
:101410003F4FD9012D913C91FC0131832083CE01B6
:101420008B5A9F4FDC018D919C9111970197F1F799
:101430009E012B5A3F4FF9019183808300001A824D
:1014400019820C94A9158AEB0E94C3028AEB0E94B0
:101450000D030C94A9158FE290E0DC018C91882F8C
:1014600090E082709927009709F014C19E01295AD3
:101470003F4F80E090E0A0EAB1E4F90180839183DE
:10148000A283B3838E01055A1F4FCE01895A9F4F05
:1014900020E030E04AE755E4DC016D917D918D91CB
:1014A0009C910E946B19CD57DE4F688379838A83A4
:1014B0009B83C358D140CD57DE4F88819981AA8143
:1014C000BB81C358D140F80180839183A283B38349
:1014D000CE01855A9F4F20E030E040E85FE3DC0119
:1014E0006D917D918D919C910E94801888234CF480
:1014F000CE01815A9F4F21E030E0FC0131832083EF
:10150000A5C0CE01855A9F4F20E03FEF4FE757E43B
:10151000DC016D917D918D919C910E9466198823CB
:1015200009F00CF475C0CE01895A9F4F20E030E0DD
:1015300040E251E4FC0160817181828193810E94CB
:101540006B19C957DE4F688379838A839B83C75899
:10155000D140C957DE4F88819981AA81BB81C75884
:10156000D140C550DF4F88839983AA83BB83CB5F6B
:10157000D0408E01015A1F4FC550DF4F68817981DD
:101580008A819B81CB5FD0400E948518C557DE4F72
:10159000688379838A839B83CB58D140C557DE4FBC
:1015A000E881F981CB58D140D8011196FC93EE9394
:1015B00026C0CE018F599F4F20E931E0DC012D93E9
:1015C0003C93CE018F599F4FFC01808191810197FF
:1015D000F1F79E012F593F4FD9018D939C93000045
:1015E000CE01815A9F4F9E01215A3F4FF901208120
:1015F000318121503109DC0111963C932E93CE01AB
:10160000815A9F4FFC0180819181009791F639C0EA
:101610008E01015A1F4FCE01855A9F4FDC016D91FB
:101620007D918D919C910E948518C157DE4F6883F2
:1016300079838A839B83CF58D140C157DE4F8881FD
:101640009981CF58D140F80191838083CE018D5983
:101650009F4F9E01215A3F4FD9012D913C91FC0192
:1016600031832083CE018D599F4FDC018D919C9158
:101670000197F1F79E012D593F4FF9019183808326
:10168000000080E00E94B40383E090E09A838983A5
:101690000C94A9158FE290E0DC018C91882F90E0EA
:1016A00084709927009711F00C94A2159E012B5974
:1016B0003F4F80E090E0A0EAB1E4F901808391839C
:1016C000A283B3838E0107591F4FCE018B599F4FC1
:1016D00020E030E04AE755E4DC016D917D918D9189
:1016E0009C910E946B19CD56DE4F688379838A8363
:1016F0009B83C359D140CD56DE4F88819981AA8101
:10170000BB81C359D140F80180839183A283B38305
:10171000CE0187599F4F20E030E040E85FE3DC01D5
:101720006D917D918D919C910E94801888234CF43D
:10173000CE0183599F4F21E030E0FC0131832083AB
:10174000A5C0CE0187599F4F20E03FEF4FE757E4F8
:10175000DC016D917D918D919C910E946619882389
:1017600009F00CF475C0CE018B599F4F20E030E09A
:1017700040E251E4FC0160817181828193810E9489
:101780006B19C956DE4F688379838A839B83C75957
:10179000D140C956DE4F88819981AA81BB81C75942
:1017A000D140C150DF4F88839983AA83BB83CF5F29
:1017B000D0408E0103591F4FC150DF4F688179819E
:1017C0008A819B81CF5FD0400E948518C556DE4F2D
:1017D000688379838A839B83CB59D140C556DE4F7A
:1017E000E881F981CB59D140D8011196FC93EE9351
:1017F00026C0CE0181599F4F20E931E0DC012D93B5
:101800003C93CE0181599F4FFC01808191810197CA
:10181000F1F79E0121593F4FD9018D939C93000010
:10182000CE0183599F4F9E0123593F4FF9012081DB
:10183000318121503109DC0111963C932E93CE0168
:1018400083599F4FFC0180819181009791F63AC0A6
:101850008E0103591F4FCE0187599F4FDC016D91B7
:101860007D918D919C910E948518C156DE4F6883B1
:1018700079838A839B83CF59D140C156DE4F8881BB
:101880009981CF59D140F80191838083CE018F583F
:101890009F4F9E0123593F4FD9012D913C91FC014F
:1018A00031832083CE018F589F4FDC018D919C9115
:1018B00011970197F1F79E012F583F4FF90191833E
:1018C0008083000084E090E09A8389830C94A915BA
:1018D00082E30E940A1782E30E94491785E090E0A4
:1018E0009A8389830C94A91580E290E0DC018C91A5
:1018F000882F90E082709927009709F014C19E010B
:101900002D583F4F80E090E0A0EAB1E4F9018083D8
:101910009183A283B3838E0109581F4FCE018D5846
:101920009F4F20E030E04AE755E4DC016D917D9166
:101930008D919C910E946B19CD55DE4F6883798300
:101940008A839B83C35AD140CD55DE4F88819981CC
:10195000AA81BB81C35AD140F80180839183A283BD
:10196000B383CE0189589F4F20E030E040E85FE329
:10197000DC016D917D918D919C910E94801888234E
:101980004CF4CE0185589F4F21E030E0FC013183BB
:101990002083A5C0CE0189589F4F20E03FEF4FE73D
:1019A00057E4DC016D917D918D919C910E946619A7
:1019B000882309F00CF475C0CE018D589F4F20E0AC
:1019C00030E040E251E4FC016081718182819381C9
:1019D0000E946B19C955DE4F688379838A839B8384
:1019E000C75AD140C955DE4F88819981AA81BB81F0
:1019F000C75AD140CD5FDE4F88839983AA83BB83CA
:101A0000C350D1408E0105581F4FCD5FDE4F688116
:101A100079818A819B81C350D1400E948518C55528
:101A2000DE4F688379838A839B83CB5AD140C55527
:101A3000DE4FE881F981CB5AD140D8011196FC9351
:101A4000EE9326C0CE0183589F4F20E931E0DC01A0
:101A50002D933C93CE0183589F4FFC01808191814F
:101A60000197F1F79E0123583F4FD9018D939C9325
:101A70000000CE0185589F4F9E0125583F4FF90128
:101A80002081318121503109DC0111963C932E9344
:101A9000CE0185589F4FFC0180819181009791F67E
:101AA00039C08E0105581F4FCE0189589F4FDC0168
:101AB0006D917D918D919C910E948518C155DE4F4D
:101AC000688379838A839B83CF5AD140C155DE4F87
:101AD00088819981CF5AD140F80191838083CE01CA
:101AE00081589F4F9E0125583F4FD9012D913C9120
:101AF000FC0131832083CE0181589F4FDC018D9101
:101B00009C910197F1F79E0121583F4FF901918374
:101B10008083000080E00E94C30287E090E09A8307
:101B200089830C94A91586E40E94C30286E40E946E
:101B30000D030C94A9158FE290E0DC018C91882FA5
:101B400090E088709927009711F00C94A5159E01DC
:101B50002F573F4F80E090E0A0EAB1E4F901808385
:101B60009183A283B3838E010B571F4FCE018F57F2
:101B70009F4F20E030E04AE755E4DC016D917D9114
:101B80008D919C910E946B19CD54DE4F68837983AF
:101B90008A839B83C35BD140CD54DE4F888199817A
:101BA000AA81BB81C35BD140F80180839183A2836A
:101BB000B383CE018B579F4F20E030E040E85FE3D6
:101BC000DC016D917D918D919C910E9480188823FC
:101BD0004CF4CE0187579F4F21E030E0FC01318368
:101BE0002083A5C0CE018B579F4F20E03FEF4FE7EA
:101BF00057E4DC016D917D918D919C910E94661955
:101C0000882309F00CF475C0CE018F579F4F20E058
:101C100030E040E251E4FC01608171818281938176
:101C20000E946B19C954DE4F688379838A839B8332
:101C3000C75BD140C954DE4F88819981AA81BB819D
:101C4000C75BD140C95FDE4F88839983AA83BB837A
:101C5000C750D1408E0107571F4FC95FDE4F6881C3
:101C600079818A819B81C750D1400E948518C554D3
:101C7000DE4F688379838A839B83CB5BD140C554D5
:101C8000DE4FE881F981CB5BD140D8011196FC93FE
:101C9000EE9326C0CE0185579F4F20E931E0DC014D
:101CA0002D933C93CE0185579F4FFC0180819181FC
:101CB0000197F1F79E0125573F4FD9018D939C93D2
:101CC0000000CE0187579F4F9E0127573F4FF901D4
:101CD0002081318121503109DC0111963C932E93F2
:101CE000CE0187579F4FFC0180819181009791F62B
:101CF0003AC08E0107571F4FCE018B579F4FDC0113
:101D00006D917D918D919C910E948518C154DE4FFB
:101D1000688379838A839B83CF5BD140C154DE4F34
:101D200088819981CF5BD140F80191838083CE0176
:101D300083579F4F9E0127573F4FD9012D913C91CB
:101D4000FC0131832083CE0183579F4FDC018D91AD
:101D50009C9111970197F1F79E0123573F4FF9018D
:101D600091838083000089E090E09A838983EDC6A7
:101D700080E290E0DC018C91882F90E080729927BE
:101D8000009709F013C19E0121573F4F80E090E07A
:101D9000A0EAB1E4F90180839183A283B3838E0129
:101DA0000D561F4FCE0181579F4F20E030E04AE78C
:101DB00055E4DC016D917D918D919C910E946B1990
:101DC000CD53DE4F688379838A839B83C35CD14084
:101DD000CD53DE4F88819981AA81BB81C35CD140FC
:101DE000F80180839183A283B383CE018D569F4FE8
:101DF00020E030E040E85FE3DC016D917D918D9162
:101E00009C910E94801888234CF4CE0189569F4FE4
:101E100021E030E0FC0131832083A5C0CE018D5646
:101E20009F4F20E03FEF4FE757E4DC016D917D913C
:101E30008D919C910E946619882309F00CF475C05D
:101E4000CE0181579F4F20E030E040E251E4FC0199
:101E500060817181828193810E946B19C953DE4F29
:101E6000688379838A839B83C75CD140C953DE4FE3
:101E700088819981AA81BB81C75CD140C55FDE4F53
:101E800088839983AA83BB83CB50D1408E010956A6
:101E90001F4FC55FDE4F688179818A819B81CB505E
:101EA000D1400E948518C553DE4F688379838A83A9
:101EB0009B83CB5CD140C553DE4FE881F981CB5C7D
:101EC000D140D8011196FC93EE9326C0CE018756DF
:101ED0009F4F20E931E0DC012D933C93CE018756E2
:101EE0009F4FFC01808191810197F1F79E01275658
:101EF0003F4FD9018D939C930000CE0189569F4F8F
:101F00009E0129563F4FF90120813181215031092D
:101F1000DC0111963C932E93CE0189569F4FFC0114
:101F200080819181009791F639C08E0109561F4F2B
:101F3000CE018D569F4FDC016D917D918D919C91CD
:101F40000E948518C153DE4F688379838A839B83FF
:101F5000CF5CD140C153DE4F88819981CF5CD140A5
:101F6000F80191838083CE0185569F4F9E012956AB
:101F70003F4FD9012D913C91FC0131832083CE014B
:101F800085569F4FDC018D919C910197F1F79E0141
:101F900025563F4FF90191838083000080E00E9425
:101FA000C3028BE090E09A838983D3C58AEB0E94B9
:101FB000C302CFC58EEC0E940A178EEC0E9449170F
:101FC0008DE090E09A838983C4C580E290E0DC01D3
:101FD0008C91882F90E081709927009709F013C1A8
:101FE0009E0123563F4F80E090E0A0EAB1E4F90162
:101FF00080839183A283B3838E010F551F4FCE013F
:1020000083569F4F20E030E04AE755E4DC016D91B4
:102010007D918D919C910E946B19CD52DE4F68830A
:1020200079838A839B83C35DD140CD52DE4F888103
:102030009981AA81BB81C35DD140F80180839183DE
:10204000A283B383CE018F559F4F20E030E040E85C
:102050005FE3DC016D917D918D919C910E948018D0
:1020600088234CF4CE018B559F4F21E030E0FC01DA
:1020700031832083A5C0CE018F559F4F20E03FEFD5
:102080004FE757E4DC016D917D918D919C910E9409
:102090006619882309F00CF475C0CE0183569F4F52
:1020A00020E030E040E251E4FC01608171818281F6
:1020B00093810E946B19C952DE4F688379838A83AA
:1020C0009B83C75DD140C952DE4F88819981AA8127
:1020D000BB81C75DD140C15FDE4F88839983AA83EE
:1020E000BB83CF50D1408E010B551F4FC15FDE4FD8
:1020F000688179818A819B81CF50D1400E94851867
:10210000C552DE4F688379838A839B83CB5DD14040
:10211000C552DE4FE881F981CB5DD140D8011196DF
:10212000FC93EE9326C0CE0189559F4F20E931E004
:10213000DC012D933C93CE0189559F4FFC0180819A
:1021400091810197F1F79E0129553F4FD9018D9358
:102150009C930000CE018B559F4F9E012B553F4F06
:10216000F9012081318121503109DC0111963C9324
:102170002E93CE018B559F4FFC018081918100975A
:1021800091F639C08E010B551F4FCE018F559F4FD1
:10219000DC016D917D918D919C910E948518C152B9
:1021A000DE4F688379838A839B83CF5DD140C152A0
:1021B000DE4F88819981CF5DD140F8019183808382
:1021C000CE0187559F4F9E012B553F4FD9012D9131
:1021D0003C91FC0131832083CE0187559F4FDC0168
:1021E0008D919C910197F1F79E0127553F4FF90181
:1021F00091838083000080E00E94C30282E090E02F
:102200009A838983A6C48AEB0E94C302A2C480E297
:1022100090E0DC018C91882F90E0807299270097E4
:1022200009F013C19E0125553F4F80E090E0A0EAE0
:10223000B1E4F90180839183A283B3838E010155B8
:102240001F4FCE0185559F4F20E030E04AE755E40F
:10225000DC016D917D918D919C910E946B19CD5106
:10226000DE4F688379838A839B83C35ED140CD51DF
:10227000DE4F88819981AA81BB81C35ED140F8017C
:1022800080839183A283B383CE0181559F4F20E049
:1022900030E040E85FE3DC016D917D918D919C9190
:1022A0000E94801888234CF4CE018D549F4F21E06A
:1022B00030E0FC0131832083A5C0CE0181559F4FC2
:1022C00020E03FEF4FE757E4DC016D917D918D9168
:1022D0009C910E946619882309F00CF475C0CE0108
:1022E00085559F4F20E030E040E251E4FC016081E1
:1022F0007181828193810E946B19C951DE4F68837D
:1023000079838A839B83C75ED140C951DE4F888120
:102310009981AA81BB81C75ED140CD5EDE4F8883A3
:102320009983AA83BB83C351D1408E010D541F4FA3
:10233000CD5EDE4F688179818A819B81C351D14016
:102340000E948518C551DE4F688379838A839B83F9
:10235000CB5ED140C551DE4FE881F981CB5ED140E3
:10236000D8011196FC93EE9326C0CE018B549F4F5B
:1023700020E931E0DC012D933C93CE018B549F4F3B
:10238000FC01808191810197F1F79E012B543F4F11
:10239000D9018D939C930000CE018D549F4F9E01D7
:1023A0002D543F4FF9012081318121503109DC0149
:1023B00011963C932E93CE018D549F4FFC0180814A
:1023C0009181009791F639C08E010D541F4FCE01B7
:1023D00081559F4FDC016D917D918D919C910E9463
:1023E0008518C151DE4F688379838A839B83CF5ED2
:1023F000D140C151DE4F88819981CF5ED140F80133
:1024000091838083CE0189549F4F9E012D543F4F6D
:10241000D9012D913C91FC0131832083CE01895457
:102420009F4FDC018D919C910197F1F79E012954FA
:102430003F4FF90191838083000080E00E94C30236
:1024400086E090E09A83898384C386E40E94C30275
:1024500080C382E30E940A1782E30E94491788E042
:1024600090E09A83898375C380E290E0DC018C91CF
:10247000882F90E082709927009709F013C19E0180
:1024800027543F4F80E090E0A0EAB1E4F901808357
:102490009183A283B3838E0103541F4FCE018754CF
:1024A0009F4F20E030E04AE755E4DC016D917D91DB
:1024B0008D919C910E946B19CD50DE4F688379837A
:1024C0008A839B83C35FD140CD50DE4F8881998141
:1024D000AA81BB81C35FD140F80180839183A2832D
:1024E000B383CE0183549F4F20E030E040E85FE3A8
:1024F000DC016D917D918D919C910E9480188823C3
:102500004CF4CE018F539F4F21E030E0FC0131832A
:102510002083A5C0CE0183549F4F20E03FEF4FE7BB
:1025200057E4DC016D917D918D919C910E9466191B
:10253000882309F00CF475C0CE0187549F4F20E02A
:1025400030E040E251E4FC0160817181828193813D
:102550000E946B19C950DE4F688379838A839B83FD
:10256000C75FD140C950DE4F88819981AA81BB8164
:10257000C75FD140C95EDE4F88839983AA83BB833E
:10258000C751D1408E010F531F4FC95EDE4F688186
:1025900079818A819B81C751D1400E948518C5509D
:1025A000DE4F688379838A839B83CB5FD140C5509C
:1025B000DE4FE881F981CB5FD140D8011196FC93C1
:1025C000EE9326C0CE018D539F4F20E931E0DC0110
:1025D0002D933C93CE018D539F4FFC0180819181BF
:1025E0000197F1F79E012D533F4FD9018D939C9395
:1025F0000000CE018F539F4F9E012F533F4FF90193
:102600002081318121503109DC0111963C932E93B8
:10261000CE018F539F4FFC0180819181009791F6ED
:1026200039C08E010F531F4FCE0183549F4FDC01E1
:102630006D917D918D919C910E948518C150DE4FC6
:10264000688379838A839B83CF5FD140C150DE4FFB
:1026500088819981CF5FD140F80191838083CE0139
:102660008B539F4F9E012F533F4FD9012D913C918A
:10267000FC0131832083CE018B539F4FDC018D9170
:102680009C910197F1F79E012B533F4FF9019183E4
:102690008083000080E00E94C3028AE090E09A8379
:1026A000898357C286E40E94C30253C28FE290E03E
:1026B000DC018C91882F90E080729927009709F0B7
:1026C00047C29E0129533F4F80E090E0A0EAB1E469
:1026D000F90180839183A283B3838E0105531F4F39
:1026E000CE0189539F4F20E030E04AE755E4DC01FA
:1026F0006D917D918D919C910E946B19CD5FDD4F05
:10270000688379838A839B83C350D240CD5FDD4F3A
:1027100088819981AA81BB81C350D240F80180830E
:102720009183A283B383CE0185539F4F20E030E095
:1027300040E85FE3DC016D917D918D919C910E9459
:10274000801888234CF4CE0181539F4F21E030E064
:10275000FC0131832083A5C0CE0185539F4F20E02B
:102760003FEF4FE757E4DC016D917D918D919C9196
:102770000E946619882309F00CF475C0CE018953B4
:102780009F4F20E030E040E251E4FC016081718124
:10279000828193810E946B19C95FDD4F68837983C1
:1027A0008A839B83C750D240C95FDD4F888199815E
:1027B000AA81BB81C750D240C55EDE4F8883998312
:1027C000AA83BB83CB51D1408E0101531F4FC55EFD
:1027D000DE4F688179818A819B81CB51D1400E94F3
:1027E0008518C55FDD4F688379838A839B83CB50CF
:1027F000D240C55FDD4FE881F981CB50D240D8018E
:102800001196FC93EE9326C0CE018F529F4F20E984
:1028100031E0DC012D933C93CE018F529F4FFC01A0
:10282000808191810197F1F79E012F523F4FD9018D
:102830008D939C930000CE0181539F4F9E012153A5
:102840003F4FF9012081318121503109DC0111967E
:102850003C932E93CE0181539F4FFC018081918147
:10286000009791F63AC08E0101531F4FCE01855358
:102870009F4FDC016D917D918D919C910E948518F7
:10288000C15FDD4F688379838A839B83CF50D240B9
:10289000C15FDD4F88819981CF50D240F80191838B
:1028A0008083CE018D529F4F9E0121533F4FD9010E
:1028B0002D913C91FC0131832083CE018D529F4F9D
:1028C000DC018D919C9111970197F1F79E012D529A
:1028D0003F4FF9019183808300008CE090E09A8360
:1028E000898336C180E290E0DC018C91882F90E0F2
:1028F00081709927009709F013C19E012B523F4F19
:1029000080E090E0A0EAB1E4F90180839183A283A2
:10291000B3838E0107521F4FCE018B529F4F20E091
:1029200030E04AE755E4DC016D917D918D919C91F9
:102930000E946B19CD5EDD4F688379838A839B8308
:10294000C351D240CD5EDD4F88819981AA81BB8180
:10295000C351D240F80180839183A283B383CE0117
:1029600087529F4F20E030E040E85FE3DC016D914B
:102970007D918D919C910E94801888234CF4CE010A
:1029800083529F4F21E030E0FC0131832083A5C0BA
:10299000CE0187529F4F20E03FEF4FE757E4DC0125
:1029A0006D917D918D919C910E946619882309F00B
:1029B0000CF475C0CE018B529F4F20E030E040E216
:1029C00051E4FC0160817181828193810E946B19C5
:1029D000C95EDD4F688379838A839B83C751D24068
:1029E000C95EDD4F88819981AA81BB81C751D240E0
:1029F000C15EDE4F88839983AA83BB83CF51D140C8
:102A00008E0103521F4FC15EDE4F688179818A813A
:102A10009B81CF51D1400E948518C55EDD4F6883F0
:102A200079838A839B83CB51D240C55EDD4FE88199
:102A3000F981CB51D240D8011196FC93EE9326C078
:102A4000CE0181529F4F20E931E0DC012D933C9370
:102A5000CE0181529F4FFC01808191810197F1F756
:102A60009E0121523F4FD9018D939C930000CE01CE
:102A700083529F4F9E0123523F4FF90120813181A4
:102A800021503109DC0111963C932E93CE018352E3
:102A90009F4FFC0180819181009791F639C08E0192
:102AA00003521F4FCE0187529F4FDC016D917D91E4
:102AB0008D919C910E948518C15EDD4F688379835A
:102AC0008A839B83CF51D240C15EDD4F888199813B
:102AD000CF51D240F80191838083CE018F519F4F17
:102AE0009E0123523F4FD9012D913C91FC0131832E
:102AF0002083CE018F519F4FDC018D919C910197D6
:102B0000F1F79E012F513F4FF9019183808300001F
:102B100080E00E94C3028EE090E09A83898319C00E
:102B20008AEB0E94C30215C08EEC0E940A178EEC3D
:102B30000E94491782E090E09A8389830AC00000CE
:102B40000C94890400000C94890400000C948904FE
:102B500000000C9489041F920F920FB60F9211245B
:102B60000BB60F922F938F939F93EF93FF93CF9377
:102B7000DF93CDB7DEB788E091E0FC01208188E0EB
:102B800091E02068FC01208388E091E0FC01208135
:102B900088E091E02F7BFC012083809102029091DC
:102BA0000302019690930302809302020000DF91DA
:102BB000CF91FF91EF919F918F912F910F900BBE2D
:102BC0000F900FBE0F901F9018951F920F920FB687
:102BD0000F9211240BB60F922F938F939F93EF9325
:102BE000FF93CF93DF93CDB7DEB78BE290E0FC018C
:102BF00020818BE290E02160FC0120838091000223
:102C000090910102019690930102809300020000CE
:102C1000DF91CF91FF91EF919F918F912F910F9025
:102C20000BBE0F900FBE0F901F9018951F920F9222
:102C30000FB60F9211240BB60F922F933F938F93E1
:102C40009F93EF93FF93CF93DF93CDB7DEB784E2EB
:102C500091E020E137E2FC013183208388E091E0BC
:102C6000FC01208188E091E02064FC01208388E061
:102C700091E0FC01208188E091E02F77FC01208326
:102C80008BE290E0FC0120818BE290E02E7FFC0142
:102C900020830000DF91CF91FF91EF919F918F9161
:102CA0003F912F910F900BBE0F900FBE0F901F9072
:102CB00018951F920F920FB60F9200905B000F9223
:102CC00011248F939F93AF93BF93EF93FF93DF9361
:102CD000CF93CDB7DEB7E4E8F0E084E294E69183E9
:102CE0008083AEE2B0E0EEE2F0E0808188608C9319
:102CF000A2E0B1E0E2E0F1E0808188608C93CF91C6
:102D0000DF91FF91EF91BF91AF919F918F910F90C4
:102D100000925B000F900FBE0F901F9018951F92AE
:102D20000F920FB60F9200905B000F9211248F93B9
:102D3000AF93BF93EF93FF93DF93CF93CDB7DEB7FE
:102D4000AEE2B0E0EEE2F0E08081877F8C93CF913D
:102D5000DF91FF91EF91BF91AF918F910F90009212
:102D60005B000F900FBE0F901F9018951F920F924F
:102D70000FB60F9200905B000F9211248F93AF93C8
:102D8000BF93EF93FF93DF93CF93CDB7DEB7A2E06E
:102D9000B1E0E2E0F1E08081877F8C93CF91DF9119
:102DA000FF91EF91BF91AF918F910F9000925B00D7
:102DB0000F900FBE0F901F901895DF93CF93CDB754
:102DC000DEB7ADE2B0E0EDE2F0E0808188608C93A8
:102DD000A1E0B1E0E1E0F1E0808188608C93E0E87F
:102DE000F0E01082E1E8F0E082E08083EFE6F0E0DE
:102DF00087E08083E4E8F0E084E294E691838083D6
:102E000080E00E940A1780E00E9449177894CF91D1
:102E1000DF9108950F931F93DF93CF930F92CDB758
:102E2000DEB7898389818C3974F1898185365CF5B7
:102E300008E810E08981992787FD9095A92FB92F7F
:102E4000BC01CD010E94B618DC01CB01BC01CD0153
:102E500020E030E040E251E40E946B19DC01CB013C
:102E6000BC01CD0120E038EB4FED56E40E94141870
:102E7000DC01CB01BC01CD010E948518DC01CB0136
:102E8000F801918380830F90CF91DF911F910F9173
:102E900008950F931F93DF93CF930F92CDB7DEB7B3
:102EA000898389818C3974F1898185365CF50AE8DA
:102EB00010E08981992787FD9095A92FB92FBC0132
:102EC000CD010E94B618DC01CB01BC01CD0120E090
:102ED00030E040E251E40E946B19DC01CB01BC01FF
:102EE000CD0120E038EB4FED56E40E941418DC01D0
:102EF000CB01BC01CD010E948518DC01CB01F8019A
:102F0000918380830F90CF91DF911F910F9108954E
:102F100097FB072E16F4009407D077FD09D00E9486
:102F2000CE1707FC05D03EF4909581959F4F0895EC
:102F3000709561957F4F0895052E97FB1EF40094C0
:102F40000E94B31757FD07D00E94E21707FC03D079
:102F50004EF40C94B31750954095309521953F4F02
:102F60004F4F5F4F089590958095709561957F4F75
:102F70008F4F9F4F0895EE0FFF1F881F8BBF079045
:102F8000F691E02D19940E940418A59F900DB49F0E
:102F9000900DA49F800D911D11240895AA1BBB1BA9
:102FA00051E107C0AA1FBB1FA617B70710F0A61B49
:102FB000B70B881F991F5A95A9F780959095BC016A
:102FC000CD010895A1E21A2EAA1BBB1BFD010DC065
:102FD000AA1FBB1FEE1FFF1FA217B307E407F507C9
:102FE00020F0A21BB30BE40BF50B661F771F881FA5
:102FF000991F1A9469F760957095809590959B013B
:10300000AC01BD01CF010895A29FB001B39FC001E3
:10301000A39F700D811D1124911DB29F700D811D04
:103020001124911D08955058BB27AA270E942B18E0
:103030000C942C190E941E1938F00E94251920F0BA
:1030400039F49F3F19F426F40C941B190EF4E09503
:10305000E7FB0C941519E92F0E943D1958F3BA1794
:10306000620773078407950720F079F4A6F50C949E
:103070005F190EF4E0950B2EBA2FA02D0B01B901AC
:1030800090010C01CA01A0011124FF27591B99F0DE
:10309000593F50F4503E68F11A16F040A22F232FEA
:1030A000342F4427585FF3CF469537952795A7953A
:1030B000F0405395C9F77EF41F16BA0B620B730BE1
:1030C000840BBAF09150A1F0FF0FBB1F661F771F52
:1030D000881FC2F70EC0BA0F621F731F841F48F407
:1030E000879577956795B795F7959E3F08F0B0CF90
:1030F0009395880F08F09927EE0F97958795089577
:103100000E94F11808F481E008950E94451988F0A2
:103110009F5798F0B92F9927B751B0F0E1F0660F9B
:10312000771F881F991F1AF0BA95C9F714C0B130DC
:1031300091F00E945F19B1E008950C945F19672F18
:10314000782F8827B85F39F0B93FCCF3869577950B
:103150006795B395D9F73EF49095809570956195F4
:103160007F4F8F4F9F4F0895E89409C097FB3EF41F
:1031700090958095709561957F4F8F4F9F4F9923C4
:10318000A9F0F92F96E9BB279395F6958795779542
:103190006795B795F111F8CFFAF4BB0F11F460FF02
:1031A0001BC06F5F7F4F8F4F9F4F16C0882311F05A
:1031B00096E911C0772321F09EE8872F762F05C06E
:1031C000662371F096E8862F70E060E02AF09A9509
:1031D000660F771F881FDAF7880F9695879597F9FE
:1031E0000895990F0008550FAA0BE0E8FEEF161698
:1031F0001706E807F907C0F012161306E407F507EB
:1032000098F0621B730B840B950B39F40A2661F05E
:10321000232B242B252B21F408950A2609F4A14001
:10322000A6958FEF811D811D089597F99F6780E80E
:1032300070E060E008959FEF80EC089500240A9408
:103240001616170618060906089500240A94121681
:103250001306140605060895092E0394000C11F4B4
:10326000882352F0BB0F40F4BF2B11F460FF04C061
:103270006F5F7F4F8F4F9F4F089557FD9058440FBA
:10328000551F59F05F3F71F04795880F97FB991FC5
:1032900061F09F3F79F08795089512161306140682
:1032A000551FF2CF4695F1DF08C01616170618060F
:1032B000991FF1CF86957105610508940895E894EA
:1032C000BB2766277727CB0197F908950E94F1184D
:1032D00008F48FEF08950E947E190C942C190E9417
:1032E0001E1938F00E94251920F0952311F00C9436
:1032F00015190C941B1911240C9460190E943D1986
:1033000070F3959FC1F3950F50E0551F629FF00138
:10331000729FBB27F00DB11D639FAA27F00DB11D51
:10332000AA1F649F6627B00DA11D661F829F2227DA
:10333000B00DA11D621F739FB00DA11D621F839F61
:10334000A00D611D221F749F3327A00D611D231F37
:10335000849F600D211D822F762F6A2F11249F5785
:1033600050409AF0F1F088234AF0EE0FFF1FBB1F88
:10337000661F771F881F91505040A9F79E3F510547
:1033800080F00C9415190C9460195F3FE4F3983E9B
:10339000D4F3869577956795B795F795E7959F5FF1
:1033A000C1F7FE2B880F911D9695879597F9089583
:1033B000F894FFCF670608092B0A680C0711740CF4
:1033C00029129B0D3412B80E5613DA0F7214E50F42
:0233D000941552
:00000001FF
