:100000000C948C000C94AD000C94AD000C94AD00DD
:100010000C94AD000C94AD000C94AD000C94AD00AC
:100020000C94AD000C94AD000C94AD000C94AD009C
:100030000C94AD000C94AD000C94AD000C94AD008C
:100040000C94AD000C94AD000C94AD000C94AD007C
:100050000C94AD000C9491010C94EF010C94AF0042
:100060000C94AD000C9491030C94AD000C94AD0075
:100070000C94AD000C94AD000C94AD000C94AD004C
:100080000C94BF010C941D020C94AD000C941E0145
:100090000C94AD000C94AD000C94AD000C94AD002C
:1000A0000C94AD000C94AD000C9452200C947A206A
:1000B0000C94AD000C9418200C94AD000C94731F9C
:1000C0000C94A41F0C94AD000C94D51F0C94AD009F
:1000D0000C94AD000C94AD000C94AD000C94AD00EC
:1000E0000C94AD000C94D8150C9460190C948F1AD4
:1000F0000C945C120C94C11B0C94F11C0C94091709
:100100000C9415100C949B140C944F0E0C943C0FF3
:100110000C941D1E0C945A0D11241FBECFEFD1E27A
:10012000DEBFCDBF00E00CBF12E0A0E0B2E0E2E233
:10013000F9E400E00BBF02C007900D92A039B107AF
:10014000D9F722E0A0E9B2E001C01D92A439B207BC
:10015000E1F70E94390C0C9482240C9400001F9249
:100160000F920FB60F9211240BB60F922F938F930D
:100170009F93EF93FF93CF93DF93CDB7DEB787E4E1
:1001800090E0FC0180818823C9F488E490E0FC01C0
:100190008081882399F48EE290E0FC0120818EE238
:1001A00090E02F7EFC0120838EE290E0FC01208114
:1001B0008EE290E02F7DFC01208331C087E490E047
:1001C000FC018081882399F08EE290E0FC0120817F
:1001D0008EE290E02F7DFC0120838EE290E0FC0116
:1001E00020818EE290E02061FC01208318C088E429
:1001F00090E0FC018081882391F08EE290E0FC0188
:1002000020818EE290E02F7EFC0120838EE290E040
:10021000FC0120818EE290E02062FC01208300003E
:10022000DF91CF91FF91EF919F918F912F910F903F
:100230000BBE0F900FBE0F901F9018951F920F923C
:100240000FB60F9211240BB60F922F938F939F939B
:10025000EF93FF93CF93DF93CDB7DEB788E990E0BC
:10026000FC01808191810097D1F48AE990E0FC0142
:1002700080819181009799F484E390E0FC012081D2
:1002800084E390E02F7DFC0120838EE290E0FC016E
:1002900020818EE290E0277FFC01208333C088E933
:1002A00090E0FC0180819181009799F08EE290E0CE
:1002B000FC0120818EE290E0277FFC01208384E313
:1002C00090E0FC01208184E390E02062FC01208327
:1002D00019C08AE990E0FC0180819181009791F03A
:1002E00084E390E0FC01208184E390E02F7DFC0119
:1002F00020838EE290E0FC0120818EE290E0286075
:10030000FC0120830000DF91CF91FF91EF919F913D
:100310008F912F910F900BBE0F900FBE0F901F90DB
:1003200018951F920F920FB60F9211240BB60F92D1
:100330002F938F939F93EF93FF93CF93DF93CDB73B
:10034000DEB787E490E0FC0180818F3F49F08EE2C8
:1003500090E0FC0120818EE290E02F7EFC01208362
:100360000000DF91CF91FF91EF919F918F912F919D
:100370000F900BBE0F900FBE0F901F9018951F92FD
:100380000F920FB60F9211240BB60F922F938F93EB
:100390009F93EF93FF93CF93DF93CDB7DEB788E9B9
:1003A00090E0FC01808191818F3F980749F084E3C0
:1003B00090E0FC01208184E390E02F7DFC0120830C
:1003C0000000DF91CF91FF91EF919F918F912F913D
:1003D0000F900BBE0F900FBE0F901F9018951F929D
:1003E0000F920FB60F9211240BB60F922F938F938B
:1003F0009F93EF93FF93CF93DF93CDB7DEB788E45E
:1004000090E0FC0180818F3F49F08EE290E0FC019A
:1004100020818EE290E02F7DFC0120830000DF919F
:10042000CF91FF91EF919F918F912F910F900BBEE4
:100430000F900FBE0F901F9018951F920F920FB63E
:100440000F9211240BB60F922F938F939F93EF93DC
:10045000FF93CF93DF93CDB7DEB78AE990E0FC013D
:10046000808191818F3F980749F08EE290E0FC01F6
:1004700020818EE290E0277FFC0120830000DF9145
:10048000CF91FF91EF919F918F912F910F900BBE84
:100490000F900FBE0F901F901895CF93DF93CDB79D
:1004A000DEB78DE290E0FC0120818DE290E02061DA
:1004B000FC0120838DE290E0FC0120818DE290E040
:1004C0002062FC01208383E390E0FC01208183E330
:1004D00090E02062FC0120838DE290E0FC0120810D
:1004E0008DE290E02860FC0120838EE290E0FC0128
:1004F00020818EE290E02F7EFC0120838EE290E04E
:10050000FC0120818EE290E02F7DFC01208384E3BA
:1005100090E0FC01208184E390E02F7DFC012083AA
:100520008EE290E0FC0120818EE290E0277FFC01CA
:10053000208384E490E0FC01108285E490E023E0D5
:10054000FC01208387E490E0FC01108288E490E0C5
:10055000FC0110828EE690E027E0FC01208380E918
:1005600090E0FC01108281E990E021E0FC01208311
:1005700088E990E0FC01118210828AE990E0FC0198
:100580001182108281E790E027E0FC0120837894BB
:100590000000DF91CF910895CF93DF930F92CDB7F5
:1005A000DEB7898389818C39E4F18981843609F049
:1005B000C4F589818823DCF088E490E0FC01108296
:1005C0008981082E000C990B2FEF289FA001299FED
:1005D000500D112424E630E0CA01B9010E94C02167
:1005E000CB019C0187E490E0FC0120831AC087E4E2
:1005F00090E0FC0110828981082E000C990B2FEFEE
:10060000289FA001299F500D11242CE93FEFCA011A
:10061000B9010E94C021CB019C0188E490E0FC015B
:10062000208300000F90DF91CF9108950F931F93C7
:10063000CF93DF9300D000D000D0CDB7DEB7898351
:1006400089818C390CF461C08981843611F00CF0F9
:100650005CC0898188236CF18AE990E0FC011182F9
:1006600010828981482F880F550B660B770B8FEF0F
:100670009FEFDC019A01AB010E94FB216A837B831F
:100680008C839D8304E610E020E030E06A817B816A
:100690008C819D81A90198010E94D421DA01C901B0
:1006A000AC01BD0188E990E09A01FC01318320830F
:1006B0002CC088E990E0FC01118210828981482FCA
:1006C000880F550B660B770B8FEF9FEFDC019A01BC
:1006D000AB010E94FB216E837F83888799870CE999
:1006E0001FEF2FEF3FEF6E817F8188859985A901EC
:1006F00098010E94D421DA01C901AC01BD018AE947
:1007000090E09A01FC0131832083000029960FB606
:10071000F894DEBF0FBECDBFDF91CF911F910F9137
:1007200008951F920F920FB60F9211240BB60F92DD
:100730008F939F93EF93FF93CF93DF93CDB7DEB764
:1007400086EC90E0FC018081882F90E090939102EC
:10075000809390020000DF91CF91FF91EF919F91E4
:100760008F910F900BBE0F900FBE0F901F9018959A
:10077000CF93DF930F92CDB7DEB789838981813024
:1007800051F483E790E0FC01208183E790E024604E
:10079000FC01208314C08981882389F423E730E099
:1007A00083E790E0F9012081FC0120838BE290E057
:1007B000FC0120818BE290E02E7FFC012083000071
:1007C0000F90DF91CF910895CF93DF930F92CDB724
:1007D000DEB789838981813031F483E790E023E0BB
:1007E000FC01208310C08981882369F483E790E0AD
:1007F000FC01108288E091E0FC01208188E091E01A
:100800002F73FC01208300000F90DF91CF9108959A
:10081000CF93DF930F92CDB7DEB789838981813083
:1008200041F484E690E00E94D8208CE99FEF0E947A
:100830004C218981882341F48CE99FEF0E94D820C4
:1008400084E690E00E944C2100000F90DF91CF9150
:100850000895CF93DF93CDB7DEB780E291E0FC013E
:10086000108281E291E024E0FC01208384E291E0A7
:1008700020E137E2FC013183208388E291E028EB1C
:1008800038E8FC01318320838AE291E020E533ECF3
:10089000FC013183208383E790E027E0FC01208383
:1008A0000000DF91CF910895CF93DF93CDB7DEB7EE
:1008B00087E091E0FC01208187E091E0206CFC0161
:1008C000208388E091E0FC01208188E091E02F7393
:1008D000FC0120838AE290E0FC0120818AE290E022
:1008E0002160FC0120838BE290E0FC0120818BE2FF
:1008F00090E02E7FFC01208380E390E0FC012081CA
:1009000080E390E02068FC01208381E390E0FC011B
:10091000208181E390E02068FC01208381E390E066
:10092000FC01208181E390E02F61FC01208380E3C2
:1009300090E0FC01208180E390E02F61FC012083A6
:1009400082E290E0FC01208182E290E02270FC01D2
:10095000208382E290E0FC01208182E290E0287016
:10096000FC01208382E290E0FC01208182E290E0A1
:100970002072FC0120830000DF91CF9108950F9336
:100980001F93CF93DF93CDB7DEB7C25BD1090FB60C
:10099000F894DEBF0FBECDBF8AE290E0DC012C915F
:1009A0008AE290E02760FC0120839E012F5B3F4F8D
:1009B00080E090E0A0E7B1E4F90180839183A28315
:1009C000B3838E010B5B1F4FCE018F5B9F4F20E0E7
:1009D00030E04AE755E4DC016D917D918D919C9169
:1009E0000E9415246F966CAF7DAF8EAF9FAF6F974F
:1009F0006F968CAD9DADAEADBFAD6F97F8018083A6
:100A00009183A283B383CE018B5B9F4F20E030E0C4
:100A100040E85FE3DC016D917D918D919C910E9496
:100A2000B82288234CF4CE01875B9F4F21E030E051
:100A3000FC013183208395C0CE018B5B9F4F20E06A
:100A40003FEF4FE757E4DC016D917D918D919C91D3
:100A50000E941024882309F00CF469C0CE018F5B3A
:100A60009F4F20E030E040E251E4FC016081718161
:100A7000828193810E941524A3966CAF7DAF8EAFC7
:100A80009FAFA397A3968CAD9DADAEADBFADA39721
:100A90006B968CAF9DAFAEAFBFAF6B978E01075B10
:100AA0001F4F6B966CAD7DAD8EAD9FAD6B970E9469
:100AB0002F23A7966CAF7DAF8EAF9FAFA797A5965C
:100AC000EEADFFADA597D8011196FC93EE9326C02D
:100AD000CE01855B9F4F20E931E0DC012D933C93F3
:100AE000CE01855B9F4FFC01808191810197F1F7D9
:100AF0009E01255B3F4FD9018D939C930000CE0151
:100B0000875B9F4F9E01275B3F4FF9012081318119
:100B100021503109DC0111963C932E93CE01875B65
:100B20009F4FFC0180819181009791F635C08E0125
:100B3000075B1F4FCE018B5B9F4FDC016D917D9159
:100B40008D919C910E942F23AB966CAF7DAF8EAFA1
:100B50009FAFAB97A9968EAD9FADA997F8019183F2
:100B60008083CE01835B9F4F9E01275B3F4FD9015E
:100B70002D913C91FC0131832083CE01835B9F4FFB
:100B8000DC018D919C910197F1F79E01235B3F4F12
:100B9000F9019183808300000E94800B88E30E940A
:100BA0005E0A80E090E0A8E4B2E489A39AA3ABA334
:100BB000BCA32BEA3AEA4AEA50E469A17AA18BA1E4
:100BC0009CA10E941524AF966CAF7DAF8EAF9FAFF6
:100BD000AF97AF968CAD9DADAEADBFADAF978DA3CA
:100BE0009EA3AFA3B8A720E030E040E850E469A19D
:100BF0007AA18BA19CA10E941524E3966CAF7DAFD6
:100C00008EAF9FAFE397E3968CAD9DADAEADBFAD1C
:100C1000E39789A79AA7ABA7BCA720E030E040E8FC
:100C20005FE36DA17EA18FA198A50E94B8228823C1
:100C30001CF481E08DA70FC120E03FEF4FE757E4A0
:100C400069A57AA58BA59CA50E941024882309F08C
:100C50000CF4BEC020E030E04AE754E469A17AA178
:100C60008BA19CA10E94BD22E7966CAF7DAF8EAF99
:100C70009FAFE797E7968CAD9DADAEADBFADE79763
:100C80008EA79FA7A8ABB9AB20E030E04AE755E4B8
:100C90006EA57FA588A999A90E941524EB966CAF33
:100CA0007DAF8EAF9FAFEB97EB968CAD9DADAEADAC
:100CB000BFADEB978AAB9BABACABBDAB20E030E0FC
:100CC00040E85FE36AA97BA98CA99DA90E94B8228C
:100CD00088232CF481E090E09FAB8EAB6EC020E0C7
:100CE0003FEF4FE757E46AA97BA98CA99DA90E9411
:100CF0001024882309F00CF44AC020E030E040E2E0
:100D000051E46EA57FA588A999A90E941524EF96A4
:100D10006CAF7DAF8EAF9FAFEF97EF968CAD9DAD73
:100D2000AEADBFADEF9767968CAF9DAFAEAFBFAF27
:100D3000679767966CAD7DAD8EAD9FAD67970E944E
:100D40002F23C158DF4F688379838A839B83CF57D2
:100D5000D040C158DF4FA881B981CF57D040BFAB39
:100D6000AEAB10C080E991E099AF88AF88AD99AD86
:100D70000197F1F799AF88AF00008EA99FA901975D
:100D80009FAB8EAB8EA99FA9009761F764C06AA93B
:100D90007BA98CA99DA90E942F23CD57DF4F688383
:100DA00079838A839B83C358D040CD57DF4FE88136
:100DB000F981C358D040FFABEEAB8EA99FA99BAF82
:100DC0008AAF8AAD9BAD0197F1F79BAF8AAF43C065
:100DD00020E030E04FE753E46DA17EA18FA198A5FC
:100DE0000E941024882319F114F169A57AA58BA516
:100DF0009CA50E942F23C957DF4F688379838A837C
:100E00009B83C758D040C957DF4F88819981C75805
:100E1000D0409DAF8CAF8CAD9DAD9FAF8EAF8EADF2
:100E20009FAD0197F1F79FAF8EAF000028C06DA175
:100E30007EA18FA198A50E942F23C557DF4F6883FD
:100E400079838A839B83CB58D040C557DF4F9881E5
:100E5000CB58D0409DA72DA5CE01805C9F4FDC01D3
:100E60002C93CE01805C9F4FFC018081282F2A9516
:100E7000F1F7CE01805C9F4FDC012C9300008CE0E9
:100E80000E945E0A80E090E0A8E4B2E489839A833D
:100E9000AB83BC832BEA3AEA4AEA50E469817A815F
:100EA0008B819C810E941524C157DF4F6883798311
:100EB0008A839B83CF58D040C157DF4F8881998167
:100EC000AA81BB81CF58D0408D839E83AF83B887E2
:100ED00020E030E040E850E469817A818B819C8198
:100EE0000E941524CD56DF4F688379838A839B83C4
:100EF000C359D040CD56DF4F88819981AA81BB81EB
:100F0000C359D04089879A87AB87BC8720E030E0FF
:100F100040E85FE36D817E818F8198850E94B822D1
:100F200088231CF481E08D871BC120E03FEF4FE751
:100F300057E469857A858B859C850E9410248823D7
:100F400009F00CF4CAC020E030E04AE754E46981BB
:100F50007A818B819C810E94BD22C956DF4F6883B4
:100F600079838A839B83C759D040C956DF4F8881D4
:100F70009981AA81BB81C759D0408E879F87A88B52
:100F8000B98B20E030E04AE755E46E857F8588899B
:100F900099890E941524C556DF4F688379838A8317
:100FA0009B83CB59D040C556DF4F88819981AA8158
:100FB000BB81CB59D0408A8B9B8BAC8BBD8B20E007
:100FC00030E040E85FE36A897B898C899D890E94D3
:100FD000B82288232CF481E090E09F8B8E8B72C026
:100FE00020E03FEF4FE757E46A897B898C899D8930
:100FF0000E941024882309F00CF44EC020E030E059
:1010000040E251E46E857F85888999890E94152484
:10101000C156DF4F688379838A839B83CF59D04041
:10102000C156DF4F88819981AA81BB81CF59D040B9
:1010300063968CAF9DAFAEAFBFAF639763966CAD59
:101040007DAD8EAD9FAD63970E942F23CD55DF4FB1
:10105000688379838A839B83C35AD040CD55DF4F01
:10106000A881B981C35AD040BF8BAE8B10C080E934
:1010700091E0998F888F888D998D0197F1F7998FDD
:10108000888F00008E899F8901979F8B8E8B8E8918
:101090009F89009761F764C06A897B898C899D89E3
:1010A0000E942F23C955DF4F688379838A839B83EE
:1010B000C75AD040C955DF4FE881F981C75AD0409F
:1010C000FF8BEE8B8E899F899B8F8A8F8A8D9B8D5C
:1010D0000197F1F79B8F8A8F43C020E030E04FE704
:1010E00053E46D817E818F8198850E94102488232E
:1010F00019F114F169857A858B859C850E942F23CF
:10110000C555DF4F688379838A839B83CB5AD04050
:10111000C555DF4F88819981CB5AD0409D8F8C8FE8
:101120008C8D9D8D9F8F8E8F8E8D9F8D0197F1F76A
:101130009F8F8E8F00001BC06D817E818F8198856F
:101140000E942F23C155DF4F688379838A839B8355
:10115000CF5AD040C155DF4F9881CF5AD0409D879C
:101160008D8588A388A18A95F1F788A3000085EC76
:1011700090E0DC011C9284EC90E027E6FC012083E7
:1011800081EC90E020E9DC012C9382EC90E026E0F9
:10119000FC01208378940000CE54DF4F0FB6F89402
:1011A000DEBF0FBECDBFDF91CF911F910F9108958C
:1011B000CF93DF93CDB7DEB787E290E0FC011082DA
:1011C0008BE290E0FC0120818BE290E02260FC0148
:1011D00020838BE290E0FC0120818BE290E02E7F67
:1011E000FC01208302C00E94040988E290E0FC0117
:1011F00080818823C4F387E290E02FEFFC012083F5
:101200000000DF91CF910895CF93DF93CDB7DEB784
:10121000C854D1090FB6F894DEBF0FBECDBF8BE224
:1012200090E0DC012C918BE290E02460FC012083B3
:1012300080E090E0A8E4B2E489839A83AB83BC8326
:101240002BEA3AEA4AEA50E469817A818B819C81EF
:101250000E9415246DA37EA38FA398A78DA19EA1A4
:10126000AFA1B8A58D839E83AF83B88720E030E01F
:1012700040E850E469817A818B819C810E94152429
:1012800069A77AA78BA79CA789A59AA5ABA5BCA59A
:1012900089879A87AB87BC8720E030E040E85FE32E
:1012A0006D817E818F8198850E94B82288231CF4ED
:1012B00081E08D87E8C020E03FEF4FE757E4698584
:1012C0007A858B859C850E941024882309F00CF474
:1012D0009FC020E030E04AE754E469817A818B8145
:1012E0009C810E94BD226DA77EA78FA798AB8DA57C
:1012F0009EA5AFA5B8A98E879F87A88BB98B20E044
:1013000030E04AE755E46E857F85888999890E9497
:10131000152469AB7AAB8BAB9CAB89A99AA9ABA915
:10132000BCA98A8B9B8BAC8BBD8B20E030E040E866
:101330005FE36A897B898C899D890E94B822882312
:101340002CF481E090E09F8B8E8B57C020E03FEF24
:101350004FE757E46A897B898C899D890E94102414
:101360008823D9F1D4F120E030E040E251E46E85E9
:101370007F85888999890E9415246DAB7EAB8FABE0
:1013800098AF8DA99EA9AFA9B8AD89A39AA3ABA325
:10139000BCA369A17AA18BA19CA10E942F2369AF54
:1013A0007AAF8BAF9CAFA9ADBAADBF8BAE8B10C07F
:1013B00080E991E0998F888F888D998D0197F1F759
:1013C000998F888F00008E899F8901979F8B8E8BC4
:1013D0008E899F89009761F756C06A897B898C89BD
:1013E0009D890E942F2321966CAF7DAF8EAF9FAF5A
:1013F0002197EDADFEADFF8BEE8B8E899F899B8F84
:101400008A8F8A8D9B8D0197F1F79B8F8A8F3BC0C6
:1014100020E030E04FE753E46D817E818F81988535
:101420000E9410248823F9F0F4F069857A858B8571
:101430009C850E942F2325966CAF7DAF8EAF9FAF0A
:10144000259723968EAD9FAD23979D8F8C8F8C8D86
:101450009D8D9F8F8E8F8E8D9F8D0197F1F79F8F22
:101460008E8F000017C06D817E818F8198850E94CC
:101470002F2329966CAF7DAF8EAF9FAF299726960D
:101480009FAD26979D878D8588A388A18A95F1F7C2
:1014900088A300008BE290E0DC012C918BE290E0CD
:1014A0002B7FFC0120830000C85BDF4F0FB6F89450
:1014B000DEBF0FBECDBFDF91CF910895CF93DF93F5
:1014C0000F92CDB7DEB789830E94D80888E290E0FA
:1014D0002981FC0120838BE290E0FC0120818BE2DA
:1014E00090E02C7FFC0120830E94040988E290E0B8
:1014F000FC01108200000F90DF91CF910895CF93EF
:10150000DF93CDB7DEB7A3970FB6F894DEBF0FBE5B
:10151000CDBF8F870E94D80888E290E02F85DC013C
:101520002C938BE290E0FC0120818BE290E02D7FF8
:10153000DC012C938BE290E0FC0120818BE290E0B7
:101540002160DC012C930E94040988E290E0FC01F8
:10155000108280E090E0A0E2B1E489839A83AB83BB
:10156000BC8320E030E04AE755E469817A818B81D1
:101570009C810E9415246C8B7D8B8E8B9F8B8C891C
:101580009D89AE89BF898D839E83AF83B88720E014
:1015900030E040E85FE36D817E818F8198850E9415
:1015A000B82288232CF481E090E09A87898755C07F
:1015B00020E03FEF4FE757E46D817E818F81988572
:1015C0000E9410248823D9F1D4F120E030E040E2D9
:1015D00051E469817A818B819C810E941524688FF6
:1015E000798F8A8F9B8F888D998DAA8DBB8D888BE3
:1015F000998BAA8BBB8B688979898A899B890E9480
:101600002F236C8F7D8F8E8F9F8FAC8DBD8DBA8772
:10161000A98710C080E991E09C878B878B859C858A
:101620000197F1F79C878B87000089859A85019740
:101630009A87898789859A85009761F719C06D8196
:101640007E818F8198850E942F2368A379A38AA326
:101650009BA3E8A1F9A1FA87E98789859A859E87E6
:101660008D878D859E850197F1F79E878D87000078
:101670000000A3960FB6F894DEBF0FBECDBFDF917A
:10168000CF910895CF93DF930F920F92CDB7DEB72E
:101690009A8389830BC089819A819C012F5F3F4F78
:1016A0003A832983FC0180810E947F0A89819A8183
:1016B000FC018081882309F074F7000000000F907E
:1016C0000F90DF91CF910895CF93DF930F920F92F8
:1016D000CDB7DEB789836A838A81882F90E001972E
:1016E00080509E4FFC018081982F8981890F8158FD
:1016F0000E945E0A00000F900F90DF91CF91089535
:10170000CF93DF93CDB7DEB7A2970FB6F894DEBFC5
:101710000FBECDBF81E00E945E0A80E090E0A0E0B5
:10172000B0E489839A83AB83BC8320E030E04AE74E
:1017300055E469817A818B819C810E9415246B8B91
:101740007C8B8D8B9E8B8B899C89AD89BE898D838B
:101750009E83AF83B88720E030E040E85FE36D818F
:101760007E818F8198850E94B82288232CF481E0A5
:1017700090E09A87898755C020E03FEF4FE757E414
:101780006D817E818F8198850E9410248823D9F1F4
:10179000D4F120E030E040E251E469817A818B812C
:1017A0009C810E9415246F8B788F898F9A8F8F89E7
:1017B000988DA98DBA8D8F87988BA98BBA8B6F85E1
:1017C000788989899A890E942F236B8F7C8F8D8FCE
:1017D0009E8FAB8DBC8DBA87A98710C080E991E040
:1017E0009C878B878B859C850197F1F79C878B87DE
:1017F000000089859A8501979A87898789859A85C6
:10180000009761F719C06D817E818F8198850E9454
:101810002F236F8F78A389A39AA38F8D98A19A877E
:10182000898789859A859E878D878D859E85019775
:10183000F1F79E878D8700000000A2960FB6F894FE
:10184000DEBF0FBECDBFDF91CF910895CF93DF9361
:10185000CDB7DEB70E9429040E944D020E94A2204B
:101860000E94BF040E94540478940000DF91CF913D
:1018700008950F931F93CF93DF93CDB7DEB7C45472
:10188000D2400FB6F894DEBF0FBECDBF0E94260C2B
:101890001A82198280E00E94E40380E00E94CC0258
:1018A00080E00E941603809192029091930287300B
:1018B000910571F06CF080E00E94B80383E790E03E
:1018C000DC018C91882321F41092930210929202F1
:1018D0008FE290E0FC018081882F90E08071992751
:1018E000009741F08091900290919102863091058D
:1018F00009F0CCC080E090E0A0EAB1E48B839C8347
:10190000AD83BE8320E030E04AE755E46B817C8103
:101910008D819E810E941524CB5CDE4F6883798384
:101920008A839B83C553D140CB5CDE4F88819981EC
:10193000AA81BB81C553D1408F839887A987BA8775
:1019400020E030E040E85FE36F81788589859A8503
:101950000E94B82288232CF481E090E09C878B873A
:1019600076C020E03FEF4FE757E46F8178858985A7
:101970009A850E941024882309F00CF452C020E0BC
:1019800030E040E251E46B817C818D819E810E9438
:101990001524C75CDE4F688379838A839B83C95390
:1019A000D140C75CDE4F88819981AA81BB81C95330
:1019B000D140CF50DF4F88839983AA83BB83C15F17
:1019C000D040CF50DF4F688179818A819B81C15F90
:1019D000D0400E942F23C35CDE4F688379838A83C3
:1019E0009B83CD53D140C35CDE4FA881B981CD53D9
:1019F000D140BC87AB8710C080E991E09E878D877E
:101A00008D859E850197F1F79E878D8700008B85D8
:101A10009C8501979C878B878B859C85009761F7B8
:101A200021C06F81788589859A850E942F23CF5B9D
:101A3000DE4F688379838A839B83C154D140CF5B17
:101A4000DE4FE881F981C154D140FC87EB878B855B
:101A50009C85988B8F878F8598890197F1F7988B54
:101A60008F87000081E390E0DC012C9181E390E01E
:101A70002F77FC01208381E00E94B80384E190E08D
:101A800090939102809390021A82198289819A819F
:101A9000092E000CAA0BBB0B8C309105A105B105DA
:101AA00011F008F000CFFC018827EC57FB4D8F4F59
:101AB0000C94F32181E00E94E40380E00E94CC02B8
:101AC00080E00E9416030E94800B61E081E00E948A
:101AD000640B82E092E00E94420B8FE290E0DC0116
:101AE0008C91882F90E080719927009711F40C94C5
:101AF0004C1F80919002909191028730910511F0D6
:101B00000C944C1F80E090E0A0EAB1E4898B9A8BA2
:101B1000AB8BBC8B20E030E04AE755E469897A89D9
:101B20008B899C890E941524CB5BDE4F6883798367
:101B30008A839B83C554D140CB5BDE4F88819981DA
:101B4000AA81BB81C554D1408D8B9E8BAF8BB88F42
:101B500020E030E040E85FE36D897E898F89988DD1
:101B60000E94B82288232CF481E090E09A8F898F1C
:101B700076C020E03FEF4FE757E46D897E898F897B
:101B8000988D0E941024882309F00CF452C020E0A4
:101B900030E040E251E469897A898B899C890E940E
:101BA0001524C75BDE4F688379838A839B83C9547E
:101BB000D140C75BDE4F88819981AA81BB81C9541E
:101BC000D140CB50DF4F88839983AA83BB83C55F05
:101BD000D040CB50DF4F688179818A819B81C55F7E
:101BE000D0400E942F23C35BDE4F688379838A83B2
:101BF0009B83CD54D140C35BDE4FA881B981CD54C6
:101C0000D140BA8FA98F10C080E991E09C8F8B8F53
:101C10008B8D9C8D0197F1F79C8F8B8F0000898DA8
:101C20009A8D01979A8F898F898D9A8D009761F788
:101C300021C06D897E898F89988D0E942F23CF5A6C
:101C4000DE4F688379838A839B83C155D140CF5A05
:101C5000DE4FE881F981C155D140FA8FE98F898D36
:101C60009A8D9E8F8D8F8D8D9E8D0197F1F79E8F12
:101C70008D8F000081E390E0DC012C9181E390E006
:101C80002068FC01208384E190E09093910280938E
:101C9000900281E090E09A8389830C944C1F80E04D
:101CA0000E94E40380E00E94080480E00E94CC02CD
:101CB00080E00E9416030E94800B61E081E00E9498
:101CC000640B8FE092E00E94420B8FE290E0DC0117
:101CD0008C91882F90E088709927009749F0809127
:101CE0009002909191028830910511F00C944F1F51
:101CF00080E090E0A0EAB1E48F8F98A3A9A3BAA3F3
:101D000020E030E04AE755E46F8D78A189A19AA1DF
:101D10000E941524CB5ADE4F688379838A839B8384
:101D2000C555D140CB5ADE4F88819981AA81BB81AC
:101D3000C555D1408BA39CA3ADA3BEA320E030E04A
:101D400040E85FE36BA17CA18DA19EA10E94B82217
:101D500088232CF481E090E098A78FA376C020E040
:101D60003FEF4FE757E46BA17CA18DA19EA10E949C
:101D70001024882309F00CF452C020E030E040E247
:101D800051E46F8D78A189A19AA10E941524C75AA8
:101D9000DE4F688379838A839B83C955D140C75AB4
:101DA000DE4F88819981AA81BB81C955D140C75036
:101DB000DF4F88839983AA83BB83C95FD040C75014
:101DC000DF4F688179818A819B81C95FD0400E9401
:101DD0002F23C35ADE4F688379838A839B83CD5533
:101DE000D140C35ADE4FA881B981CD55D140B8A7A3
:101DF000AFA310C080E991E09AA789A789A59AA509
:101E00000197F1F79AA789A700008FA198A50197DC
:101E100098A78FA38FA198A5009761F721C06BA108
:101E20007CA18DA19EA10E942F23CF59DE4F6883F4
:101E300079838A839B83C156D140CF59DE4FE88195
:101E4000F981C156D140F8A7EFA38FA198A59CA70F
:101E50008BA78BA59CA50197F1F79CA78BA70000EA
:101E600084E190E0909391028093900282E090E070
:101E70009A8389830C944F1F80E50E94CC0281E0F5
:101E80000E94E40381E00E94B8030E94800B61E09D
:101E900081E00E94640B89E192E00E94420B80E2A3
:101EA00090E0DC018C91882314F40C94521F80E0A4
:101EB00090E0A0EAB1E48DA79EA7AFA7B8AB20E061
:101EC00030E04AE755E46DA57EA58FA598A90E944C
:101ED0001524CB59DE4F688379838A839B83C5564B
:101EE000D140CB59DE4F88819981AA81BB81C556EB
:101EF000D14089AB9AABABABBCAB20E030E040E863
:101F00005FE369A97AA98BA99CA90E94B8228823BA
:101F10002CF481E090E09EAB8DAB76C020E03FEFEB
:101F20004FE757E469A97AA98BA99CA90E941024BC
:101F3000882309F00CF452C020E030E040E251E484
:101F40006DA57EA58FA598A90E941524C759DE4FBF
:101F5000688379838A839B83C956D140C759DE4FF2
:101F600088819981AA81BB81C956D140C350DF4F76
:101F700088839983AA83BB83CD5FD040C350DF4F52
:101F8000688179818A819B81CD5FD0400E942F2317
:101F9000C359DE4F688379838A839B83CD56D140B2
:101FA000C359DE4FA881B981CD56D140BEABADAB90
:101FB00010C080E991E098AF8FAB8FA998AD0197E1
:101FC000F1F798AF8FAB00008DA99EA901979EAB4A
:101FD0008DAB8DA99EA9009761F721C069A97AA947
:101FE0008BA99CA90E942F23CF58DE4F6883798349
:101FF0008A839B83C157D140CF58DE4FE881F98156
:10200000C157D140FEABEDAB8DA99EA99AAF89AF68
:1020100089AD9AAD0197F1F79AAF89AF000083E0DF
:1020200090E09A8389830C94521F80E00E94CC0236
:1020300080E00E94E4030E94800B61E081E00E9446
:10204000640B84E292E00E94420B8FE290E0DC019C
:102050008C91882F90E088709927009741F08091AB
:102060009002909191028830910509F000C180E0C2
:1020700090E0A0EAB1E48BAF9CAFADAFBEAF8E01F4
:10208000015C1F4F20E030E04AE755E46BAD7CADCA
:102090008DAD9EAD0E941524CB58DE4F68837983A9
:1020A0008A839B83C557D140CB58DE4F8881998165
:1020B000AA81BB81C557D140F80180839183A28357
:1020C000B383CE01CF9620E030E040E85FE3DC014F
:1020D0006D917D918D919C910E94B82288234CF442
:1020E000CE018D5B9F4F21E030E0FC0131832083E6
:1020F0009FC0CE01CF9620E03FEF4FE757E4DC01D1
:102100006D917D918D919C910E941024882309F0FE
:102110000CF471C020E030E040E251E46BAD7CADE6
:102120008DAD9EAD0E941524C758DE4F688379831C
:102130008A839B83C957D140C758DE4F88819981D4
:10214000AA81BB81C957D140CF5FDE4F8883998375
:10215000AA83BB83C150D1408E010D5B1F4FCF5F5F
:10216000DE4F688179818A819B81C150D1400E9474
:102170002F23C358DE4F688379838A839B83CD578F
:10218000D140C358DE4FE881F981CD57D140D80105
:102190001196FC93EE9326C0CE018B5B9F4F20E9F6
:1021A00031E0DC012D933C93CE018B5B9F4FFC0112
:1021B000808191810197F1F79E012B5B3F4FD901FF
:1021C0008D939C930000CE018D5B9F4F9E012D5BF4
:1021D0003F4FF9012081318121503109DC011196F5
:1021E0003C932E93CE018D5B9F4FFC0180819181AA
:1021F000009791F638C08E010D5B1F4FCE01CF9630
:10220000DC016D917D918D919C910E942F23CF5780
:10221000DE4F688379838A839B83C158D140CF572F
:10222000DE4F88819981C158D140F8019183808324
:10223000CE01895B9F4F9E012D5B3F4FD9012D91B0
:102240003C91FC0131832083CE01895B9F4FDC01EF
:102250008D919C910197F1F79E01295B3F4FF90108
:102260009183808300008CE090E09A8389838FE2E1
:1022700090E0DC018C91882F90E081709927009785
:1022800049F080919002909191028330910511F074
:102290000C94551F9E01275B3F4F80E090E0A0EA21
:1022A000B1E4F90180839183A283B3838E01035B40
:1022B0001F4FCE01875B9F4F20E030E04AE755E497
:1022C000DC016D917D918D919C910E941524CB57DD
:1022D000DE4F688379838A839B83C558D140CB576F
:1022E000DE4F88819981AA81BB81C558D140F80110
:1022F00080839183A283B383CE01835B9F4F20E0D1
:1023000030E040E85FE3DC016D917D918D919C911F
:102310000E94B82288234CF4CE018F5A9F4F21E0AF
:1023200030E0FC0131832083A5C0CE01835B9F4F49
:1023300020E03FEF4FE757E4DC016D917D918D91F7
:102340009C910E941024882309F00CF475C0CE01E2
:10235000875B9F4F20E030E040E251E4FC01608168
:102360007181828193810E941524C757DE4F688353
:1023700079838A839B83C958D140C757DE4F8881B0
:102380009981AA81BB81C958D140CB5FDE4F888338
:102390009983AA83BB83C550D1408E010F5A1F4F2A
:1023A000CB5FDE4F688179818A819B81C550D140A6
:1023B0000E942F23C357DE4F688379838A839B83D0
:1023C000CD58D140C357DE4FE881F981CD58D14077
:1023D000D8011196FC93EE9326C0CE018D5A9F4FE3
:1023E00020E931E0DC012D933C93CE018D5A9F4FC3
:1023F000FC01808191810197F1F79E012D5A3F4F99
:10240000D9018D939C930000CE018F5A9F4F9E015E
:102410002F5A3F4FF9012081318121503109DC01D0
:1024200011963C932E93CE018F5A9F4FFC018081D1
:102430009181009791F63AC08E010F5A1F4FCE013D
:10244000835B9F4FDC016D917D918D919C910E94EA
:102450002F23CF56DE4F688379838A839B83C159AC
:10246000D140CF56DE4F88819981C159D140F801C2
:1024700091838083CE018B5A9F4F9E012F5A3F4FED
:10248000D9012D913C91FC0131832083CE018B5ADF
:102490009F4FDC018D919C9111970197F1F79E015F
:1024A0002B5A3F4FF90191838083000084E090E034
:1024B0009A8389830C94551F81E00E94080481E06F
:1024C0000E94B80381E00E94E4030E94800B61E057
:1024D00081E00E94640B83E392E00E94420B9E0124
:1024E000295A3F4F80E090E0AAEFB3E4F9018083DE
:1024F0009183A283B3838E01055A1F4FCE01895A5F
:102500009F4F20E030E04AE755E4DC016D917D917A
:102510008D919C910E941524CB56DE4F6883798360
:102520008A839B83C559D140CB56DE4F88819981E0
:10253000AA81BB81C559D140F80180839183A283D0
:10254000B383CE01855A9F4F20E030E040E85FE33F
:10255000DC016D917D918D919C910E94B822882320
:102560004CF4CE01815A9F4F21E030E0FC013183D1
:102570002083A5C0CE01855A9F4F20E03FEF4FE753
:1025800057E4DC016D917D918D919C910E94102406
:10259000882309F00CF475C0CE01895A9F4F20E0C2
:1025A00030E040E251E4FC016081718182819381DD
:1025B0000E941524C756DE4F688379838A839B83E4
:1025C000C959D140C756DE4F88819981AA81BB8104
:1025D000C959D140C75FDE4F88839983AA83BB83E3
:1025E000C950D1408E01015A1F4FC75FDE4F68812D
:1025F00079818A819B81C950D1400E942F23C35683
:10260000DE4F688379838A839B83CD59D140C3563B
:10261000DE4FE881F981CD59D140D8011196FC9364
:10262000EE9326C0CE018F599F4F20E931E0DC01A7
:102630002D933C93CE018F599F4FFC018081918156
:102640000197F1F79E012F593F4FD9018D939C932C
:102650000000CE01815A9F4F9E01215A3F4FF90140
:102660002081318121503109DC0111963C932E9358
:10267000CE01815A9F4FFC0180819181009791F694
:1026800039C08E01015A1F4FCE01855A9F4FDC0180
:102690006D917D918D919C910E942F23CF55DE4F9E
:1026A000688379838A839B83C15AD140CF55DE4F9B
:1026B00088819981C15AD140F80191838083CE01EC
:1026C0008D599F4F9E01215A3F4FD9012D913C9129
:1026D000FC0131832083CE018D599F4FDC018D9108
:1026E0009C910197F1F79E012D593F4FF90191837C
:1026F0008083000080E50E94160380E290E0DC0108
:102700008C91882F90E088709927009711F00C9495
:10271000581F9E012B593F4F80E090E0A0EAB1E4A2
:10272000F90180839183A283B3838E0107591F4FE0
:10273000CE018B599F4F20E030E04AE755E4DC01A1
:102740006D917D918D919C910E941524CB55DE4F0A
:10275000688379838A839B83C55AD140CB55DE4FEA
:1027600088819981AA81BB81C55AD140F8018083B3
:102770009183A283B383CE0187599F4F20E030E03D
:1027800040E85FE3DC016D917D918D919C910E9409
:10279000B82288234CF4CE0183599F4F21E030E0CA
:1027A000FC0131832083A5C0CE0187599F4F20E0D3
:1027B0003FEF4FE757E4DC016D917D918D919C9146
:1027C0000E941024882309F00CF475C0CE018B59A7
:1027D0009F4F20E030E040E251E4FC0160817181D4
:1027E000828193810E941524C755DE4F68837983C7
:1027F0008A839B83C95AD140C755DE4F888199810E
:10280000AA81BB81C95AD140C35FDE4F88839983B7
:10281000AA83BB83CD50D1408E0103591F4FC35FA4
:10282000DE4F688179818A819B81CD50D1400E94A1
:102830002F23C355DE4F688379838A839B83CD5AC8
:10284000D140C355DE4FE881F981CD5AD140D8013E
:102850001196FC93EE9326C0CE0181599F4F20E93B
:1028600031E0DC012D933C93CE0181599F4FFC0157
:10287000808191810197F1F79E0121593F4FD90144
:102880008D939C930000CE0183599F4F9E01235945
:102890003F4FF9012081318121503109DC0111962E
:1028A0003C932E93CE0183599F4FFC0180819181EF
:1028B000009791F63AC08E0103591F4FCE018759F8
:1028C0009F4FDC016D917D918D919C910E942F23F2
:1028D000CF54DE4F688379838A839B83C15BD14069
:1028E000CF54DE4F88819981C15BD140F80191833B
:1028F0008083CE018F589F4F9E0123593F4FD901AE
:102900002D913C91FC0131832083CE018F589F4F44
:10291000DC018D919C9111970197F1F79E012F5841
:102920003F4FF90191838083000085E090E09A8316
:1029300089830C94581F80E00E94160380E00E9457
:10294000E4030E94800B62E081E00E94640B8CE350
:1029500092E00E94420B61E081E00E94640B8CE4F3
:1029600092E00E94420B8FE290E0DC018C91882F74
:1029700090E084709927009749F08091900290919F
:1029800091028530910511F00C945B1F9E012D582A
:102990003F4F80E090E0A0EAB1E4F90180839183A9
:1029A000A283B3838E0109581F4FCE018D589F4FCC
:1029B00020E030E04AE755E4DC016D917D918D9196
:1029C0009C910E941524CB54DE4F688379838A83BF
:1029D0009B83C55BD140CB54DE4F88819981AA810E
:1029E000BB81C55BD140F80180839183A283B3830F
:1029F000CE0189589F4F20E030E040E85FE3DC01E2
:102A00006D917D918D919C910E94B82288234CF408
:102A1000CE0185589F4F21E030E0FC0131832083B7
:102A2000A5C0CE0189589F4F20E03FEF4FE757E404
:102A3000DC016D917D918D919C910E9410248823E1
:102A400009F00CF475C0CE018D589F4F20E030E0A6
:102A500040E251E4FC0160817181828193810E9496
:102A60001524C754DE4F688379838A839B83C95BAF
:102A7000D140C754DE4F88819981AA81BB81C95B4F
:102A8000D140CF5EDE4F88839983AA83BB83C15137
:102A9000D1408E0105581F4FCF5EDE4F688179818E
:102AA0008A819B81C151D1400E942F23C354DE4FA4
:102AB000688379838A839B83CD5BD140C354DE4F87
:102AC000E881F981CD5BD140D8011196FC93EE935A
:102AD00026C0CE0183589F4F20E931E0DC012D93C1
:102AE0003C93CE0183589F4FFC01808191810197D7
:102AF000F1F79E0123583F4FD9018D939C9300001D
:102B0000CE0185589F4F9E0125583F4FF9012081E6
:102B1000318121503109DC0111963C932E93CE0175
:102B200085589F4FFC0180819181009791F63AC0B2
:102B30008E0105581F4FCE0189589F4FDC016D91C2
:102B40007D918D919C910E942F23CF53DE4F6883FE
:102B500079838A839B83C15CD140CF53DE4F8881C8
:102B60009981C15CD140F80191838083CE01815865
:102B70009F4F9E0125583F4FD9012D913C91FC015B
:102B800031832083CE0181589F4FDC018D919C9130
:102B900011970197F1F79E0121583F4FF901918359
:102BA0008083000086E090E09A8389830C945B1F09
:102BB0008EEC0E94160381E00E94B80381E00E941F
:102BC000E4030E94800B61E081E00E94640B84E5D5
:102BD00092E00E94420B80E290E0DC018C91882F11
:102BE00090E080729927009711F00C945E1F9E016F
:102BF0002F573F4F80E090E0A0EAB1E4F9018083D5
:102C00009183A283B3838E010B571F4FCE018F5741
:102C10009F4F20E030E04AE755E4DC016D917D9163
:102C20008D919C910E941524CB53DE4F688379834C
:102C30008A839B83C55CD140CB53DE4F88819981C9
:102C4000AA81BB81C55CD140F80180839183A283B6
:102C5000B383CE018B579F4F20E030E040E85FE325
:102C6000DC016D917D918D919C910E94B822882309
:102C70004CF4CE0187579F4F21E030E0FC013183B7
:102C80002083A5C0CE018B579F4F20E03FEF4FE739
:102C900057E4DC016D917D918D919C910E941024EF
:102CA000882309F00CF475C0CE018F579F4F20E0A8
:102CB00030E040E251E4FC016081718182819381C6
:102CC0000E941524C753DE4F688379838A839B83D0
:102CD000C95CD140C753DE4F88819981AA81BB81ED
:102CE000C95CD140CB5EDE4F88839983AA83BB83C6
:102CF000C551D1408E0107571F4FCB5EDE4F688113
:102D000079818A819B81C551D1400E942F23C35371
:102D1000DE4F688379838A839B83CD5CD140C35324
:102D2000DE4FE881F981CD5CD140D8011196FC934A
:102D3000EE9326C0CE0185579F4F20E931E0DC019C
:102D40002D933C93CE0185579F4FFC01808191814B
:102D50000197F1F79E0125573F4FD9018D939C9321
:102D60000000CE0187579F4F9E0127573F4FF90123
:102D70002081318121503109DC0111963C932E9341
:102D8000CE0187579F4FFC0180819181009791F67A
:102D90003AC08E0107571F4FCE018B579F4FDC0162
:102DA0006D917D918D919C910E942F23CF52DE4F8A
:102DB000688379838A839B83C15DD140CF52DE4F84
:102DC00088819981C15DD140F80191838083CE01D2
:102DD00083579F4F9E0127573F4FD9012D913C911B
:102DE000FC0131832083CE0183579F4FDC018D91FD
:102DF0009C9111970197F1F79E0123573F4FF901DD
:102E000091838083000087E090E09A8389830C940B
:102E10005E1F80E00E94160380E00E94080480E0AC
:102E20000E94E4030E94800B61E081E00E94640B39
:102E30008CE392E00E94420B8FE290E0DC018C91E7
:102E4000882F90E081709927009741F0809190023F
:102E5000909191028330910509F00FC19E01215795
:102E60003F4F80E090E0A0EAB1E4F90180839183D4
:102E7000A283B3838E010D561F4FCE0181579F4F02
:102E800020E030E04AE755E4DC016D917D918D91C1
:102E90009C910E941524CB52DE4F688379838A83EC
:102EA0009B83C55DD140CB52DE4F88819981AA8139
:102EB000BB81C55DD140F80180839183A283B38338
:102EC000CE018D569F4F20E030E040E85FE3DC010B
:102ED0006D917D918D919C910E94B82288234CF434
:102EE000CE0189569F4F21E030E0FC0131832083E1
:102EF000A5C0CE018D569F4F20E03FEF4FE757E42E
:102F0000DC016D917D918D919C910E94102488230C
:102F100009F00CF475C0CE0181579F4F20E030E0DE
:102F200040E251E4FC0160817181828193810E94C1
:102F30001524C752DE4F688379838A839B83C95DDA
:102F4000D140C752DE4F88819981AA81BB81C95D7A
:102F5000D140C75EDE4F88839983AA83BB83C95162
:102F6000D1408E0109561F4FC75EDE4F68817981BF
:102F70008A819B81C951D1400E942F23C352DE4FC9
:102F8000688379838A839B83CD5DD140C352DE4FB2
:102F9000E881F981CD5DD140D8011196FC93EE9383
:102FA00026C0CE0187569F4F20E931E0DC012D93EA
:102FB0003C93CE0187569F4FFC0180819181019700
:102FC000F1F79E0127563F4FD9018D939C93000046
:102FD000CE0189569F4F9E0129563F4FF90120810E
:102FE000318121503109DC0111963C932E93CE01A1
:102FF00089569F4FFC0180819181009791F639C0DD
:103000008E0109561F4FCE018D569F4FDC016D91E9
:103010007D918D919C910E942F23CF51DE4F68832B
:1030200079838A839B83C15ED140CF51DE4F8881F3
:103030009981C15ED140F80191838083CE0185568C
:103040009F4F9E0129563F4FD9012D913C91FC0184
:1030500031832083CE0185569F4FDC018D919C9159
:103060000197F1F79E0125563F4FF9019183808327
:10307000000088E090E09A8389838FE290E0DC0191
:103080008C91882F90E082709927009741F0809171
:103090009002909191028430910509F012C79E012F
:1030A00023563F4F80E090E0A0EAB1E4F90180832D
:1030B0009183A283B3838E010F551F4FCE01835698
:1030C0009F4F20E030E04AE755E4DC016D917D91AF
:1030D0008D919C910E941524CB51DE4F688379839A
:1030E0008A839B83C55ED140CB51DE4F8881998115
:1030F000AA81BB81C55ED140F80180839183A28300
:10310000B383CE018F559F4F20E030E040E85FE36E
:10311000DC016D917D918D919C910E94B822882354
:103120004CF4CE018B559F4F21E030E0FC01318300
:103130002083A5C0CE018F559F4F20E03FEF4FE782
:1031400057E4DC016D917D918D919C910E9410243A
:10315000882309F00CF475C0CE0183569F4F20E000
:1031600030E040E251E4FC01608171818281938111
:103170000E941524C751DE4F688379838A839B831D
:10318000C95ED140C751DE4F88819981AA81BB8138
:10319000C95ED140C35EDE4F88839983AA83BB8317
:1031A000CD51D1408E010B551F4FC35EDE4F68815C
:1031B00079818A819B81CD51D1400E942F23C351B7
:1031C000DE4F688379838A839B83CD5ED140C35170
:1031D000DE4FE881F981CD5ED140D8011196FC9394
:1031E000EE9326C0CE0189559F4F20E931E0DC01E6
:1031F0002D933C93CE0189559F4FFC018081918195
:103200000197F1F79E0129553F4FD9018D939C936A
:103210000000CE018B559F4F9E012B553F4FF9016A
:103220002081318121503109DC0111963C932E938C
:10323000CE018B559F4FFC0180819181009791F6C3
:103240003AC08E010B551F4FCE018F559F4FDC01A9
:103250006D917D918D919C910E942F23CF50DE4FD7
:10326000688379838A839B83C15FD140CF50DE4FCF
:1032700088819981C15FD140F80191838083CE011B
:1032800087559F4F9E012B553F4FD9012D913C9162
:10329000FC0131832083CE0187559F4FDC018D9146
:1032A0009C9111970197F1F79E0127553F4FF90126
:1032B00091838083000089E090E09A83898301C62E
:1032C00080E50E94160381E00E94E40381E00E94F1
:1032D000B8030E94800B61E081E00E94640B8FE5DF
:1032E00092E00E94420B80E290E0DC018C91882FFA
:1032F00090E082709927009709F0E6C59E01255558
:103300003F4F80E090E0A0EAB1E4F901808391832F
:10331000A283B3838E0101551F4FCE0185559F4F68
:1033200020E030E04AE755E4DC016D917D918D911C
:103330009C910E941524CB50DE4F688379838A8349
:103340009B83C55FD140CB50DE4F88819981AA8194
:10335000BB81C55FD140F80180839183A283B38391
:10336000CE0181559F4F20E030E040E85FE3DC0173
:103370006D917D918D919C910E94B82288234CF48F
:10338000CE018D549F4F21E030E0FC01318320833A
:10339000A5C0CE0181559F4F20E03FEF4FE757E496
:1033A000DC016D917D918D919C910E941024882368
:1033B00009F00CF475C0CE0185559F4F20E030E038
:1033C00040E251E4FC0160817181828193810E941D
:1033D0001524C750DE4F688379838A839B83C95F36
:1033E000D140C750DE4F88819981AA81BB81C95FD6
:1033F000D140CF5DDE4F88839983AA83BB83C152BE
:10340000D1408E010D541F4FCF5DDE4F6881798111
:103410008A819B81C152D1400E942F23C350DE4F2D
:10342000688379838A839B83CD5FD140C350DE4F0D
:10343000E881F981CD5FD140D8011196FC93EE93DC
:1034400026C0CE018B549F4F20E931E0DC012D9343
:103450003C93CE018B549F4FFC0180819181019759
:10346000F1F79E012B543F4FD9018D939C9300009F
:10347000CE018D549F4F9E012D543F4FF901208165
:10348000318121503109DC0111963C932E93CE01FC
:103490008D549F4FFC0180819181009791F63AC035
:1034A0008E010D541F4FCE0181559F4FDC016D9150
:1034B0007D918D919C910E942F23CF5FDD4F68837A
:1034C00079838A839B83C150D240CF5FDD4F88814F
:1034D0009981C150D240F80191838083CE018954F3
:1034E0009F4F9E012D543F4FD9012D913C91FC01DE
:1034F00031832083CE0189549F4FDC018D919C91B3
:1035000011970197F1F79E0129543F4FF9019183DB
:103510008083000084E090E09A838983D5C481E0B1
:103520000E94B80381E00E94E40381E00E94080445
:103530000E94800B61E081E00E94640B8BE692E0C8
:103540000E94420B84E10E94160380E290E0DC01BD
:103550008C91882F90E088709927009709F0B7C464
:103560009E0127543F4F80E090E0A0EAB1E4F901CA
:1035700080839183A283B3838E0103541F4FCE01B6
:1035800087549F4F20E030E04AE755E4DC016D911D
:103590007D918D919C910E941524CB5FDD4F6883B6
:1035A00079838A839B83C550D240CB5FDD4F88816E
:1035B0009981AA81BB81C550D240F8018083918353
:1035C000A283B383CE0183549F4F20E030E040E8D4
:1035D0005FE3DC016D917D918D919C910E94B822F9
:1035E00088234CF4CE018F539F4F21E030E0FC0143
:1035F00031832083A5C0CE0183549F4F20E03FEF4D
:103600004FE757E4DC016D917D918D919C910E9473
:103610001024882309F00CF475C0CE0187549F4F05
:1036200020E030E040E251E4FC0160817181828160
:1036300093810E941524C75FDD4F688379838A8355
:103640009B83C950D240C75FDD4F88819981AA8191
:10365000BB81C950D240CB5DDE4F88839983AA835A
:10366000BB83C552D1408E010F531F4FCB5DDE4F40
:10367000688179818A819B81C552D1400E942F2324
:10368000C35FDD4F688379838A839B83CD50D240AB
:10369000C35FDD4FE881F981CD50D240D80111964A
:1036A000FC93EE9326C0CE018D539F4F20E931E06D
:1036B000DC012D933C93CE018D539F4FFC01808103
:1036C00091810197F1F79E012D533F4FD9018D93C1
:1036D0009C930000CE018F539F4F9E012F533F4F6D
:1036E000F9012081318121503109DC0111963C938F
:1036F0002E93CE018F539F4FFC01808191810097C3
:1037000091F63AC08E010F531F4FCE0183549F4F45
:10371000DC016D917D918D919C910E942F23CF5E54
:10372000DD4F688379838A839B83C151D240CF5E0A
:10373000DD4F88819981C151D240F8019183808306
:10374000CE018B539F4F9E012F533F4FD9012D9197
:103750003C91FC0131832083CE018B539F4FDC01D0
:103760008D919C9111970197F1F79E012B533F4F3B
:10377000F9019183808300008AE090E09A83898335
:10378000A6C380E00E94E4030E94800B61E081E018
:103790000E94640B84E792E00E94420B8FE290E06B
:1037A000DC018C91882F90E084709927009741F07C
:1037B00080919002909191028530910509F08AC321
:1037C0009E0129533F4F80E090E0A0EAB1E4F90167
:1037D00080839183A283B3838E0105531F4FCE0153
:1037E00089539F4F20E030E04AE755E4DC016D91BA
:1037F0007D918D919C910E941524CB5EDD4F688355
:1038000079838A839B83C551D240CB5EDD4F88810B
:103810009981AA81BB81C551D240F80180839183EF
:10382000A283B383CE0185539F4F20E030E040E870
:103830005FE3DC016D917D918D919C910E94B82296
:1038400088234CF4CE0181539F4F21E030E0FC01EE
:1038500031832083A5C0CE0185539F4F20E03FEFE9
:103860004FE757E4DC016D917D918D919C910E9411
:103870001024882309F00CF475C0CE0189539F4FA2
:1038800020E030E040E251E4FC01608171818281FE
:1038900093810E941524C75EDD4F688379838A83F4
:1038A0009B83C951D240C75EDD4F88819981AA812F
:1038B000BB81C951D240C75DDE4F88839983AA83FB
:1038C000BB83C952D1408E0101531F4FC75DDE4FEC
:1038D000688179818A819B81C952D1400E942F23BE
:1038E000C35EDD4F688379838A839B83CD51D24049
:1038F000C35EDD4FE881F981CD51D240D8011196E8
:10390000FC93EE9326C0CE018F529F4F20E931E009
:10391000DC012D933C93CE018F529F4FFC0180819F
:1039200091810197F1F79E012F523F4FD9018D935D
:103930009C930000CE0181539F4F9E0121533F4F26
:10394000F9012081318121503109DC0111963C932C
:103950002E93CE0181539F4FFC018081918100976E
:1039600091F63AC08E0101531F4FCE0185539F4FF0
:10397000DC016D917D918D919C910E942F23CF5DF3
:10398000DD4F688379838A839B83C152D240CF5DA8
:10399000DD4F88819981C152D240F80191838083A3
:1039A000CE018D529F4F9E0121533F4FD9012D9142
:1039B0003C91FC0131832083CE018D529F4FDC016D
:1039C0008D919C9111970197F1F79E012D523F4FD8
:1039D000F9019183808300008BE090E09A838983D2
:1039E00079C281E00E94B80381E00E94E4030E9452
:1039F000800B61E081E00E94640B84E592E00E940C
:103A0000420B80E290E0DC018C91882F90E0827084
:103A10009927009709F061C29E012B523F4F80E029
:103A200090E0A0EAB1E4F90180839183A283B3839B
:103A30008E0107521F4FCE018B529F4F20E030E086
:103A40004AE755E4DC016D917D918D919C910E9436
:103A50001524CB5DDD4F688379838A839B83C552B0
:103A6000D240CB5DDD4F88819981AA81BB81C5524F
:103A7000D240F80180839183A283B383CE01875221
:103A80009F4F20E030E040E85FE3DC016D917D91E5
:103A90008D919C910E94B82288234CF4CE018352D0
:103AA0009F4F21E030E0FC0131832083A5C0CE018F
:103AB00087529F4F20E03FEF4FE757E4DC016D91C5
:103AC0007D918D919C910E941024882309F00CF423
:103AD00075C0CE018B529F4F20E030E040E251E4B0
:103AE000FC0160817181828193810E941524C75DF0
:103AF000DD4F688379838A839B83C952D240C75D37
:103B0000DD4F88819981AA81BB81C952D240C35DB2
:103B1000DE4F88839983AA83BB83CD52D1408E0127
:103B200003521F4FC35DDE4F688179818A819B817B
:103B3000CD52D1400E942F23C35DDD4F688379832E
:103B40008A839B83CD52D240C35DDD4FE881F981EA
:103B5000CD52D240D8011196FC93EE9326C0CE01EF
:103B600081529F4F20E931E0DC012D933C93CE013F
:103B700081529F4FFC01808191810197F1F79E0155
:103B800021523F4FD9018D939C930000CE01835267
:103B90009F4F9E0123523F4FF901208131812150D7
:103BA0003109DC0111963C932E93CE0183529F4F35
:103BB000FC0180819181009791F63AC08E010352F9
:103BC0001F4FCE0187529F4FDC016D917D918D91EA
:103BD0009C910E942F23CF5CDD4F688379838A8379
:103BE0009B83C153D240CF5CDD4F88819981C15303
:103BF000D240F80191838083CE018F519F4F9E0167
:103C000023523F4FD9012D913C91FC0131832083F8
:103C1000CE018F519F4FDC018D919C91119701979F
:103C2000F1F79E012F513F4FF901918380830000EE
:103C300083E090E09A83898350C181E00E94E4038D
:103C400081E00E94B80380EB0E94CC020E94800BAE
:103C500061E081E00E94640B85E892E00E94420BE3
:103C600080E290E0DC018C91882F90E080749927AD
:103C7000009709F035C19E012D513F4F80E090E043
:103C8000A0EAB1E4F90180839183A283B3838E011A
:103C900009511F4FCE018D519F4F20E030E04AE780
:103CA00055E4DC016D917D918D919C910E941524CC
:103CB000CB5CDD4F688379838A839B83C553D24075
:103CC000CB5CDD4F88819981AA81BB81C553D240ED
:103CD000F80180839183A283B383CE0189519F4FE2
:103CE00020E030E040E85FE3DC016D917D918D9153
:103CF0009C910E94B82288234CF4CE0185519F4F9D
:103D000021E030E0FC0131832083A5C0CE01895140
:103D10009F4F20E03FEF4FE757E4DC016D917D912D
:103D20008D919C910E941024882309F00CF475C099
:103D3000CE018D519F4F20E030E040E251E4FC0184
:103D400060817181828193810E941524C75CDD4F5F
:103D5000688379838A839B83C953D240C75CDD4FD4
:103D600088819981AA81BB81C953D240CF5CDE4F43
:103D700088839983AA83BB83C153D1408E010551A7
:103D80001F4FCF5CDE4F688179818A819B81C1534F
:103D9000D1400E942F23C35CDD4F688379838A83DF
:103DA0009B83CD53D240C35CDD4FE881F981CD5375
:103DB000D240D8011196FC93EE9326C0CE018351D8
:103DC0009F4F20E931E0DC012D933C93CE018351DC
:103DD0009F4FFC01808191810197F1F79E01235152
:103DE0003F4FD9018D939C930000CE0185519F4F89
:103DF0009E0125513F4FF901208131812150310928
:103E0000DC0111963C932E93CE0185519F4FFC010E
:103E100080819181009791F63AC08E0105511F4F24
:103E2000CE0189519F4FDC016D917D918D919C91C7
:103E30000E942F23CF5BDD4F688379838A839B8326
:103E4000C154D240CF5BDD4F88819981C154D240AB
:103E5000F80191838083CE0181519F4F9E012551AE
:103E60003F4FD9012D913C91FC0131832083CE013C
:103E700081519F4FDC018D919C9111970197F1F732
:103E80009E0121513F4FF90191838083000081E021
:103E900090E09A83898324C000000C94530C0000A6
:103EA0000C94530C00000C94530C00000C94530C15
:103EB00000000C94530C00000C94530C00000C9464
:103EC000530C00000C94530C00000C94530C000095
:103ED0000C94530C00000C94530C00000C94530CE5
:103EE00000000C94530C1F920F920FB60F921124E6
:103EF0000BB60F922F938F939F93EF93FF93CF93D4
:103F0000DF93CDB7DEB788E091E0FC01208188E047
:103F100091E02068FC01208388E091E0FC01208191
:103F200088E091E02F7BFC0120830000DF91CF919E
:103F3000FF91EF919F918F912F910F900BBE0F905A
:103F40000FBE0F901F9018951F920F920FB60F92F1
:103F500011240BB60F922F938F939F93EF93FF93A0
:103F6000CF93DF93CDB7DEB78BE290E0FC012081E9
:103F70008BE290E02160FC0120838091920290917D
:103F80009302019690939302809392020000DF9136
:103F9000CF91FF91EF919F918F912F910F900BBE39
:103FA0000F900FBE0F901F9018951F920F920FB693
:103FB0000F9211240BB60F922F933F938F939F93E1
:103FC000EF93FF93CF93DF93CDB7DEB784E291E019
:103FD00020E137E2FC013183208388E091E0FC019D
:103FE000208188E091E02064FC01208388E091E05A
:103FF000FC01208188E091E02F77FC0120838BE297
:1040000090E0FC0120818BE290E02E7FFC01208378
:104010000000DF91CF91FF91EF919F918F913F91A0
:104020002F910F900BBE0F900FBE0F901F90189501
:104030001F920F920FB60F9211240BB60F922F936F
:104040003F938F939F93EF93FF93CF93DF93CDB7DE
:10405000DEB784EA90E024E234E6FC013183208379
:104060008EE290E0FC0120818EE290E02860FC016D
:10407000208384E390E0FC01208184E390E02062CF
:10408000FC0120830000DF91CF91FF91EF919F9180
:104090008F913F912F910F900BBE0F900FBE0F90FD
:1040A0001F9018951F920F920FB60F9211240BB606
:1040B0000F922F938F939F93EF93FF93CF93DF9361
:1040C000CDB7DEB78EE290E0FC0120818EE290E079
:1040D000277FFC0120830000DF91CF91FF91EF91BA
:1040E0009F918F912F910F900BBE0F900FBE0F904D
:1040F0001F9018951F920F920FB60F9211240BB6B6
:104100000F922F938F939F93EF93FF93CF93DF9310
:10411000CDB7DEB784E390E0FC01208184E390E03A
:104120002F7DFC0120830000DF91CF91FF91EF9163
:104130009F918F912F910F900BBE0F900FBE0F90FC
:104140001F901895CF93DF93CDB7DEB78DE290E047
:10415000FC0120818DE290E02860FC01208383E354
:1041600090E0FC01208183E390E02062FC01208349
:1041700080EA90E0FC01108281EA90E022E0FC01FC
:10418000208382E790E027E0FC01208384EA90E02E
:1041900024E234E6FC013183208380E00E94D820B1
:1041A00080E00E944C2178940000DF91CF91089527
:1041B0000F931F93CF93DF93CDB7DEB76D970FB6F5
:1041C000F894DEBF0FBECDBF898389818C390CF492
:1041D00057C08981843611F00CF052C08981282F94
:1041E000880F330B440B550B2E873F87488B598B19
:1041F0006E857F85888999890E9460236A837B8385
:104200008C839D8320E030E040E251E46A817B8131
:104210008C819D810E9415246A8B7B8B8C8B9D8B5E
:104220008A899B89AC89BD898E839F83A887B9873A
:1042300020E038EB4FED56E46E817F8188859985CB
:104240000E944C226E8B7F8B888F998F2E893F899D
:10425000488D598D2A873B874C875D8708EA10E097
:104260006A857B858C859D850E942F236A8F7B8F35
:104270008C8F9D8F8A8D9B8DD80111969C938E93E8
:1042800000006D960FB6F894DEBF0FBECDBFDF9174
:10429000CF911F910F9108950F931F93CF93DF93A9
:1042A000CDB7DEB76D970FB6F894DEBF0FBECDBFAA
:1042B000898389818C390CF457C08981843611F047
:1042C0000CF052C08981282F880F330B440B550BFB
:1042D0002E873F87488B598B6E857F858889998982
:1042E0000E9460236A837B838C839D8320E030E07F
:1042F00040E251E46A817B818C819D810E9415247A
:104300006A8B7B8B8C8B9D8B8A899B89AC89BD89C1
:104310008E839F83A887B98720E038EB4FED56E462
:104320006E817F81888599850E944C226E8B7F8B60
:10433000888F998F2E893F89488D598D2A873B8791
:104340004C875D870AEA10E06A857B858C859D85B0
:104350000E942F236A8F7B8F8C8F9D8F8A8D9B8DE0
:10436000D80111969C938E9300006D960FB6F89429
:10437000DEBF0FBECDBFDF91CF911F910F9108958A
:1043800097FB072E16F4009407D077FD09D00E9402
:10439000062207FC05D03EF4909581959F4F089525
:1043A000709561957F4F0895052E97FB1EF400943C
:1043B0000E94EB2157FD07D00E941A2207FC03D070
:1043C0004EF40C94EB2150954095309521953F4F3C
:1043D0004F4F5F4F089590958095709561957F4FF1
:1043E0008F4F9F4F0895EE0FFF1F881F8BBF0790C1
:1043F000F691E02D19940E943C22A59F900DB49F48
:10440000900DA49F800D911D11240895AA1BBB1B24
:1044100051E107C0AA1FBB1FA617B70710F0A61BC4
:10442000B70B881F991F5A95A9F780959095BC01E5
:10443000CD010895A1E21A2EAA1BBB1BFD010DC0E0
:10444000AA1FBB1FEE1FFF1FA217B307E407F50744
:1044500020F0A21BB30BE40BF50B661F771F881F20
:10446000991F1A9469F760957095809590959B01B6
:10447000AC01BD01CF010895A29FB001B39FC0015F
:10448000A39F700D811D1124911DB29F700D811D80
:104490001124911D08955058BB27AA270E9463221A
:1044A0000C94D6230E94C82338F00E94CF2320F01A
:1044B00039F49F3F19F426F40C94C5230EF4E095CB
:1044C000E7FB0C94BF23E92F0E94E72358F3BA17A8
:1044D000620773078407950720F079F4A6F50C941A
:1044E00009240EF4E0950B2EBA2FA02D0B01B90173
:1044F00090010C01CA01A0011124FF27591B99F05A
:10450000593F50F4503E68F11A16F040A22F232F65
:10451000342F4427585FF3CF469537952795A795B5
:10452000F0405395C9F77EF41F16BA0B620B730B5C
:10453000840BBAF09150A1F0FF0FBB1F661F771FCD
:10454000881FC2F70EC0BA0F621F731F841F48F482
:10455000879577956795B795F7959E3F08F0B0CF0B
:104560009395880F08F09927EE0F979587950895F2
:104570000E949B2308F481E008950E94D1220C94AC
:10458000D6230E94CF2358F00E94C82340F029F47C
:104590005F3F29F00C94BF2351110C940A240C9412
:1045A000C5230E94E72368F39923B1F3552391F3C0
:1045B000951B550BBB27AA2762177307840738F092
:1045C0009F5F5F4F220F331F441FAA1FA9F335D0EF
:1045D0000E2E3AF0E0E832D091505040E695001CA3
:1045E000CAF72BD0FE2F29D0660F771F881FBB1F5D
:1045F000261737074807AB07B0E809F0BB0B802D3B
:10460000BF01FF2793585F4F3AF09E3F510578F066
:104610000C94BF230C940A245F3FE4F3983ED4F338
:10462000869577956795B795F7959F5FC9F7880F3A
:10463000911D9695879597F90895E1E0660F771F8C
:10464000881FBB1F621773078407BA0720F0621B1D
:10465000730B840BBA0BEE1F88F7E09508950E9448
:10466000EF2388F09F5798F0B92F9927B751B0F0F2
:10467000E1F0660F771F881F991F1AF0BA95C9F7E6
:1046800014C0B13091F00E940924B1E008950C9457
:104690000924672F782F8827B85F39F0B93FCCF30A
:1046A000869577956795B395D9F73EF49095809563
:1046B000709561957F4F8F4F9F4F0895E89409C083
:1046C00097FB3EF490958095709561957F4F8F4F45
:1046D0009F4F9923A9F0F92F96E9BB279395F6955B
:1046E000879577956795B795F111F8CFFAF4BB0FD9
:1046F00011F460FF1BC06F5F7F4F8F4F9F4F16C03D
:10470000882311F096E911C0772321F09EE8872FC6
:10471000762F05C0662371F096E8862F70E060E082
:104720002AF09A95660F771F881FDAF7880F9695FB
:10473000879597F90895990F0008550FAA0BE0E89F
:10474000FEEF16161706E807F907C0F01216130653
:10475000E407F50798F0621B730B840B950B39F493
:104760000A2661F0232B242B252B21F408950A26F9
:1047700009F4A140A6958FEF811D811D089597F939
:104780009F6780E870E060E008959FEF80EC0895F7
:1047900000240A9416161706180609060895002420
:1047A0000A9412161306140605060895092E03949A
:1047B000000C11F4882352F0BB0F40F4BF2B11F40E
:1047C00060FF04C06F5F7F4F8F4F9F4F089557FD6D
:1047D0009058440F551F59F05F3F71F04795880F6F
:1047E00097FB991F61F09F3F79F087950895121606
:1047F00013061406551FF2CF4695F1DF08C01616B2
:1048000017061806991FF1CF869571056105089462
:104810000895E894BB2766277727CB0197F9089579
:104820000E949B2308F48FEF08950E9428240C9483
:10483000D6230E94C82338F00E94CF2320F095236E
:1048400011F00C94BF230C94C52311240C940A245A
:104850000E94E72370F3959FC1F3950F50E0551F19
:10486000629FF001729FBB27F00DB11D639FAA27C5
:10487000F00DB11DAA1F649F6627B00DA11D661F14
:10488000829F2227B00DA11D621F739FB00DA11D35
:10489000621F839FA00D611D221F749F3327A00DEF
:1048A000611D231F849F600D211D822F762F6A2F8B
:1048B00011249F5750409AF0F1F088234AF0EE0FF0
:1048C000FF1FBB1F661F771F881F91505040A9F71D
:1048D0009E3F510580F00C94BF230C940A245F3F47
:1048E000E4F3983ED4F3869577956795B795F79559
:1048F000E7959F5FC1F7FE2B880F911D96958795D1
:1049000097F90895F894FFCF5A0D4F0E3C0F1510EC
:104910005C129B14D815091760198F1AC11BF11C62
:024920001D1E5A
:1049220000404E6F6F64746F657374616E64004F04
:10493200707374617274656E005569746B6C61702A
:1049420070656E00506C6161747320737465696781
:104952006572004F70626F7577656E00506C6161B1
:10496200747320766F6C67656E6465007374656935
:10497200676572004E6565727A657474656E00448F
:104982006F6F7220626F7577656E004166626F7538
:1049920077656E005374656967657220776567682D
:1049A200616C656E00496E6B6C617070656E0000C3
:00000001FF
